{
	"data": {
		"bytecode": {
			"linkReferences": {},
			"object": "6080604052348015600e575f80fd5b50606a80601a5f395ff3fe6080604052348015600e575f80fd5b50600436106026575f3560e01c80638f7dcfa314602a575b5f80fd5b60306032565b005b56fea2646970667358221220ed8fb0b16e8ac75233f9c1d731c127c67b809b5d0be106b8ae3a37f43e90ea9b64736f6c63430008170033",
			"opcodes": "PUSH1 0x80 PUSH1 0x40 MSTORE CALLVALUE DUP1 ISZERO PUSH1 0xE JUMPI PUSH0 DUP1 REVERT JUMPDEST POP PUSH1 0x6A DUP1 PUSH1 0x1A PUSH0 CODECOPY PUSH0 RETURN INVALID PUSH1 0x80 PUSH1 0x40 MSTORE CALLVALUE DUP1 ISZERO PUSH1 0xE JUMPI PUSH0 DUP1 REVERT JUMPDEST POP PUSH1 0x4 CALLDATASIZE LT PUSH1 0x26 JUMPI PUSH0 CALLDATALOAD PUSH1 0xE0 SHR DUP1 PUSH4 0x8F7DCFA3 EQ PUSH1 0x2A JUMPI JUMPDEST PUSH0 DUP1 REVERT JUMPDEST PUSH1 0x30 PUSH1 0x32 JUMP JUMPDEST STOP JUMPDEST JUMP INVALID LOG2 PUSH5 0x6970667358 0x22 SLT KECCAK256 0xED DUP16 0xB0 0xB1 PUSH15 0x8AC75233F9C1D731C127C67B809B5D SIGNEXTEND 0xE1 MOD 0xB8 0xAE GASPRICE CALLDATACOPY DELEGATECALL RETURNDATACOPY SWAP1 0xEA SWAP12 PUSH5 0x736F6C6343 STOP ADDMOD OR STOP CALLER "
		},
		"gasEstimates": {
			"creation": {
				"codeDepositCost": "21200",
				"executionCost": "73",
				"totalCost": "21273"
			},
			"external": {
				"head()": "121"
			}
		},
		"methodIdentifiers": {
			"head()": "8f7dcfa3"
		}
	},
	"abi": [
		{
			"inputs": [],
			"name": "head",
			"outputs": [],
			"stateMutability": "nonpayable",
			"type": "function"
		}
	]
}