{
	"data": {
		"bytecode": {
			"linkReferences": {},
			"object": "608060405234801561000f575f80fd5b506101c98061001d5f395ff3fe608060405234801561000f575f80fd5b5060043610610029575f3560e01c80635a33664c1461002d575b5f80fd5b610047600480360381019061004291906100cd565b61005d565b604051610054919061011a565b60405180910390f35b5f805b8281101561007c576001816100759190610160565b9050610060565b5f84826100899190610160565b9050809250505092915050565b5f80fd5b5f819050919050565b6100ac8161009a565b81146100b6575f80fd5b50565b5f813590506100c7816100a3565b92915050565b5f80604083850312156100e3576100e2610096565b5b5f6100f0858286016100b9565b9250506020610101858286016100b9565b9150509250929050565b6101148161009a565b82525050565b5f60208201905061012d5f83018461010b565b92915050565b7f4e487b71000000000000000000000000000000000000000000000000000000005f52601160045260245ffd5b5f61016a8261009a565b91506101758361009a565b925082820190508082111561018d5761018c610133565b5b9291505056fea26469706673582212202fcf2ad12ad3f1bebc418ac397307a190b954d7df5e3800ed6abf506ca9e585164736f6c63430008170033",
			"opcodes": "PUSH1 0x80 PUSH1 0x40 MSTORE CALLVALUE DUP1 ISZERO PUSH2 0xF JUMPI PUSH0 DUP1 REVERT JUMPDEST POP PUSH2 0x1C9 DUP1 PUSH2 0x1D PUSH0 CODECOPY PUSH0 RETURN INVALID PUSH1 0x80 PUSH1 0x40 MSTORE CALLVALUE DUP1 ISZERO PUSH2 0xF JUMPI PUSH0 DUP1 REVERT JUMPDEST POP PUSH1 0x4 CALLDATASIZE LT PUSH2 0x29 JUMPI PUSH0 CALLDATALOAD PUSH1 0xE0 SHR DUP1 PUSH4 0x5A33664C EQ PUSH2 0x2D JUMPI JUMPDEST PUSH0 DUP1 REVERT JUMPDEST PUSH2 0x47 PUSH1 0x4 DUP1 CALLDATASIZE SUB DUP2 ADD SWAP1 PUSH2 0x42 SWAP2 SWAP1 PUSH2 0xCD JUMP JUMPDEST PUSH2 0x5D JUMP JUMPDEST PUSH1 0x40 MLOAD PUSH2 0x54 SWAP2 SWAP1 PUSH2 0x11A JUMP JUMPDEST PUSH1 0x40 MLOAD DUP1 SWAP2 SUB SWAP1 RETURN JUMPDEST PUSH0 DUP1 JUMPDEST DUP3 DUP2 LT ISZERO PUSH2 0x7C JUMPI PUSH1 0x1 DUP2 PUSH2 0x75 SWAP2 SWAP1 PUSH2 0x160 JUMP JUMPDEST SWAP1 POP PUSH2 0x60 JUMP JUMPDEST PUSH0 DUP5 DUP3 PUSH2 0x89 SWAP2 SWAP1 PUSH2 0x160 JUMP JUMPDEST SWAP1 POP DUP1 SWAP3 POP POP POP SWAP3 SWAP2 POP POP JUMP JUMPDEST PUSH0 DUP1 REVERT JUMPDEST PUSH0 DUP2 SWAP1 POP SWAP2 SWAP1 POP JUMP JUMPDEST PUSH2 0xAC DUP2 PUSH2 0x9A JUMP JUMPDEST DUP2 EQ PUSH2 0xB6 JUMPI PUSH0 DUP1 REVERT JUMPDEST POP JUMP JUMPDEST PUSH0 DUP2 CALLDATALOAD SWAP1 POP PUSH2 0xC7 DUP2 PUSH2 0xA3 JUMP JUMPDEST SWAP3 SWAP2 POP POP JUMP JUMPDEST PUSH0 DUP1 PUSH1 0x40 DUP4 DUP6 SUB SLT ISZERO PUSH2 0xE3 JUMPI PUSH2 0xE2 PUSH2 0x96 JUMP JUMPDEST JUMPDEST PUSH0 PUSH2 0xF0 DUP6 DUP3 DUP7 ADD PUSH2 0xB9 JUMP JUMPDEST SWAP3 POP POP PUSH1 0x20 PUSH2 0x101 DUP6 DUP3 DUP7 ADD PUSH2 0xB9 JUMP JUMPDEST SWAP2 POP POP SWAP3 POP SWAP3 SWAP1 POP JUMP JUMPDEST PUSH2 0x114 DUP2 PUSH2 0x9A JUMP JUMPDEST DUP3 MSTORE POP POP JUMP JUMPDEST PUSH0 PUSH1 0x20 DUP3 ADD SWAP1 POP PUSH2 0x12D PUSH0 DUP4 ADD DUP5 PUSH2 0x10B JUMP JUMPDEST SWAP3 SWAP2 POP POP JUMP JUMPDEST PUSH32 0x4E487B7100000000000000000000000000000000000000000000000000000000 PUSH0 MSTORE PUSH1 0x11 PUSH1 0x4 MSTORE PUSH1 0x24 PUSH0 REVERT JUMPDEST PUSH0 PUSH2 0x16A DUP3 PUSH2 0x9A JUMP JUMPDEST SWAP2 POP PUSH2 0x175 DUP4 PUSH2 0x9A JUMP JUMPDEST SWAP3 POP DUP3 DUP3 ADD SWAP1 POP DUP1 DUP3 GT ISZERO PUSH2 0x18D JUMPI PUSH2 0x18C PUSH2 0x133 JUMP JUMPDEST JUMPDEST SWAP3 SWAP2 POP POP JUMP INVALID LOG2 PUSH5 0x6970667358 0x22 SLT KECCAK256 0x2F 0xCF 0x2A 0xD1 0x2A 0xD3 CALL 0xBE 0xBC COINBASE DUP11 0xC3 SWAP8 ADDRESS PUSH27 0x190B954D7DF5E3800ED6ABF506CA9E585164736F6C634300081700 CALLER "
		},
		"gasEstimates": {
			"creation": {
				"codeDepositCost": "91400",
				"executionCost": "139",
				"totalCost": "91539"
			},
			"external": {
				"year(uint256,uint256)": "infinite"
			}
		},
		"methodIdentifiers": {
			"year(uint256,uint256)": "5a33664c"
		}
	},
	"abi": [
		{
			"inputs": [
				{
					"internalType": "uint256",
					"name": "Byear",
					"type": "uint256"
				},
				{
					"internalType": "uint256",
					"name": "age",
					"type": "uint256"
				}
			],
			"name": "year",
			"outputs": [
				{
					"internalType": "uint256",
					"name": "",
					"type": "uint256"
				}
			],
			"stateMutability": "pure",
			"type": "function"
		}
	]
}