{
	"contracts/Strings.sol": {
		"myStr": {
			"abi": [
				{
					"inputs": [
						{
							"internalType": "string",
							"name": "message",
							"type": "string"
						}
					],
					"name": "getter",
					"outputs": [
						{
							"internalType": "string",
							"name": "",
							"type": "string"
						}
					],
					"stateMutability": "nonpayable",
					"type": "function"
				}
			],
			"devdoc": {
				"kind": "dev",
				"methods": {},
				"version": 1
			},
			"evm": {
				"assembly": "    /* \"contracts/Strings.sol\":85:252  contract myStr {... */\n  mstore(0x40, 0x80)\n  callvalue\n  dup1\n  iszero\n  tag_1\n  jumpi\n  0x00\n  dup1\n  revert\ntag_1:\n  pop\n  dataSize(sub_0)\n  dup1\n  dataOffset(sub_0)\n  0x00\n  codecopy\n  0x00\n  return\nstop\n\nsub_0: assembly {\n        /* \"contracts/Strings.sol\":85:252  contract myStr {... */\n      mstore(0x40, 0x80)\n      callvalue\n      dup1\n      iszero\n      tag_1\n      jumpi\n      0x00\n      dup1\n      revert\n    tag_1:\n      pop\n      jumpi(tag_2, lt(calldatasize, 0x04))\n      shr(0xe0, calldataload(0x00))\n      dup1\n      0x85f4c244\n      eq\n      tag_3\n      jumpi\n    tag_2:\n      0x00\n      dup1\n      revert\n        /* \"contracts/Strings.sol\":125:249  function getter(string memory message) public returns(string memory) {... */\n    tag_3:\n      tag_4\n      0x04\n      dup1\n      calldatasize\n      sub\n      dup2\n      add\n      swap1\n      tag_5\n      swap2\n      swap1\n      tag_6\n      jump\t// in\n    tag_5:\n      tag_7\n      jump\t// in\n    tag_4:\n      mload(0x40)\n      tag_8\n      swap2\n      swap1\n      tag_9\n      jump\t// in\n    tag_8:\n      mload(0x40)\n      dup1\n      swap2\n      sub\n      swap1\n      return\n    tag_7:\n        /* \"contracts/Strings.sol\":179:192  string memory */\n      0x60\n        /* \"contracts/Strings.sol\":212:219  message */\n      dup2\n        /* \"contracts/Strings.sol\":205:209  text */\n      0x00\n        /* \"contracts/Strings.sol\":205:219  text = message */\n      swap1\n      dup2\n      tag_11\n      swap2\n      swap1\n      tag_12\n      jump\t// in\n    tag_11:\n      pop\n        /* \"contracts/Strings.sol\":237:241  text */\n      0x00\n        /* \"contracts/Strings.sol\":230:241  return text */\n      dup1\n      sload\n      tag_13\n      swap1\n      tag_14\n      jump\t// in\n    tag_13:\n      dup1\n      0x1f\n      add\n      0x20\n      dup1\n      swap2\n      div\n      mul\n      0x20\n      add\n      mload(0x40)\n      swap1\n      dup2\n      add\n      0x40\n      mstore\n      dup1\n      swap3\n      swap2\n      swap1\n      dup2\n      dup2\n      mstore\n      0x20\n      add\n      dup3\n      dup1\n      sload\n      tag_15\n      swap1\n      tag_14\n      jump\t// in\n    tag_15:\n      dup1\n      iszero\n      tag_16\n      jumpi\n      dup1\n      0x1f\n      lt\n      tag_17\n      jumpi\n      0x0100\n      dup1\n      dup4\n      sload\n      div\n      mul\n      dup4\n      mstore\n      swap2\n      0x20\n      add\n      swap2\n      jump(tag_16)\n    tag_17:\n      dup3\n      add\n      swap2\n      swap1\n      0x00\n      mstore\n      keccak256(0x00, 0x20)\n      swap1\n    tag_18:\n      dup2\n      sload\n      dup2\n      mstore\n      swap1\n      0x01\n      add\n      swap1\n      0x20\n      add\n      dup1\n      dup4\n      gt\n      tag_18\n      jumpi\n      dup3\n      swap1\n      sub\n      0x1f\n      and\n      dup3\n      add\n      swap2\n    tag_16:\n      pop\n      pop\n      pop\n      pop\n      pop\n      swap1\n      pop\n        /* \"contracts/Strings.sol\":125:249  function getter(string memory message) public returns(string memory) {... */\n      swap2\n      swap1\n      pop\n      jump\t// out\n        /* \"#utility.yul\":7:82   */\n    tag_19:\n        /* \"#utility.yul\":40:46   */\n      0x00\n        /* \"#utility.yul\":73:75   */\n      0x40\n        /* \"#utility.yul\":67:76   */\n      mload\n        /* \"#utility.yul\":57:76   */\n      swap1\n      pop\n        /* \"#utility.yul\":7:82   */\n      swap1\n      jump\t// out\n        /* \"#utility.yul\":88:205   */\n    tag_20:\n        /* \"#utility.yul\":197:198   */\n      0x00\n        /* \"#utility.yul\":194:195   */\n      dup1\n        /* \"#utility.yul\":187:199   */\n      revert\n        /* \"#utility.yul\":211:328   */\n    tag_21:\n        /* \"#utility.yul\":320:321   */\n      0x00\n        /* \"#utility.yul\":317:318   */\n      dup1\n        /* \"#utility.yul\":310:322   */\n      revert\n        /* \"#utility.yul\":334:451   */\n    tag_22:\n        /* \"#utility.yul\":443:444   */\n      0x00\n        /* \"#utility.yul\":440:441   */\n      dup1\n        /* \"#utility.yul\":433:445   */\n      revert\n        /* \"#utility.yul\":457:574   */\n    tag_23:\n        /* \"#utility.yul\":566:567   */\n      0x00\n        /* \"#utility.yul\":563:564   */\n      dup1\n        /* \"#utility.yul\":556:568   */\n      revert\n        /* \"#utility.yul\":580:682   */\n    tag_24:\n        /* \"#utility.yul\":621:627   */\n      0x00\n        /* \"#utility.yul\":672:674   */\n      0x1f\n        /* \"#utility.yul\":668:675   */\n      not\n        /* \"#utility.yul\":663:665   */\n      0x1f\n        /* \"#utility.yul\":656:661   */\n      dup4\n        /* \"#utility.yul\":652:666   */\n      add\n        /* \"#utility.yul\":648:676   */\n      and\n        /* \"#utility.yul\":638:676   */\n      swap1\n      pop\n        /* \"#utility.yul\":580:682   */\n      swap2\n      swap1\n      pop\n      jump\t// out\n        /* \"#utility.yul\":688:868   */\n    tag_25:\n        /* \"#utility.yul\":736:813   */\n      0x4e487b7100000000000000000000000000000000000000000000000000000000\n        /* \"#utility.yul\":733:734   */\n      0x00\n        /* \"#utility.yul\":726:814   */\n      mstore\n        /* \"#utility.yul\":833:837   */\n      0x41\n        /* \"#utility.yul\":830:831   */\n      0x04\n        /* \"#utility.yul\":823:838   */\n      mstore\n        /* \"#utility.yul\":857:861   */\n      0x24\n        /* \"#utility.yul\":854:855   */\n      0x00\n        /* \"#utility.yul\":847:862   */\n      revert\n        /* \"#utility.yul\":874:1155   */\n    tag_26:\n        /* \"#utility.yul\":957:984   */\n      tag_62\n        /* \"#utility.yul\":979:983   */\n      dup3\n        /* \"#utility.yul\":957:984   */\n      tag_24\n      jump\t// in\n    tag_62:\n        /* \"#utility.yul\":949:955   */\n      dup2\n        /* \"#utility.yul\":945:985   */\n      add\n        /* \"#utility.yul\":1087:1093   */\n      dup2\n        /* \"#utility.yul\":1075:1085   */\n      dup2\n        /* \"#utility.yul\":1072:1094   */\n      lt\n        /* \"#utility.yul\":1051:1069   */\n      0xffffffffffffffff\n        /* \"#utility.yul\":1039:1049   */\n      dup3\n        /* \"#utility.yul\":1036:1070   */\n      gt\n        /* \"#utility.yul\":1033:1095   */\n      or\n        /* \"#utility.yul\":1030:1118   */\n      iszero\n      tag_63\n      jumpi\n        /* \"#utility.yul\":1098:1116   */\n      tag_64\n      tag_25\n      jump\t// in\n    tag_64:\n        /* \"#utility.yul\":1030:1118   */\n    tag_63:\n        /* \"#utility.yul\":1138:1148   */\n      dup1\n        /* \"#utility.yul\":1134:1136   */\n      0x40\n        /* \"#utility.yul\":1127:1149   */\n      mstore\n        /* \"#utility.yul\":917:1155   */\n      pop\n        /* \"#utility.yul\":874:1155   */\n      pop\n      pop\n      jump\t// out\n        /* \"#utility.yul\":1161:1290   */\n    tag_27:\n        /* \"#utility.yul\":1195:1201   */\n      0x00\n        /* \"#utility.yul\":1222:1242   */\n      tag_66\n      tag_19\n      jump\t// in\n    tag_66:\n        /* \"#utility.yul\":1212:1242   */\n      swap1\n      pop\n        /* \"#utility.yul\":1251:1284   */\n      tag_67\n        /* \"#utility.yul\":1279:1283   */\n      dup3\n        /* \"#utility.yul\":1271:1277   */\n      dup3\n        /* \"#utility.yul\":1251:1284   */\n      tag_26\n      jump\t// in\n    tag_67:\n        /* \"#utility.yul\":1161:1290   */\n      swap2\n      swap1\n      pop\n      jump\t// out\n        /* \"#utility.yul\":1296:1604   */\n    tag_28:\n        /* \"#utility.yul\":1358:1362   */\n      0x00\n        /* \"#utility.yul\":1448:1466   */\n      0xffffffffffffffff\n        /* \"#utility.yul\":1440:1446   */\n      dup3\n        /* \"#utility.yul\":1437:1467   */\n      gt\n        /* \"#utility.yul\":1434:1490   */\n      iszero\n      tag_69\n      jumpi\n        /* \"#utility.yul\":1470:1488   */\n      tag_70\n      tag_25\n      jump\t// in\n    tag_70:\n        /* \"#utility.yul\":1434:1490   */\n    tag_69:\n        /* \"#utility.yul\":1508:1537   */\n      tag_71\n        /* \"#utility.yul\":1530:1536   */\n      dup3\n        /* \"#utility.yul\":1508:1537   */\n      tag_24\n      jump\t// in\n    tag_71:\n        /* \"#utility.yul\":1500:1537   */\n      swap1\n      pop\n        /* \"#utility.yul\":1592:1596   */\n      0x20\n        /* \"#utility.yul\":1586:1590   */\n      dup2\n        /* \"#utility.yul\":1582:1597   */\n      add\n        /* \"#utility.yul\":1574:1597   */\n      swap1\n      pop\n        /* \"#utility.yul\":1296:1604   */\n      swap2\n      swap1\n      pop\n      jump\t// out\n        /* \"#utility.yul\":1610:1756   */\n    tag_29:\n        /* \"#utility.yul\":1707:1713   */\n      dup3\n        /* \"#utility.yul\":1702:1705   */\n      dup2\n        /* \"#utility.yul\":1697:1700   */\n      dup4\n        /* \"#utility.yul\":1684:1714   */\n      calldatacopy\n        /* \"#utility.yul\":1748:1749   */\n      0x00\n        /* \"#utility.yul\":1739:1745   */\n      dup4\n        /* \"#utility.yul\":1734:1737   */\n      dup4\n        /* \"#utility.yul\":1730:1746   */\n      add\n        /* \"#utility.yul\":1723:1750   */\n      mstore\n        /* \"#utility.yul\":1610:1756   */\n      pop\n      pop\n      pop\n      jump\t// out\n        /* \"#utility.yul\":1762:2187   */\n    tag_30:\n        /* \"#utility.yul\":1840:1845   */\n      0x00\n        /* \"#utility.yul\":1865:1931   */\n      tag_74\n        /* \"#utility.yul\":1881:1930   */\n      tag_75\n        /* \"#utility.yul\":1923:1929   */\n      dup5\n        /* \"#utility.yul\":1881:1930   */\n      tag_28\n      jump\t// in\n    tag_75:\n        /* \"#utility.yul\":1865:1931   */\n      tag_27\n      jump\t// in\n    tag_74:\n        /* \"#utility.yul\":1856:1931   */\n      swap1\n      pop\n        /* \"#utility.yul\":1954:1960   */\n      dup3\n        /* \"#utility.yul\":1947:1952   */\n      dup2\n        /* \"#utility.yul\":1940:1961   */\n      mstore\n        /* \"#utility.yul\":1992:1996   */\n      0x20\n        /* \"#utility.yul\":1985:1990   */\n      dup2\n        /* \"#utility.yul\":1981:1997   */\n      add\n        /* \"#utility.yul\":2030:2033   */\n      dup5\n        /* \"#utility.yul\":2021:2027   */\n      dup5\n        /* \"#utility.yul\":2016:2019   */\n      dup5\n        /* \"#utility.yul\":2012:2028   */\n      add\n        /* \"#utility.yul\":2009:2034   */\n      gt\n        /* \"#utility.yul\":2006:2118   */\n      iszero\n      tag_76\n      jumpi\n        /* \"#utility.yul\":2037:2116   */\n      tag_77\n      tag_23\n      jump\t// in\n    tag_77:\n        /* \"#utility.yul\":2006:2118   */\n    tag_76:\n        /* \"#utility.yul\":2127:2181   */\n      tag_78\n        /* \"#utility.yul\":2174:2180   */\n      dup5\n        /* \"#utility.yul\":2169:2172   */\n      dup3\n        /* \"#utility.yul\":2164:2167   */\n      dup6\n        /* \"#utility.yul\":2127:2181   */\n      tag_29\n      jump\t// in\n    tag_78:\n        /* \"#utility.yul\":1846:2187   */\n      pop\n        /* \"#utility.yul\":1762:2187   */\n      swap4\n      swap3\n      pop\n      pop\n      pop\n      jump\t// out\n        /* \"#utility.yul\":2207:2547   */\n    tag_31:\n        /* \"#utility.yul\":2263:2268   */\n      0x00\n        /* \"#utility.yul\":2312:2315   */\n      dup3\n        /* \"#utility.yul\":2305:2309   */\n      0x1f\n        /* \"#utility.yul\":2297:2303   */\n      dup4\n        /* \"#utility.yul\":2293:2310   */\n      add\n        /* \"#utility.yul\":2289:2316   */\n      slt\n        /* \"#utility.yul\":2279:2401   */\n      tag_80\n      jumpi\n        /* \"#utility.yul\":2320:2399   */\n      tag_81\n      tag_22\n      jump\t// in\n    tag_81:\n        /* \"#utility.yul\":2279:2401   */\n    tag_80:\n        /* \"#utility.yul\":2437:2443   */\n      dup2\n        /* \"#utility.yul\":2424:2444   */\n      calldataload\n        /* \"#utility.yul\":2462:2541   */\n      tag_82\n        /* \"#utility.yul\":2537:2540   */\n      dup5\n        /* \"#utility.yul\":2529:2535   */\n      dup3\n        /* \"#utility.yul\":2522:2526   */\n      0x20\n        /* \"#utility.yul\":2514:2520   */\n      dup7\n        /* \"#utility.yul\":2510:2527   */\n      add\n        /* \"#utility.yul\":2462:2541   */\n      tag_30\n      jump\t// in\n    tag_82:\n        /* \"#utility.yul\":2453:2541   */\n      swap2\n      pop\n        /* \"#utility.yul\":2269:2547   */\n      pop\n        /* \"#utility.yul\":2207:2547   */\n      swap3\n      swap2\n      pop\n      pop\n      jump\t// out\n        /* \"#utility.yul\":2553:3062   */\n    tag_6:\n        /* \"#utility.yul\":2622:2628   */\n      0x00\n        /* \"#utility.yul\":2671:2673   */\n      0x20\n        /* \"#utility.yul\":2659:2668   */\n      dup3\n        /* \"#utility.yul\":2650:2657   */\n      dup5\n        /* \"#utility.yul\":2646:2669   */\n      sub\n        /* \"#utility.yul\":2642:2674   */\n      slt\n        /* \"#utility.yul\":2639:2758   */\n      iszero\n      tag_84\n      jumpi\n        /* \"#utility.yul\":2677:2756   */\n      tag_85\n      tag_20\n      jump\t// in\n    tag_85:\n        /* \"#utility.yul\":2639:2758   */\n    tag_84:\n        /* \"#utility.yul\":2825:2826   */\n      0x00\n        /* \"#utility.yul\":2814:2823   */\n      dup3\n        /* \"#utility.yul\":2810:2827   */\n      add\n        /* \"#utility.yul\":2797:2828   */\n      calldataload\n        /* \"#utility.yul\":2855:2873   */\n      0xffffffffffffffff\n        /* \"#utility.yul\":2847:2853   */\n      dup2\n        /* \"#utility.yul\":2844:2874   */\n      gt\n        /* \"#utility.yul\":2841:2958   */\n      iszero\n      tag_86\n      jumpi\n        /* \"#utility.yul\":2877:2956   */\n      tag_87\n      tag_21\n      jump\t// in\n    tag_87:\n        /* \"#utility.yul\":2841:2958   */\n    tag_86:\n        /* \"#utility.yul\":2982:3045   */\n      tag_88\n        /* \"#utility.yul\":3037:3044   */\n      dup5\n        /* \"#utility.yul\":3028:3034   */\n      dup3\n        /* \"#utility.yul\":3017:3026   */\n      dup6\n        /* \"#utility.yul\":3013:3035   */\n      add\n        /* \"#utility.yul\":2982:3045   */\n      tag_31\n      jump\t// in\n    tag_88:\n        /* \"#utility.yul\":2972:3045   */\n      swap2\n      pop\n        /* \"#utility.yul\":2768:3055   */\n      pop\n        /* \"#utility.yul\":2553:3062   */\n      swap3\n      swap2\n      pop\n      pop\n      jump\t// out\n        /* \"#utility.yul\":3068:3167   */\n    tag_32:\n        /* \"#utility.yul\":3120:3126   */\n      0x00\n        /* \"#utility.yul\":3154:3159   */\n      dup2\n        /* \"#utility.yul\":3148:3160   */\n      mload\n        /* \"#utility.yul\":3138:3160   */\n      swap1\n      pop\n        /* \"#utility.yul\":3068:3167   */\n      swap2\n      swap1\n      pop\n      jump\t// out\n        /* \"#utility.yul\":3173:3342   */\n    tag_33:\n        /* \"#utility.yul\":3257:3268   */\n      0x00\n        /* \"#utility.yul\":3291:3297   */\n      dup3\n        /* \"#utility.yul\":3286:3289   */\n      dup3\n        /* \"#utility.yul\":3279:3298   */\n      mstore\n        /* \"#utility.yul\":3331:3335   */\n      0x20\n        /* \"#utility.yul\":3326:3329   */\n      dup3\n        /* \"#utility.yul\":3322:3336   */\n      add\n        /* \"#utility.yul\":3307:3336   */\n      swap1\n      pop\n        /* \"#utility.yul\":3173:3342   */\n      swap3\n      swap2\n      pop\n      pop\n      jump\t// out\n        /* \"#utility.yul\":3348:3594   */\n    tag_34:\n        /* \"#utility.yul\":3429:3430   */\n      0x00\n        /* \"#utility.yul\":3439:3552   */\n    tag_92:\n        /* \"#utility.yul\":3453:3459   */\n      dup4\n        /* \"#utility.yul\":3450:3451   */\n      dup2\n        /* \"#utility.yul\":3447:3460   */\n      lt\n        /* \"#utility.yul\":3439:3552   */\n      iszero\n      tag_94\n      jumpi\n        /* \"#utility.yul\":3538:3539   */\n      dup1\n        /* \"#utility.yul\":3533:3536   */\n      dup3\n        /* \"#utility.yul\":3529:3540   */\n      add\n        /* \"#utility.yul\":3523:3541   */\n      mload\n        /* \"#utility.yul\":3519:3520   */\n      dup2\n        /* \"#utility.yul\":3514:3517   */\n      dup5\n        /* \"#utility.yul\":3510:3521   */\n      add\n        /* \"#utility.yul\":3503:3542   */\n      mstore\n        /* \"#utility.yul\":3475:3477   */\n      0x20\n        /* \"#utility.yul\":3472:3473   */\n      dup2\n        /* \"#utility.yul\":3468:3478   */\n      add\n        /* \"#utility.yul\":3463:3478   */\n      swap1\n      pop\n        /* \"#utility.yul\":3439:3552   */\n      jump(tag_92)\n    tag_94:\n        /* \"#utility.yul\":3586:3587   */\n      0x00\n        /* \"#utility.yul\":3577:3583   */\n      dup5\n        /* \"#utility.yul\":3572:3575   */\n      dup5\n        /* \"#utility.yul\":3568:3584   */\n      add\n        /* \"#utility.yul\":3561:3588   */\n      mstore\n        /* \"#utility.yul\":3410:3594   */\n      pop\n        /* \"#utility.yul\":3348:3594   */\n      pop\n      pop\n      pop\n      jump\t// out\n        /* \"#utility.yul\":3600:3977   */\n    tag_35:\n        /* \"#utility.yul\":3688:3691   */\n      0x00\n        /* \"#utility.yul\":3716:3755   */\n      tag_96\n        /* \"#utility.yul\":3749:3754   */\n      dup3\n        /* \"#utility.yul\":3716:3755   */\n      tag_32\n      jump\t// in\n    tag_96:\n        /* \"#utility.yul\":3771:3842   */\n      tag_97\n        /* \"#utility.yul\":3835:3841   */\n      dup2\n        /* \"#utility.yul\":3830:3833   */\n      dup6\n        /* \"#utility.yul\":3771:3842   */\n      tag_33\n      jump\t// in\n    tag_97:\n        /* \"#utility.yul\":3764:3842   */\n      swap4\n      pop\n        /* \"#utility.yul\":3851:3916   */\n      tag_98\n        /* \"#utility.yul\":3909:3915   */\n      dup2\n        /* \"#utility.yul\":3904:3907   */\n      dup6\n        /* \"#utility.yul\":3897:3901   */\n      0x20\n        /* \"#utility.yul\":3890:3895   */\n      dup7\n        /* \"#utility.yul\":3886:3902   */\n      add\n        /* \"#utility.yul\":3851:3916   */\n      tag_34\n      jump\t// in\n    tag_98:\n        /* \"#utility.yul\":3941:3970   */\n      tag_99\n        /* \"#utility.yul\":3963:3969   */\n      dup2\n        /* \"#utility.yul\":3941:3970   */\n      tag_24\n      jump\t// in\n    tag_99:\n        /* \"#utility.yul\":3936:3939   */\n      dup5\n        /* \"#utility.yul\":3932:3971   */\n      add\n        /* \"#utility.yul\":3925:3971   */\n      swap2\n      pop\n        /* \"#utility.yul\":3692:3977   */\n      pop\n        /* \"#utility.yul\":3600:3977   */\n      swap3\n      swap2\n      pop\n      pop\n      jump\t// out\n        /* \"#utility.yul\":3983:4296   */\n    tag_9:\n        /* \"#utility.yul\":4096:4100   */\n      0x00\n        /* \"#utility.yul\":4134:4136   */\n      0x20\n        /* \"#utility.yul\":4123:4132   */\n      dup3\n        /* \"#utility.yul\":4119:4137   */\n      add\n        /* \"#utility.yul\":4111:4137   */\n      swap1\n      pop\n        /* \"#utility.yul\":4183:4192   */\n      dup2\n        /* \"#utility.yul\":4177:4181   */\n      dup2\n        /* \"#utility.yul\":4173:4193   */\n      sub\n        /* \"#utility.yul\":4169:4170   */\n      0x00\n        /* \"#utility.yul\":4158:4167   */\n      dup4\n        /* \"#utility.yul\":4154:4171   */\n      add\n        /* \"#utility.yul\":4147:4194   */\n      mstore\n        /* \"#utility.yul\":4211:4289   */\n      tag_101\n        /* \"#utility.yul\":4284:4288   */\n      dup2\n        /* \"#utility.yul\":4275:4281   */\n      dup5\n        /* \"#utility.yul\":4211:4289   */\n      tag_35\n      jump\t// in\n    tag_101:\n        /* \"#utility.yul\":4203:4289   */\n      swap1\n      pop\n        /* \"#utility.yul\":3983:4296   */\n      swap3\n      swap2\n      pop\n      pop\n      jump\t// out\n        /* \"#utility.yul\":4302:4482   */\n    tag_36:\n        /* \"#utility.yul\":4350:4427   */\n      0x4e487b7100000000000000000000000000000000000000000000000000000000\n        /* \"#utility.yul\":4347:4348   */\n      0x00\n        /* \"#utility.yul\":4340:4428   */\n      mstore\n        /* \"#utility.yul\":4447:4451   */\n      0x22\n        /* \"#utility.yul\":4444:4445   */\n      0x04\n        /* \"#utility.yul\":4437:4452   */\n      mstore\n        /* \"#utility.yul\":4471:4475   */\n      0x24\n        /* \"#utility.yul\":4468:4469   */\n      0x00\n        /* \"#utility.yul\":4461:4476   */\n      revert\n        /* \"#utility.yul\":4488:4808   */\n    tag_14:\n        /* \"#utility.yul\":4532:4538   */\n      0x00\n        /* \"#utility.yul\":4569:4570   */\n      0x02\n        /* \"#utility.yul\":4563:4567   */\n      dup3\n        /* \"#utility.yul\":4559:4571   */\n      div\n        /* \"#utility.yul\":4549:4571   */\n      swap1\n      pop\n        /* \"#utility.yul\":4616:4617   */\n      0x01\n        /* \"#utility.yul\":4610:4614   */\n      dup3\n        /* \"#utility.yul\":4606:4618   */\n      and\n        /* \"#utility.yul\":4637:4655   */\n      dup1\n        /* \"#utility.yul\":4627:4708   */\n      tag_104\n      jumpi\n        /* \"#utility.yul\":4693:4697   */\n      0x7f\n        /* \"#utility.yul\":4685:4691   */\n      dup3\n        /* \"#utility.yul\":4681:4698   */\n      and\n        /* \"#utility.yul\":4671:4698   */\n      swap2\n      pop\n        /* \"#utility.yul\":4627:4708   */\n    tag_104:\n        /* \"#utility.yul\":4755:4757   */\n      0x20\n        /* \"#utility.yul\":4747:4753   */\n      dup3\n        /* \"#utility.yul\":4744:4758   */\n      lt\n        /* \"#utility.yul\":4724:4742   */\n      dup2\n        /* \"#utility.yul\":4721:4759   */\n      sub\n        /* \"#utility.yul\":4718:4802   */\n      tag_105\n      jumpi\n        /* \"#utility.yul\":4774:4792   */\n      tag_106\n      tag_36\n      jump\t// in\n    tag_106:\n        /* \"#utility.yul\":4718:4802   */\n    tag_105:\n        /* \"#utility.yul\":4539:4808   */\n      pop\n        /* \"#utility.yul\":4488:4808   */\n      swap2\n      swap1\n      pop\n      jump\t// out\n        /* \"#utility.yul\":4814:4955   */\n    tag_37:\n        /* \"#utility.yul\":4863:4867   */\n      0x00\n        /* \"#utility.yul\":4886:4889   */\n      dup2\n        /* \"#utility.yul\":4878:4889   */\n      swap1\n      pop\n        /* \"#utility.yul\":4909:4912   */\n      dup2\n        /* \"#utility.yul\":4906:4907   */\n      0x00\n        /* \"#utility.yul\":4899:4913   */\n      mstore\n        /* \"#utility.yul\":4943:4947   */\n      0x20\n        /* \"#utility.yul\":4940:4941   */\n      0x00\n        /* \"#utility.yul\":4930:4948   */\n      keccak256\n        /* \"#utility.yul\":4922:4948   */\n      swap1\n      pop\n        /* \"#utility.yul\":4814:4955   */\n      swap2\n      swap1\n      pop\n      jump\t// out\n        /* \"#utility.yul\":4961:5054   */\n    tag_38:\n        /* \"#utility.yul\":4998:5004   */\n      0x00\n        /* \"#utility.yul\":5045:5047   */\n      0x20\n        /* \"#utility.yul\":5040:5042   */\n      0x1f\n        /* \"#utility.yul\":5033:5038   */\n      dup4\n        /* \"#utility.yul\":5029:5043   */\n      add\n        /* \"#utility.yul\":5025:5048   */\n      div\n        /* \"#utility.yul\":5015:5048   */\n      swap1\n      pop\n        /* \"#utility.yul\":4961:5054   */\n      swap2\n      swap1\n      pop\n      jump\t// out\n        /* \"#utility.yul\":5060:5167   */\n    tag_39:\n        /* \"#utility.yul\":5104:5112   */\n      0x00\n        /* \"#utility.yul\":5154:5159   */\n      dup3\n        /* \"#utility.yul\":5148:5152   */\n      dup3\n        /* \"#utility.yul\":5144:5160   */\n      shl\n        /* \"#utility.yul\":5123:5160   */\n      swap1\n      pop\n        /* \"#utility.yul\":5060:5167   */\n      swap3\n      swap2\n      pop\n      pop\n      jump\t// out\n        /* \"#utility.yul\":5173:5566   */\n    tag_40:\n        /* \"#utility.yul\":5242:5248   */\n      0x00\n        /* \"#utility.yul\":5292:5293   */\n      0x08\n        /* \"#utility.yul\":5280:5290   */\n      dup4\n        /* \"#utility.yul\":5276:5294   */\n      mul\n        /* \"#utility.yul\":5315:5412   */\n      tag_111\n        /* \"#utility.yul\":5345:5411   */\n      0xffffffffffffffffffffffffffffffffffffffffffffffffffffffffffffffff\n        /* \"#utility.yul\":5334:5343   */\n      dup3\n        /* \"#utility.yul\":5315:5412   */\n      tag_39\n      jump\t// in\n    tag_111:\n        /* \"#utility.yul\":5433:5472   */\n      tag_112\n        /* \"#utility.yul\":5463:5471   */\n      dup7\n        /* \"#utility.yul\":5452:5461   */\n      dup4\n        /* \"#utility.yul\":5433:5472   */\n      tag_39\n      jump\t// in\n    tag_112:\n        /* \"#utility.yul\":5421:5472   */\n      swap6\n      pop\n        /* \"#utility.yul\":5505:5509   */\n      dup1\n        /* \"#utility.yul\":5501:5510   */\n      not\n        /* \"#utility.yul\":5494:5499   */\n      dup5\n        /* \"#utility.yul\":5490:5511   */\n      and\n        /* \"#utility.yul\":5481:5511   */\n      swap4\n      pop\n        /* \"#utility.yul\":5554:5558   */\n      dup1\n        /* \"#utility.yul\":5544:5552   */\n      dup7\n        /* \"#utility.yul\":5540:5559   */\n      and\n        /* \"#utility.yul\":5533:5538   */\n      dup5\n        /* \"#utility.yul\":5530:5560   */\n      or\n        /* \"#utility.yul\":5520:5560   */\n      swap3\n      pop\n        /* \"#utility.yul\":5249:5566   */\n      pop\n      pop\n        /* \"#utility.yul\":5173:5566   */\n      swap4\n      swap3\n      pop\n      pop\n      pop\n      jump\t// out\n        /* \"#utility.yul\":5572:5649   */\n    tag_41:\n        /* \"#utility.yul\":5609:5616   */\n      0x00\n        /* \"#utility.yul\":5638:5643   */\n      dup2\n        /* \"#utility.yul\":5627:5643   */\n      swap1\n      pop\n        /* \"#utility.yul\":5572:5649   */\n      swap2\n      swap1\n      pop\n      jump\t// out\n        /* \"#utility.yul\":5655:5715   */\n    tag_42:\n        /* \"#utility.yul\":5683:5686   */\n      0x00\n        /* \"#utility.yul\":5704:5709   */\n      dup2\n        /* \"#utility.yul\":5697:5709   */\n      swap1\n      pop\n        /* \"#utility.yul\":5655:5715   */\n      swap2\n      swap1\n      pop\n      jump\t// out\n        /* \"#utility.yul\":5721:5863   */\n    tag_43:\n        /* \"#utility.yul\":5771:5780   */\n      0x00\n        /* \"#utility.yul\":5804:5857   */\n      tag_116\n        /* \"#utility.yul\":5822:5856   */\n      tag_117\n        /* \"#utility.yul\":5831:5855   */\n      tag_118\n        /* \"#utility.yul\":5849:5854   */\n      dup5\n        /* \"#utility.yul\":5831:5855   */\n      tag_41\n      jump\t// in\n    tag_118:\n        /* \"#utility.yul\":5822:5856   */\n      tag_42\n      jump\t// in\n    tag_117:\n        /* \"#utility.yul\":5804:5857   */\n      tag_41\n      jump\t// in\n    tag_116:\n        /* \"#utility.yul\":5791:5857   */\n      swap1\n      pop\n        /* \"#utility.yul\":5721:5863   */\n      swap2\n      swap1\n      pop\n      jump\t// out\n        /* \"#utility.yul\":5869:5944   */\n    tag_44:\n        /* \"#utility.yul\":5912:5915   */\n      0x00\n        /* \"#utility.yul\":5933:5938   */\n      dup2\n        /* \"#utility.yul\":5926:5938   */\n      swap1\n      pop\n        /* \"#utility.yul\":5869:5944   */\n      swap2\n      swap1\n      pop\n      jump\t// out\n        /* \"#utility.yul\":5950:6219   */\n    tag_45:\n        /* \"#utility.yul\":6060:6099   */\n      tag_121\n        /* \"#utility.yul\":6091:6098   */\n      dup4\n        /* \"#utility.yul\":6060:6099   */\n      tag_43\n      jump\t// in\n    tag_121:\n        /* \"#utility.yul\":6121:6212   */\n      tag_122\n        /* \"#utility.yul\":6170:6211   */\n      tag_123\n        /* \"#utility.yul\":6194:6210   */\n      dup3\n        /* \"#utility.yul\":6170:6211   */\n      tag_44\n      jump\t// in\n    tag_123:\n        /* \"#utility.yul\":6162:6168   */\n      dup5\n        /* \"#utility.yul\":6155:6159   */\n      dup5\n        /* \"#utility.yul\":6149:6160   */\n      sload\n        /* \"#utility.yul\":6121:6212   */\n      tag_40\n      jump\t// in\n    tag_122:\n        /* \"#utility.yul\":6115:6119   */\n      dup3\n        /* \"#utility.yul\":6108:6213   */\n      sstore\n        /* \"#utility.yul\":6026:6219   */\n      pop\n        /* \"#utility.yul\":5950:6219   */\n      pop\n      pop\n      pop\n      jump\t// out\n        /* \"#utility.yul\":6225:6298   */\n    tag_46:\n        /* \"#utility.yul\":6270:6273   */\n      0x00\n        /* \"#utility.yul\":6225:6298   */\n      swap1\n      jump\t// out\n        /* \"#utility.yul\":6304:6493   */\n    tag_47:\n        /* \"#utility.yul\":6381:6413   */\n      tag_126\n      tag_46\n      jump\t// in\n    tag_126:\n        /* \"#utility.yul\":6422:6487   */\n      tag_127\n        /* \"#utility.yul\":6480:6486   */\n      dup2\n        /* \"#utility.yul\":6472:6478   */\n      dup5\n        /* \"#utility.yul\":6466:6470   */\n      dup5\n        /* \"#utility.yul\":6422:6487   */\n      tag_45\n      jump\t// in\n    tag_127:\n        /* \"#utility.yul\":6357:6493   */\n      pop\n        /* \"#utility.yul\":6304:6493   */\n      pop\n      pop\n      jump\t// out\n        /* \"#utility.yul\":6499:6685   */\n    tag_48:\n        /* \"#utility.yul\":6559:6679   */\n    tag_129:\n        /* \"#utility.yul\":6576:6579   */\n      dup2\n        /* \"#utility.yul\":6569:6574   */\n      dup2\n        /* \"#utility.yul\":6566:6580   */\n      lt\n        /* \"#utility.yul\":6559:6679   */\n      iszero\n      tag_131\n      jumpi\n        /* \"#utility.yul\":6630:6669   */\n      tag_132\n        /* \"#utility.yul\":6667:6668   */\n      0x00\n        /* \"#utility.yul\":6660:6665   */\n      dup3\n        /* \"#utility.yul\":6630:6669   */\n      tag_47\n      jump\t// in\n    tag_132:\n        /* \"#utility.yul\":6603:6604   */\n      0x01\n        /* \"#utility.yul\":6596:6601   */\n      dup2\n        /* \"#utility.yul\":6592:6605   */\n      add\n        /* \"#utility.yul\":6583:6605   */\n      swap1\n      pop\n        /* \"#utility.yul\":6559:6679   */\n      jump(tag_129)\n    tag_131:\n        /* \"#utility.yul\":6499:6685   */\n      pop\n      pop\n      jump\t// out\n        /* \"#utility.yul\":6691:7234   */\n    tag_49:\n        /* \"#utility.yul\":6792:6794   */\n      0x1f\n        /* \"#utility.yul\":6787:6790   */\n      dup3\n        /* \"#utility.yul\":6784:6795   */\n      gt\n        /* \"#utility.yul\":6781:7227   */\n      iszero\n      tag_134\n      jumpi\n        /* \"#utility.yul\":6826:6864   */\n      tag_135\n        /* \"#utility.yul\":6858:6863   */\n      dup2\n        /* \"#utility.yul\":6826:6864   */\n      tag_37\n      jump\t// in\n    tag_135:\n        /* \"#utility.yul\":6910:6939   */\n      tag_136\n        /* \"#utility.yul\":6928:6938   */\n      dup5\n        /* \"#utility.yul\":6910:6939   */\n      tag_38\n      jump\t// in\n    tag_136:\n        /* \"#utility.yul\":6900:6908   */\n      dup2\n        /* \"#utility.yul\":6896:6940   */\n      add\n        /* \"#utility.yul\":7093:7095   */\n      0x20\n        /* \"#utility.yul\":7081:7091   */\n      dup6\n        /* \"#utility.yul\":7078:7096   */\n      lt\n        /* \"#utility.yul\":7075:7124   */\n      iszero\n      tag_137\n      jumpi\n        /* \"#utility.yul\":7114:7122   */\n      dup2\n        /* \"#utility.yul\":7099:7122   */\n      swap1\n      pop\n        /* \"#utility.yul\":7075:7124   */\n    tag_137:\n        /* \"#utility.yul\":7137:7217   */\n      tag_138\n        /* \"#utility.yul\":7193:7215   */\n      tag_139\n        /* \"#utility.yul\":7211:7214   */\n      dup6\n        /* \"#utility.yul\":7193:7215   */\n      tag_38\n      jump\t// in\n    tag_139:\n        /* \"#utility.yul\":7183:7191   */\n      dup4\n        /* \"#utility.yul\":7179:7216   */\n      add\n        /* \"#utility.yul\":7166:7177   */\n      dup3\n        /* \"#utility.yul\":7137:7217   */\n      tag_48\n      jump\t// in\n    tag_138:\n        /* \"#utility.yul\":6796:7227   */\n      pop\n      pop\n        /* \"#utility.yul\":6781:7227   */\n    tag_134:\n        /* \"#utility.yul\":6691:7234   */\n      pop\n      pop\n      pop\n      jump\t// out\n        /* \"#utility.yul\":7240:7357   */\n    tag_50:\n        /* \"#utility.yul\":7294:7302   */\n      0x00\n        /* \"#utility.yul\":7344:7349   */\n      dup3\n        /* \"#utility.yul\":7338:7342   */\n      dup3\n        /* \"#utility.yul\":7334:7350   */\n      shr\n        /* \"#utility.yul\":7313:7350   */\n      swap1\n      pop\n        /* \"#utility.yul\":7240:7357   */\n      swap3\n      swap2\n      pop\n      pop\n      jump\t// out\n        /* \"#utility.yul\":7363:7532   */\n    tag_51:\n        /* \"#utility.yul\":7407:7413   */\n      0x00\n        /* \"#utility.yul\":7440:7491   */\n      tag_142\n        /* \"#utility.yul\":7488:7489   */\n      0x00\n        /* \"#utility.yul\":7484:7490   */\n      not\n        /* \"#utility.yul\":7476:7481   */\n      dup5\n        /* \"#utility.yul\":7473:7474   */\n      0x08\n        /* \"#utility.yul\":7469:7482   */\n      mul\n        /* \"#utility.yul\":7440:7491   */\n      tag_50\n      jump\t// in\n    tag_142:\n        /* \"#utility.yul\":7436:7492   */\n      not\n        /* \"#utility.yul\":7521:7525   */\n      dup1\n        /* \"#utility.yul\":7515:7519   */\n      dup4\n        /* \"#utility.yul\":7511:7526   */\n      and\n        /* \"#utility.yul\":7501:7526   */\n      swap2\n      pop\n        /* \"#utility.yul\":7414:7532   */\n      pop\n        /* \"#utility.yul\":7363:7532   */\n      swap3\n      swap2\n      pop\n      pop\n      jump\t// out\n        /* \"#utility.yul\":7537:7832   */\n    tag_52:\n        /* \"#utility.yul\":7613:7617   */\n      0x00\n        /* \"#utility.yul\":7759:7788   */\n      tag_144\n        /* \"#utility.yul\":7784:7787   */\n      dup4\n        /* \"#utility.yul\":7778:7782   */\n      dup4\n        /* \"#utility.yul\":7759:7788   */\n      tag_51\n      jump\t// in\n    tag_144:\n        /* \"#utility.yul\":7751:7788   */\n      swap2\n      pop\n        /* \"#utility.yul\":7821:7824   */\n      dup3\n        /* \"#utility.yul\":7818:7819   */\n      0x02\n        /* \"#utility.yul\":7814:7825   */\n      mul\n        /* \"#utility.yul\":7808:7812   */\n      dup3\n        /* \"#utility.yul\":7805:7826   */\n      or\n        /* \"#utility.yul\":7797:7826   */\n      swap1\n      pop\n        /* \"#utility.yul\":7537:7832   */\n      swap3\n      swap2\n      pop\n      pop\n      jump\t// out\n        /* \"#utility.yul\":7837:9232   */\n    tag_12:\n        /* \"#utility.yul\":7954:7991   */\n      tag_146\n        /* \"#utility.yul\":7987:7990   */\n      dup3\n        /* \"#utility.yul\":7954:7991   */\n      tag_32\n      jump\t// in\n    tag_146:\n        /* \"#utility.yul\":8056:8074   */\n      0xffffffffffffffff\n        /* \"#utility.yul\":8048:8054   */\n      dup2\n        /* \"#utility.yul\":8045:8075   */\n      gt\n        /* \"#utility.yul\":8042:8098   */\n      iszero\n      tag_147\n      jumpi\n        /* \"#utility.yul\":8078:8096   */\n      tag_148\n      tag_25\n      jump\t// in\n    tag_148:\n        /* \"#utility.yul\":8042:8098   */\n    tag_147:\n        /* \"#utility.yul\":8122:8160   */\n      tag_149\n        /* \"#utility.yul\":8154:8158   */\n      dup3\n        /* \"#utility.yul\":8148:8159   */\n      sload\n        /* \"#utility.yul\":8122:8160   */\n      tag_14\n      jump\t// in\n    tag_149:\n        /* \"#utility.yul\":8207:8274   */\n      tag_150\n        /* \"#utility.yul\":8267:8273   */\n      dup3\n        /* \"#utility.yul\":8259:8265   */\n      dup3\n        /* \"#utility.yul\":8253:8257   */\n      dup6\n        /* \"#utility.yul\":8207:8274   */\n      tag_49\n      jump\t// in\n    tag_150:\n        /* \"#utility.yul\":8301:8302   */\n      0x00\n        /* \"#utility.yul\":8325:8329   */\n      0x20\n        /* \"#utility.yul\":8312:8329   */\n      swap1\n      pop\n        /* \"#utility.yul\":8357:8359   */\n      0x1f\n        /* \"#utility.yul\":8349:8355   */\n      dup4\n        /* \"#utility.yul\":8346:8360   */\n      gt\n        /* \"#utility.yul\":8374:8375   */\n      0x01\n        /* \"#utility.yul\":8369:8987   */\n      dup2\n      eq\n      tag_152\n      jumpi\n        /* \"#utility.yul\":9031:9032   */\n      0x00\n        /* \"#utility.yul\":9048:9054   */\n      dup5\n        /* \"#utility.yul\":9045:9122   */\n      iszero\n      tag_153\n      jumpi\n        /* \"#utility.yul\":9097:9106   */\n      dup3\n        /* \"#utility.yul\":9092:9095   */\n      dup8\n        /* \"#utility.yul\":9088:9107   */\n      add\n        /* \"#utility.yul\":9082:9108   */\n      mload\n        /* \"#utility.yul\":9073:9108   */\n      swap1\n      pop\n        /* \"#utility.yul\":9045:9122   */\n    tag_153:\n        /* \"#utility.yul\":9148:9215   */\n      tag_154\n        /* \"#utility.yul\":9208:9214   */\n      dup6\n        /* \"#utility.yul\":9201:9206   */\n      dup3\n        /* \"#utility.yul\":9148:9215   */\n      tag_52\n      jump\t// in\n    tag_154:\n        /* \"#utility.yul\":9142:9146   */\n      dup7\n        /* \"#utility.yul\":9135:9216   */\n      sstore\n        /* \"#utility.yul\":9004:9226   */\n      pop\n        /* \"#utility.yul\":8339:9226   */\n      jump(tag_151)\n        /* \"#utility.yul\":8369:8987   */\n    tag_152:\n        /* \"#utility.yul\":8421:8425   */\n      0x1f\n        /* \"#utility.yul\":8417:8426   */\n      not\n        /* \"#utility.yul\":8409:8415   */\n      dup5\n        /* \"#utility.yul\":8405:8427   */\n      and\n        /* \"#utility.yul\":8455:8492   */\n      tag_155\n        /* \"#utility.yul\":8487:8491   */\n      dup7\n        /* \"#utility.yul\":8455:8492   */\n      tag_37\n      jump\t// in\n    tag_155:\n        /* \"#utility.yul\":8514:8515   */\n      0x00\n        /* \"#utility.yul\":8528:8736   */\n    tag_156:\n        /* \"#utility.yul\":8542:8549   */\n      dup3\n        /* \"#utility.yul\":8539:8540   */\n      dup2\n        /* \"#utility.yul\":8536:8550   */\n      lt\n        /* \"#utility.yul\":8528:8736   */\n      iszero\n      tag_158\n      jumpi\n        /* \"#utility.yul\":8621:8630   */\n      dup5\n        /* \"#utility.yul\":8616:8619   */\n      dup10\n        /* \"#utility.yul\":8612:8631   */\n      add\n        /* \"#utility.yul\":8606:8632   */\n      mload\n        /* \"#utility.yul\":8598:8604   */\n      dup3\n        /* \"#utility.yul\":8591:8633   */\n      sstore\n        /* \"#utility.yul\":8672:8673   */\n      0x01\n        /* \"#utility.yul\":8664:8670   */\n      dup3\n        /* \"#utility.yul\":8660:8674   */\n      add\n        /* \"#utility.yul\":8650:8674   */\n      swap2\n      pop\n        /* \"#utility.yul\":8719:8721   */\n      0x20\n        /* \"#utility.yul\":8708:8717   */\n      dup6\n        /* \"#utility.yul\":8704:8722   */\n      add\n        /* \"#utility.yul\":8691:8722   */\n      swap5\n      pop\n        /* \"#utility.yul\":8565:8569   */\n      0x20\n        /* \"#utility.yul\":8562:8563   */\n      dup2\n        /* \"#utility.yul\":8558:8570   */\n      add\n        /* \"#utility.yul\":8553:8570   */\n      swap1\n      pop\n        /* \"#utility.yul\":8528:8736   */\n      jump(tag_156)\n    tag_158:\n        /* \"#utility.yul\":8764:8770   */\n      dup7\n        /* \"#utility.yul\":8755:8762   */\n      dup4\n        /* \"#utility.yul\":8752:8771   */\n      lt\n        /* \"#utility.yul\":8749:8928   */\n      iszero\n      tag_159\n      jumpi\n        /* \"#utility.yul\":8822:8831   */\n      dup5\n        /* \"#utility.yul\":8817:8820   */\n      dup10\n        /* \"#utility.yul\":8813:8832   */\n      add\n        /* \"#utility.yul\":8807:8833   */\n      mload\n        /* \"#utility.yul\":8865:8913   */\n      tag_160\n        /* \"#utility.yul\":8907:8911   */\n      0x1f\n        /* \"#utility.yul\":8899:8905   */\n      dup10\n        /* \"#utility.yul\":8895:8912   */\n      and\n        /* \"#utility.yul\":8884:8893   */\n      dup3\n        /* \"#utility.yul\":8865:8913   */\n      tag_51\n      jump\t// in\n    tag_160:\n        /* \"#utility.yul\":8857:8863   */\n      dup4\n        /* \"#utility.yul\":8850:8914   */\n      sstore\n        /* \"#utility.yul\":8772:8928   */\n      pop\n        /* \"#utility.yul\":8749:8928   */\n    tag_159:\n        /* \"#utility.yul\":8974:8975   */\n      0x01\n        /* \"#utility.yul\":8970:8971   */\n      0x02\n        /* \"#utility.yul\":8962:8968   */\n      dup9\n        /* \"#utility.yul\":8958:8972   */\n      mul\n        /* \"#utility.yul\":8954:8976   */\n      add\n        /* \"#utility.yul\":8948:8952   */\n      dup9\n        /* \"#utility.yul\":8941:8977   */\n      sstore\n        /* \"#utility.yul\":8376:8987   */\n      pop\n      pop\n      pop\n        /* \"#utility.yul\":8339:9226   */\n    tag_151:\n      pop\n        /* \"#utility.yul\":7929:9232   */\n      pop\n      pop\n      pop\n        /* \"#utility.yul\":7837:9232   */\n      pop\n      pop\n      jump\t// out\n\n    auxdata: 0xa2646970667358221220d14686cec21f3fd3ca78f531360d931052649c879f50947fe9b5a6cd933ef50564736f6c63430008160033\n}\n",
				"bytecode": {
					"linkReferences": {},
					"object": "608060405234801561000f575f80fd5b506106338061001d5f395ff3fe608060405234801561000f575f80fd5b5060043610610029575f3560e01c806385f4c2441461002d575b5f80fd5b6100476004803603810190610042919061024a565b61005d565b604051610054919061030b565b60405180910390f35b6060815f908161006d919061052e565b505f805461007a90610358565b80601f01602080910402602001604051908101604052809291908181526020018280546100a690610358565b80156100f15780601f106100c8576101008083540402835291602001916100f1565b820191905f5260205f20905b8154815290600101906020018083116100d457829003601f168201915b50505050509050919050565b5f604051905090565b5f80fd5b5f80fd5b5f80fd5b5f80fd5b5f601f19601f8301169050919050565b7f4e487b71000000000000000000000000000000000000000000000000000000005f52604160045260245ffd5b61015c82610116565b810181811067ffffffffffffffff8211171561017b5761017a610126565b5b80604052505050565b5f61018d6100fd565b90506101998282610153565b919050565b5f67ffffffffffffffff8211156101b8576101b7610126565b5b6101c182610116565b9050602081019050919050565b828183375f83830152505050565b5f6101ee6101e98461019e565b610184565b90508281526020810184848401111561020a57610209610112565b5b6102158482856101ce565b509392505050565b5f82601f8301126102315761023061010e565b5b81356102418482602086016101dc565b91505092915050565b5f6020828403121561025f5761025e610106565b5b5f82013567ffffffffffffffff81111561027c5761027b61010a565b5b6102888482850161021d565b91505092915050565b5f81519050919050565b5f82825260208201905092915050565b5f5b838110156102c85780820151818401526020810190506102ad565b5f8484015250505050565b5f6102dd82610291565b6102e7818561029b565b93506102f78185602086016102ab565b61030081610116565b840191505092915050565b5f6020820190508181035f83015261032381846102d3565b905092915050565b7f4e487b71000000000000000000000000000000000000000000000000000000005f52602260045260245ffd5b5f600282049050600182168061036f57607f821691505b6020821081036103825761038161032b565b5b50919050565b5f819050815f5260205f209050919050565b5f6020601f8301049050919050565b5f82821b905092915050565b5f600883026103e47fffffffffffffffffffffffffffffffffffffffffffffffffffffffffffffffff826103a9565b6103ee86836103a9565b95508019841693508086168417925050509392505050565b5f819050919050565b5f819050919050565b5f61043261042d61042884610406565b61040f565b610406565b9050919050565b5f819050919050565b61044b83610418565b61045f61045782610439565b8484546103b5565b825550505050565b5f90565b610473610467565b61047e818484610442565b505050565b5b818110156104a1576104965f8261046b565b600181019050610484565b5050565b601f8211156104e6576104b781610388565b6104c08461039a565b810160208510156104cf578190505b6104e36104db8561039a565b830182610483565b50505b505050565b5f82821c905092915050565b5f6105065f19846008026104eb565b1980831691505092915050565b5f61051e83836104f7565b9150826002028217905092915050565b61053782610291565b67ffffffffffffffff8111156105505761054f610126565b5b61055a8254610358565b6105658282856104a5565b5f60209050601f831160018114610596575f8415610584578287015190505b61058e8582610513565b8655506105f5565b601f1984166105a486610388565b5f5b828110156105cb578489015182556001820191506020850194506020810190506105a6565b868310156105e857848901516105e4601f8916826104f7565b8355505b6001600288020188555050505b50505050505056fea2646970667358221220d14686cec21f3fd3ca78f531360d931052649c879f50947fe9b5a6cd933ef50564736f6c63430008160033",
					"opcodes": "PUSH1 0x80 PUSH1 0x40 MSTORE CALLVALUE DUP1 ISZERO PUSH2 0xF JUMPI PUSH0 DUP1 REVERT JUMPDEST POP PUSH2 0x633 DUP1 PUSH2 0x1D PUSH0 CODECOPY PUSH0 RETURN INVALID PUSH1 0x80 PUSH1 0x40 MSTORE CALLVALUE DUP1 ISZERO PUSH2 0xF JUMPI PUSH0 DUP1 REVERT JUMPDEST POP PUSH1 0x4 CALLDATASIZE LT PUSH2 0x29 JUMPI PUSH0 CALLDATALOAD PUSH1 0xE0 SHR DUP1 PUSH4 0x85F4C244 EQ PUSH2 0x2D JUMPI JUMPDEST PUSH0 DUP1 REVERT JUMPDEST PUSH2 0x47 PUSH1 0x4 DUP1 CALLDATASIZE SUB DUP2 ADD SWAP1 PUSH2 0x42 SWAP2 SWAP1 PUSH2 0x24A JUMP JUMPDEST PUSH2 0x5D JUMP JUMPDEST PUSH1 0x40 MLOAD PUSH2 0x54 SWAP2 SWAP1 PUSH2 0x30B JUMP JUMPDEST PUSH1 0x40 MLOAD DUP1 SWAP2 SUB SWAP1 RETURN JUMPDEST PUSH1 0x60 DUP2 PUSH0 SWAP1 DUP2 PUSH2 0x6D SWAP2 SWAP1 PUSH2 0x52E JUMP JUMPDEST POP PUSH0 DUP1 SLOAD PUSH2 0x7A SWAP1 PUSH2 0x358 JUMP JUMPDEST DUP1 PUSH1 0x1F ADD PUSH1 0x20 DUP1 SWAP2 DIV MUL PUSH1 0x20 ADD PUSH1 0x40 MLOAD SWAP1 DUP2 ADD PUSH1 0x40 MSTORE DUP1 SWAP3 SWAP2 SWAP1 DUP2 DUP2 MSTORE PUSH1 0x20 ADD DUP3 DUP1 SLOAD PUSH2 0xA6 SWAP1 PUSH2 0x358 JUMP JUMPDEST DUP1 ISZERO PUSH2 0xF1 JUMPI DUP1 PUSH1 0x1F LT PUSH2 0xC8 JUMPI PUSH2 0x100 DUP1 DUP4 SLOAD DIV MUL DUP4 MSTORE SWAP2 PUSH1 0x20 ADD SWAP2 PUSH2 0xF1 JUMP JUMPDEST DUP3 ADD SWAP2 SWAP1 PUSH0 MSTORE PUSH1 0x20 PUSH0 KECCAK256 SWAP1 JUMPDEST DUP2 SLOAD DUP2 MSTORE SWAP1 PUSH1 0x1 ADD SWAP1 PUSH1 0x20 ADD DUP1 DUP4 GT PUSH2 0xD4 JUMPI DUP3 SWAP1 SUB PUSH1 0x1F AND DUP3 ADD SWAP2 JUMPDEST POP POP POP POP POP SWAP1 POP SWAP2 SWAP1 POP JUMP JUMPDEST PUSH0 PUSH1 0x40 MLOAD SWAP1 POP SWAP1 JUMP JUMPDEST PUSH0 DUP1 REVERT JUMPDEST PUSH0 DUP1 REVERT JUMPDEST PUSH0 DUP1 REVERT JUMPDEST PUSH0 DUP1 REVERT JUMPDEST PUSH0 PUSH1 0x1F NOT PUSH1 0x1F DUP4 ADD AND SWAP1 POP SWAP2 SWAP1 POP JUMP JUMPDEST PUSH32 0x4E487B7100000000000000000000000000000000000000000000000000000000 PUSH0 MSTORE PUSH1 0x41 PUSH1 0x4 MSTORE PUSH1 0x24 PUSH0 REVERT JUMPDEST PUSH2 0x15C DUP3 PUSH2 0x116 JUMP JUMPDEST DUP2 ADD DUP2 DUP2 LT PUSH8 0xFFFFFFFFFFFFFFFF DUP3 GT OR ISZERO PUSH2 0x17B JUMPI PUSH2 0x17A PUSH2 0x126 JUMP JUMPDEST JUMPDEST DUP1 PUSH1 0x40 MSTORE POP POP POP JUMP JUMPDEST PUSH0 PUSH2 0x18D PUSH2 0xFD JUMP JUMPDEST SWAP1 POP PUSH2 0x199 DUP3 DUP3 PUSH2 0x153 JUMP JUMPDEST SWAP2 SWAP1 POP JUMP JUMPDEST PUSH0 PUSH8 0xFFFFFFFFFFFFFFFF DUP3 GT ISZERO PUSH2 0x1B8 JUMPI PUSH2 0x1B7 PUSH2 0x126 JUMP JUMPDEST JUMPDEST PUSH2 0x1C1 DUP3 PUSH2 0x116 JUMP JUMPDEST SWAP1 POP PUSH1 0x20 DUP2 ADD SWAP1 POP SWAP2 SWAP1 POP JUMP JUMPDEST DUP3 DUP2 DUP4 CALLDATACOPY PUSH0 DUP4 DUP4 ADD MSTORE POP POP POP JUMP JUMPDEST PUSH0 PUSH2 0x1EE PUSH2 0x1E9 DUP5 PUSH2 0x19E JUMP JUMPDEST PUSH2 0x184 JUMP JUMPDEST SWAP1 POP DUP3 DUP2 MSTORE PUSH1 0x20 DUP2 ADD DUP5 DUP5 DUP5 ADD GT ISZERO PUSH2 0x20A JUMPI PUSH2 0x209 PUSH2 0x112 JUMP JUMPDEST JUMPDEST PUSH2 0x215 DUP5 DUP3 DUP6 PUSH2 0x1CE JUMP JUMPDEST POP SWAP4 SWAP3 POP POP POP JUMP JUMPDEST PUSH0 DUP3 PUSH1 0x1F DUP4 ADD SLT PUSH2 0x231 JUMPI PUSH2 0x230 PUSH2 0x10E JUMP JUMPDEST JUMPDEST DUP2 CALLDATALOAD PUSH2 0x241 DUP5 DUP3 PUSH1 0x20 DUP7 ADD PUSH2 0x1DC JUMP JUMPDEST SWAP2 POP POP SWAP3 SWAP2 POP POP JUMP JUMPDEST PUSH0 PUSH1 0x20 DUP3 DUP5 SUB SLT ISZERO PUSH2 0x25F JUMPI PUSH2 0x25E PUSH2 0x106 JUMP JUMPDEST JUMPDEST PUSH0 DUP3 ADD CALLDATALOAD PUSH8 0xFFFFFFFFFFFFFFFF DUP2 GT ISZERO PUSH2 0x27C JUMPI PUSH2 0x27B PUSH2 0x10A JUMP JUMPDEST JUMPDEST PUSH2 0x288 DUP5 DUP3 DUP6 ADD PUSH2 0x21D JUMP JUMPDEST SWAP2 POP POP SWAP3 SWAP2 POP POP JUMP JUMPDEST PUSH0 DUP2 MLOAD SWAP1 POP SWAP2 SWAP1 POP JUMP JUMPDEST PUSH0 DUP3 DUP3 MSTORE PUSH1 0x20 DUP3 ADD SWAP1 POP SWAP3 SWAP2 POP POP JUMP JUMPDEST PUSH0 JUMPDEST DUP4 DUP2 LT ISZERO PUSH2 0x2C8 JUMPI DUP1 DUP3 ADD MLOAD DUP2 DUP5 ADD MSTORE PUSH1 0x20 DUP2 ADD SWAP1 POP PUSH2 0x2AD JUMP JUMPDEST PUSH0 DUP5 DUP5 ADD MSTORE POP POP POP POP JUMP JUMPDEST PUSH0 PUSH2 0x2DD DUP3 PUSH2 0x291 JUMP JUMPDEST PUSH2 0x2E7 DUP2 DUP6 PUSH2 0x29B JUMP JUMPDEST SWAP4 POP PUSH2 0x2F7 DUP2 DUP6 PUSH1 0x20 DUP7 ADD PUSH2 0x2AB JUMP JUMPDEST PUSH2 0x300 DUP2 PUSH2 0x116 JUMP JUMPDEST DUP5 ADD SWAP2 POP POP SWAP3 SWAP2 POP POP JUMP JUMPDEST PUSH0 PUSH1 0x20 DUP3 ADD SWAP1 POP DUP2 DUP2 SUB PUSH0 DUP4 ADD MSTORE PUSH2 0x323 DUP2 DUP5 PUSH2 0x2D3 JUMP JUMPDEST SWAP1 POP SWAP3 SWAP2 POP POP JUMP JUMPDEST PUSH32 0x4E487B7100000000000000000000000000000000000000000000000000000000 PUSH0 MSTORE PUSH1 0x22 PUSH1 0x4 MSTORE PUSH1 0x24 PUSH0 REVERT JUMPDEST PUSH0 PUSH1 0x2 DUP3 DIV SWAP1 POP PUSH1 0x1 DUP3 AND DUP1 PUSH2 0x36F JUMPI PUSH1 0x7F DUP3 AND SWAP2 POP JUMPDEST PUSH1 0x20 DUP3 LT DUP2 SUB PUSH2 0x382 JUMPI PUSH2 0x381 PUSH2 0x32B JUMP JUMPDEST JUMPDEST POP SWAP2 SWAP1 POP JUMP JUMPDEST PUSH0 DUP2 SWAP1 POP DUP2 PUSH0 MSTORE PUSH1 0x20 PUSH0 KECCAK256 SWAP1 POP SWAP2 SWAP1 POP JUMP JUMPDEST PUSH0 PUSH1 0x20 PUSH1 0x1F DUP4 ADD DIV SWAP1 POP SWAP2 SWAP1 POP JUMP JUMPDEST PUSH0 DUP3 DUP3 SHL SWAP1 POP SWAP3 SWAP2 POP POP JUMP JUMPDEST PUSH0 PUSH1 0x8 DUP4 MUL PUSH2 0x3E4 PUSH32 0xFFFFFFFFFFFFFFFFFFFFFFFFFFFFFFFFFFFFFFFFFFFFFFFFFFFFFFFFFFFFFFFF DUP3 PUSH2 0x3A9 JUMP JUMPDEST PUSH2 0x3EE DUP7 DUP4 PUSH2 0x3A9 JUMP JUMPDEST SWAP6 POP DUP1 NOT DUP5 AND SWAP4 POP DUP1 DUP7 AND DUP5 OR SWAP3 POP POP POP SWAP4 SWAP3 POP POP POP JUMP JUMPDEST PUSH0 DUP2 SWAP1 POP SWAP2 SWAP1 POP JUMP JUMPDEST PUSH0 DUP2 SWAP1 POP SWAP2 SWAP1 POP JUMP JUMPDEST PUSH0 PUSH2 0x432 PUSH2 0x42D PUSH2 0x428 DUP5 PUSH2 0x406 JUMP JUMPDEST PUSH2 0x40F JUMP JUMPDEST PUSH2 0x406 JUMP JUMPDEST SWAP1 POP SWAP2 SWAP1 POP JUMP JUMPDEST PUSH0 DUP2 SWAP1 POP SWAP2 SWAP1 POP JUMP JUMPDEST PUSH2 0x44B DUP4 PUSH2 0x418 JUMP JUMPDEST PUSH2 0x45F PUSH2 0x457 DUP3 PUSH2 0x439 JUMP JUMPDEST DUP5 DUP5 SLOAD PUSH2 0x3B5 JUMP JUMPDEST DUP3 SSTORE POP POP POP POP JUMP JUMPDEST PUSH0 SWAP1 JUMP JUMPDEST PUSH2 0x473 PUSH2 0x467 JUMP JUMPDEST PUSH2 0x47E DUP2 DUP5 DUP5 PUSH2 0x442 JUMP JUMPDEST POP POP POP JUMP JUMPDEST JUMPDEST DUP2 DUP2 LT ISZERO PUSH2 0x4A1 JUMPI PUSH2 0x496 PUSH0 DUP3 PUSH2 0x46B JUMP JUMPDEST PUSH1 0x1 DUP2 ADD SWAP1 POP PUSH2 0x484 JUMP JUMPDEST POP POP JUMP JUMPDEST PUSH1 0x1F DUP3 GT ISZERO PUSH2 0x4E6 JUMPI PUSH2 0x4B7 DUP2 PUSH2 0x388 JUMP JUMPDEST PUSH2 0x4C0 DUP5 PUSH2 0x39A JUMP JUMPDEST DUP2 ADD PUSH1 0x20 DUP6 LT ISZERO PUSH2 0x4CF JUMPI DUP2 SWAP1 POP JUMPDEST PUSH2 0x4E3 PUSH2 0x4DB DUP6 PUSH2 0x39A JUMP JUMPDEST DUP4 ADD DUP3 PUSH2 0x483 JUMP JUMPDEST POP POP JUMPDEST POP POP POP JUMP JUMPDEST PUSH0 DUP3 DUP3 SHR SWAP1 POP SWAP3 SWAP2 POP POP JUMP JUMPDEST PUSH0 PUSH2 0x506 PUSH0 NOT DUP5 PUSH1 0x8 MUL PUSH2 0x4EB JUMP JUMPDEST NOT DUP1 DUP4 AND SWAP2 POP POP SWAP3 SWAP2 POP POP JUMP JUMPDEST PUSH0 PUSH2 0x51E DUP4 DUP4 PUSH2 0x4F7 JUMP JUMPDEST SWAP2 POP DUP3 PUSH1 0x2 MUL DUP3 OR SWAP1 POP SWAP3 SWAP2 POP POP JUMP JUMPDEST PUSH2 0x537 DUP3 PUSH2 0x291 JUMP JUMPDEST PUSH8 0xFFFFFFFFFFFFFFFF DUP2 GT ISZERO PUSH2 0x550 JUMPI PUSH2 0x54F PUSH2 0x126 JUMP JUMPDEST JUMPDEST PUSH2 0x55A DUP3 SLOAD PUSH2 0x358 JUMP JUMPDEST PUSH2 0x565 DUP3 DUP3 DUP6 PUSH2 0x4A5 JUMP JUMPDEST PUSH0 PUSH1 0x20 SWAP1 POP PUSH1 0x1F DUP4 GT PUSH1 0x1 DUP2 EQ PUSH2 0x596 JUMPI PUSH0 DUP5 ISZERO PUSH2 0x584 JUMPI DUP3 DUP8 ADD MLOAD SWAP1 POP JUMPDEST PUSH2 0x58E DUP6 DUP3 PUSH2 0x513 JUMP JUMPDEST DUP7 SSTORE POP PUSH2 0x5F5 JUMP JUMPDEST PUSH1 0x1F NOT DUP5 AND PUSH2 0x5A4 DUP7 PUSH2 0x388 JUMP JUMPDEST PUSH0 JUMPDEST DUP3 DUP2 LT ISZERO PUSH2 0x5CB JUMPI DUP5 DUP10 ADD MLOAD DUP3 SSTORE PUSH1 0x1 DUP3 ADD SWAP2 POP PUSH1 0x20 DUP6 ADD SWAP5 POP PUSH1 0x20 DUP2 ADD SWAP1 POP PUSH2 0x5A6 JUMP JUMPDEST DUP7 DUP4 LT ISZERO PUSH2 0x5E8 JUMPI DUP5 DUP10 ADD MLOAD PUSH2 0x5E4 PUSH1 0x1F DUP10 AND DUP3 PUSH2 0x4F7 JUMP JUMPDEST DUP4 SSTORE POP JUMPDEST PUSH1 0x1 PUSH1 0x2 DUP9 MUL ADD DUP9 SSTORE POP POP POP JUMPDEST POP POP POP POP POP POP JUMP INVALID LOG2 PUSH5 0x6970667358 0x22 SLT KECCAK256 0xD1 CHAINID DUP7 0xCE 0xC2 0x1F EXTCODEHASH 0xD3 0xCA PUSH25 0xF531360D931052649C879F50947FE9B5A6CD933EF50564736F PUSH13 0x63430008160033000000000000 "
				},
				"gasEstimates": {
					"creation": {
						"codeDepositCost": "317400",
						"executionCost": "353",
						"totalCost": "317753"
					},
					"external": {
						"getter(string)": "infinite"
					}
				},
				"methodIdentifiers": {
					"getter(string)": "85f4c244"
				}
			},
			"storageLayout": {
				"storage": [
					{
						"astId": 3,
						"contract": "contracts/Strings.sol:myStr",
						"label": "text",
						"offset": 0,
						"slot": "0",
						"type": "t_string_storage"
					}
				],
				"types": {
					"t_string_storage": {
						"encoding": "bytes",
						"label": "string",
						"numberOfBytes": "32"
					}
				}
			},
			"userdoc": {
				"kind": "user",
				"methods": {},
				"version": 1
			}
		}
	}
}