{
	"contracts/Strings.sol": {
		"strings": {
			"abi": [
				{
					"inputs": [],
					"name": "mytext",
					"outputs": [],
					"stateMutability": "nonpayable",
					"type": "function"
				},
				{
					"inputs": [],
					"name": "showtext",
					"outputs": [
						{
							"internalType": "string",
							"name": "",
							"type": "string"
						},
						{
							"internalType": "uint256",
							"name": "",
							"type": "uint256"
						}
					],
					"stateMutability": "view",
					"type": "function"
				},
				{
					"inputs": [
						{
							"internalType": "string",
							"name": "message",
							"type": "string"
						}
					],
					"name": "textByPassing",
					"outputs": [],
					"stateMutability": "nonpayable",
					"type": "function"
				}
			],
			"devdoc": {
				"kind": "dev",
				"methods": {},
				"version": 1
			},
			"evm": {
				"assembly": "    /* \"contracts/Strings.sol\":62:424  contract strings {... */\n  mstore(0x40, 0x80)\n  callvalue\n  dup1\n  iszero\n  tag_1\n  jumpi\n  0x00\n  dup1\n  revert\ntag_1:\n  pop\n  dataSize(sub_0)\n  dup1\n  dataOffset(sub_0)\n  0x00\n  codecopy\n  0x00\n  return\nstop\n\nsub_0: assembly {\n        /* \"contracts/Strings.sol\":62:424  contract strings {... */\n      mstore(0x40, 0x80)\n      callvalue\n      dup1\n      iszero\n      tag_1\n      jumpi\n      0x00\n      dup1\n      revert\n    tag_1:\n      pop\n      jumpi(tag_2, lt(calldatasize, 0x04))\n      shr(0xe0, calldataload(0x00))\n      dup1\n      0x4af9263f\n      eq\n      tag_3\n      jumpi\n      dup1\n      0x5cf6f76f\n      eq\n      tag_4\n      jumpi\n      dup1\n      0xeae4c1ed\n      eq\n      tag_5\n      jumpi\n    tag_2:\n      0x00\n      dup1\n      revert\n        /* \"contracts/Strings.sol\":110:168  function mytext() public {... */\n    tag_3:\n      tag_6\n      tag_7\n      jump\t// in\n    tag_6:\n      stop\n        /* \"contracts/Strings.sol\":176:262  function textByPassing(string memory message) public {... */\n    tag_4:\n      tag_8\n      0x04\n      dup1\n      calldatasize\n      sub\n      dup2\n      add\n      swap1\n      tag_9\n      swap2\n      swap1\n      tag_10\n      jump\t// in\n    tag_9:\n      tag_11\n      jump\t// in\n    tag_8:\n      stop\n        /* \"contracts/Strings.sol\":270:421  function showtext() public view returns(string memory, uint256) {... */\n    tag_5:\n      tag_12\n      tag_13\n      jump\t// in\n    tag_12:\n      mload(0x40)\n      tag_14\n      swap3\n      swap2\n      swap1\n      tag_15\n      jump\t// in\n    tag_14:\n      mload(0x40)\n      dup1\n      swap2\n      sub\n      swap1\n      return\n        /* \"contracts/Strings.sol\":110:168  function mytext() public {... */\n    tag_7:\n        /* \"contracts/Strings.sol\":146:160  text = \"Halo`\" */\n      mload(0x40)\n      dup1\n      0x40\n      add\n      0x40\n      mstore\n      dup1\n      0x05\n      dup2\n      mstore\n      0x20\n      add\n      0x48616c6f60000000000000000000000000000000000000000000000000000000\n      dup2\n      mstore\n      pop\n        /* \"contracts/Strings.sol\":146:150  text */\n      0x00\n        /* \"contracts/Strings.sol\":146:160  text = \"Halo`\" */\n      swap1\n      dup2\n      tag_17\n      swap2\n      swap1\n      tag_18\n      jump\t// in\n    tag_17:\n      pop\n        /* \"contracts/Strings.sol\":110:168  function mytext() public {... */\n      jump\t// out\n        /* \"contracts/Strings.sol\":176:262  function textByPassing(string memory message) public {... */\n    tag_11:\n        /* \"contracts/Strings.sol\":247:254  message */\n      dup1\n        /* \"contracts/Strings.sol\":240:244  text */\n      0x00\n        /* \"contracts/Strings.sol\":240:254  text = message */\n      swap1\n      dup2\n      tag_20\n      swap2\n      swap1\n      tag_18\n      jump\t// in\n    tag_20:\n      pop\n        /* \"contracts/Strings.sol\":176:262  function textByPassing(string memory message) public {... */\n      pop\n      jump\t// out\n        /* \"contracts/Strings.sol\":270:421  function showtext() public view returns(string memory, uint256) {... */\n    tag_13:\n        /* \"contracts/Strings.sol\":310:323  string memory */\n      0x60\n        /* \"contracts/Strings.sol\":325:332  uint256 */\n      0x00\n        /* \"contracts/Strings.sol\":345:362  bytes memory test */\n      dup1\n        /* \"contracts/Strings.sol\":371:375  text */\n      0x00\n        /* \"contracts/Strings.sol\":345:376  bytes memory test = bytes(text) */\n      dup1\n      sload\n      tag_22\n      swap1\n      tag_23\n      jump\t// in\n    tag_22:\n      dup1\n      0x1f\n      add\n      0x20\n      dup1\n      swap2\n      div\n      mul\n      0x20\n      add\n      mload(0x40)\n      swap1\n      dup2\n      add\n      0x40\n      mstore\n      dup1\n      swap3\n      swap2\n      swap1\n      dup2\n      dup2\n      mstore\n      0x20\n      add\n      dup3\n      dup1\n      sload\n      tag_24\n      swap1\n      tag_23\n      jump\t// in\n    tag_24:\n      dup1\n      iszero\n      tag_25\n      jumpi\n      dup1\n      0x1f\n      lt\n      tag_26\n      jumpi\n      0x0100\n      dup1\n      dup4\n      sload\n      div\n      mul\n      dup4\n      mstore\n      swap2\n      0x20\n      add\n      swap2\n      jump(tag_25)\n    tag_26:\n      dup3\n      add\n      swap2\n      swap1\n      0x00\n      mstore\n      keccak256(0x00, 0x20)\n      swap1\n    tag_27:\n      dup2\n      sload\n      dup2\n      mstore\n      swap1\n      0x01\n      add\n      swap1\n      0x20\n      add\n      dup1\n      dup4\n      gt\n      tag_27\n      jumpi\n      dup3\n      swap1\n      sub\n      0x1f\n      and\n      dup3\n      add\n      swap2\n    tag_25:\n      pop\n      pop\n      pop\n      pop\n      pop\n      swap1\n      pop\n        /* \"contracts/Strings.sol\":395:399  text */\n      0x00\n        /* \"contracts/Strings.sol\":401:405  test */\n      dup2\n        /* \"contracts/Strings.sol\":401:412  test.length */\n      mload\n        /* \"contracts/Strings.sol\":387:413  return (text, test.length) */\n      dup2\n      dup1\n      sload\n      tag_28\n      swap1\n      tag_23\n      jump\t// in\n    tag_28:\n      dup1\n      0x1f\n      add\n      0x20\n      dup1\n      swap2\n      div\n      mul\n      0x20\n      add\n      mload(0x40)\n      swap1\n      dup2\n      add\n      0x40\n      mstore\n      dup1\n      swap3\n      swap2\n      swap1\n      dup2\n      dup2\n      mstore\n      0x20\n      add\n      dup3\n      dup1\n      sload\n      tag_29\n      swap1\n      tag_23\n      jump\t// in\n    tag_29:\n      dup1\n      iszero\n      tag_30\n      jumpi\n      dup1\n      0x1f\n      lt\n      tag_31\n      jumpi\n      0x0100\n      dup1\n      dup4\n      sload\n      div\n      mul\n      dup4\n      mstore\n      swap2\n      0x20\n      add\n      swap2\n      jump(tag_30)\n    tag_31:\n      dup3\n      add\n      swap2\n      swap1\n      0x00\n      mstore\n      keccak256(0x00, 0x20)\n      swap1\n    tag_32:\n      dup2\n      sload\n      dup2\n      mstore\n      swap1\n      0x01\n      add\n      swap1\n      0x20\n      add\n      dup1\n      dup4\n      gt\n      tag_32\n      jumpi\n      dup3\n      swap1\n      sub\n      0x1f\n      and\n      dup3\n      add\n      swap2\n    tag_30:\n      pop\n      pop\n      pop\n      pop\n      pop\n      swap2\n      pop\n      swap3\n      pop\n      swap3\n      pop\n      pop\n        /* \"contracts/Strings.sol\":270:421  function showtext() public view returns(string memory, uint256) {... */\n      swap1\n      swap2\n      jump\t// out\n        /* \"#utility.yul\":7:82   */\n    tag_33:\n        /* \"#utility.yul\":40:46   */\n      0x00\n        /* \"#utility.yul\":73:75   */\n      0x40\n        /* \"#utility.yul\":67:76   */\n      mload\n        /* \"#utility.yul\":57:76   */\n      swap1\n      pop\n        /* \"#utility.yul\":7:82   */\n      swap1\n      jump\t// out\n        /* \"#utility.yul\":88:205   */\n    tag_34:\n        /* \"#utility.yul\":197:198   */\n      0x00\n        /* \"#utility.yul\":194:195   */\n      dup1\n        /* \"#utility.yul\":187:199   */\n      revert\n        /* \"#utility.yul\":211:328   */\n    tag_35:\n        /* \"#utility.yul\":320:321   */\n      0x00\n        /* \"#utility.yul\":317:318   */\n      dup1\n        /* \"#utility.yul\":310:322   */\n      revert\n        /* \"#utility.yul\":334:451   */\n    tag_36:\n        /* \"#utility.yul\":443:444   */\n      0x00\n        /* \"#utility.yul\":440:441   */\n      dup1\n        /* \"#utility.yul\":433:445   */\n      revert\n        /* \"#utility.yul\":457:574   */\n    tag_37:\n        /* \"#utility.yul\":566:567   */\n      0x00\n        /* \"#utility.yul\":563:564   */\n      dup1\n        /* \"#utility.yul\":556:568   */\n      revert\n        /* \"#utility.yul\":580:682   */\n    tag_38:\n        /* \"#utility.yul\":621:627   */\n      0x00\n        /* \"#utility.yul\":672:674   */\n      0x1f\n        /* \"#utility.yul\":668:675   */\n      not\n        /* \"#utility.yul\":663:665   */\n      0x1f\n        /* \"#utility.yul\":656:661   */\n      dup4\n        /* \"#utility.yul\":652:666   */\n      add\n        /* \"#utility.yul\":648:676   */\n      and\n        /* \"#utility.yul\":638:676   */\n      swap1\n      pop\n        /* \"#utility.yul\":580:682   */\n      swap2\n      swap1\n      pop\n      jump\t// out\n        /* \"#utility.yul\":688:868   */\n    tag_39:\n        /* \"#utility.yul\":736:813   */\n      0x4e487b7100000000000000000000000000000000000000000000000000000000\n        /* \"#utility.yul\":733:734   */\n      0x00\n        /* \"#utility.yul\":726:814   */\n      mstore\n        /* \"#utility.yul\":833:837   */\n      0x41\n        /* \"#utility.yul\":830:831   */\n      0x04\n        /* \"#utility.yul\":823:838   */\n      mstore\n        /* \"#utility.yul\":857:861   */\n      0x24\n        /* \"#utility.yul\":854:855   */\n      0x00\n        /* \"#utility.yul\":847:862   */\n      revert\n        /* \"#utility.yul\":874:1155   */\n    tag_40:\n        /* \"#utility.yul\":957:984   */\n      tag_77\n        /* \"#utility.yul\":979:983   */\n      dup3\n        /* \"#utility.yul\":957:984   */\n      tag_38\n      jump\t// in\n    tag_77:\n        /* \"#utility.yul\":949:955   */\n      dup2\n        /* \"#utility.yul\":945:985   */\n      add\n        /* \"#utility.yul\":1087:1093   */\n      dup2\n        /* \"#utility.yul\":1075:1085   */\n      dup2\n        /* \"#utility.yul\":1072:1094   */\n      lt\n        /* \"#utility.yul\":1051:1069   */\n      0xffffffffffffffff\n        /* \"#utility.yul\":1039:1049   */\n      dup3\n        /* \"#utility.yul\":1036:1070   */\n      gt\n        /* \"#utility.yul\":1033:1095   */\n      or\n        /* \"#utility.yul\":1030:1118   */\n      iszero\n      tag_78\n      jumpi\n        /* \"#utility.yul\":1098:1116   */\n      tag_79\n      tag_39\n      jump\t// in\n    tag_79:\n        /* \"#utility.yul\":1030:1118   */\n    tag_78:\n        /* \"#utility.yul\":1138:1148   */\n      dup1\n        /* \"#utility.yul\":1134:1136   */\n      0x40\n        /* \"#utility.yul\":1127:1149   */\n      mstore\n        /* \"#utility.yul\":917:1155   */\n      pop\n        /* \"#utility.yul\":874:1155   */\n      pop\n      pop\n      jump\t// out\n        /* \"#utility.yul\":1161:1290   */\n    tag_41:\n        /* \"#utility.yul\":1195:1201   */\n      0x00\n        /* \"#utility.yul\":1222:1242   */\n      tag_81\n      tag_33\n      jump\t// in\n    tag_81:\n        /* \"#utility.yul\":1212:1242   */\n      swap1\n      pop\n        /* \"#utility.yul\":1251:1284   */\n      tag_82\n        /* \"#utility.yul\":1279:1283   */\n      dup3\n        /* \"#utility.yul\":1271:1277   */\n      dup3\n        /* \"#utility.yul\":1251:1284   */\n      tag_40\n      jump\t// in\n    tag_82:\n        /* \"#utility.yul\":1161:1290   */\n      swap2\n      swap1\n      pop\n      jump\t// out\n        /* \"#utility.yul\":1296:1604   */\n    tag_42:\n        /* \"#utility.yul\":1358:1362   */\n      0x00\n        /* \"#utility.yul\":1448:1466   */\n      0xffffffffffffffff\n        /* \"#utility.yul\":1440:1446   */\n      dup3\n        /* \"#utility.yul\":1437:1467   */\n      gt\n        /* \"#utility.yul\":1434:1490   */\n      iszero\n      tag_84\n      jumpi\n        /* \"#utility.yul\":1470:1488   */\n      tag_85\n      tag_39\n      jump\t// in\n    tag_85:\n        /* \"#utility.yul\":1434:1490   */\n    tag_84:\n        /* \"#utility.yul\":1508:1537   */\n      tag_86\n        /* \"#utility.yul\":1530:1536   */\n      dup3\n        /* \"#utility.yul\":1508:1537   */\n      tag_38\n      jump\t// in\n    tag_86:\n        /* \"#utility.yul\":1500:1537   */\n      swap1\n      pop\n        /* \"#utility.yul\":1592:1596   */\n      0x20\n        /* \"#utility.yul\":1586:1590   */\n      dup2\n        /* \"#utility.yul\":1582:1597   */\n      add\n        /* \"#utility.yul\":1574:1597   */\n      swap1\n      pop\n        /* \"#utility.yul\":1296:1604   */\n      swap2\n      swap1\n      pop\n      jump\t// out\n        /* \"#utility.yul\":1610:1756   */\n    tag_43:\n        /* \"#utility.yul\":1707:1713   */\n      dup3\n        /* \"#utility.yul\":1702:1705   */\n      dup2\n        /* \"#utility.yul\":1697:1700   */\n      dup4\n        /* \"#utility.yul\":1684:1714   */\n      calldatacopy\n        /* \"#utility.yul\":1748:1749   */\n      0x00\n        /* \"#utility.yul\":1739:1745   */\n      dup4\n        /* \"#utility.yul\":1734:1737   */\n      dup4\n        /* \"#utility.yul\":1730:1746   */\n      add\n        /* \"#utility.yul\":1723:1750   */\n      mstore\n        /* \"#utility.yul\":1610:1756   */\n      pop\n      pop\n      pop\n      jump\t// out\n        /* \"#utility.yul\":1762:2187   */\n    tag_44:\n        /* \"#utility.yul\":1840:1845   */\n      0x00\n        /* \"#utility.yul\":1865:1931   */\n      tag_89\n        /* \"#utility.yul\":1881:1930   */\n      tag_90\n        /* \"#utility.yul\":1923:1929   */\n      dup5\n        /* \"#utility.yul\":1881:1930   */\n      tag_42\n      jump\t// in\n    tag_90:\n        /* \"#utility.yul\":1865:1931   */\n      tag_41\n      jump\t// in\n    tag_89:\n        /* \"#utility.yul\":1856:1931   */\n      swap1\n      pop\n        /* \"#utility.yul\":1954:1960   */\n      dup3\n        /* \"#utility.yul\":1947:1952   */\n      dup2\n        /* \"#utility.yul\":1940:1961   */\n      mstore\n        /* \"#utility.yul\":1992:1996   */\n      0x20\n        /* \"#utility.yul\":1985:1990   */\n      dup2\n        /* \"#utility.yul\":1981:1997   */\n      add\n        /* \"#utility.yul\":2030:2033   */\n      dup5\n        /* \"#utility.yul\":2021:2027   */\n      dup5\n        /* \"#utility.yul\":2016:2019   */\n      dup5\n        /* \"#utility.yul\":2012:2028   */\n      add\n        /* \"#utility.yul\":2009:2034   */\n      gt\n        /* \"#utility.yul\":2006:2118   */\n      iszero\n      tag_91\n      jumpi\n        /* \"#utility.yul\":2037:2116   */\n      tag_92\n      tag_37\n      jump\t// in\n    tag_92:\n        /* \"#utility.yul\":2006:2118   */\n    tag_91:\n        /* \"#utility.yul\":2127:2181   */\n      tag_93\n        /* \"#utility.yul\":2174:2180   */\n      dup5\n        /* \"#utility.yul\":2169:2172   */\n      dup3\n        /* \"#utility.yul\":2164:2167   */\n      dup6\n        /* \"#utility.yul\":2127:2181   */\n      tag_43\n      jump\t// in\n    tag_93:\n        /* \"#utility.yul\":1846:2187   */\n      pop\n        /* \"#utility.yul\":1762:2187   */\n      swap4\n      swap3\n      pop\n      pop\n      pop\n      jump\t// out\n        /* \"#utility.yul\":2207:2547   */\n    tag_45:\n        /* \"#utility.yul\":2263:2268   */\n      0x00\n        /* \"#utility.yul\":2312:2315   */\n      dup3\n        /* \"#utility.yul\":2305:2309   */\n      0x1f\n        /* \"#utility.yul\":2297:2303   */\n      dup4\n        /* \"#utility.yul\":2293:2310   */\n      add\n        /* \"#utility.yul\":2289:2316   */\n      slt\n        /* \"#utility.yul\":2279:2401   */\n      tag_95\n      jumpi\n        /* \"#utility.yul\":2320:2399   */\n      tag_96\n      tag_36\n      jump\t// in\n    tag_96:\n        /* \"#utility.yul\":2279:2401   */\n    tag_95:\n        /* \"#utility.yul\":2437:2443   */\n      dup2\n        /* \"#utility.yul\":2424:2444   */\n      calldataload\n        /* \"#utility.yul\":2462:2541   */\n      tag_97\n        /* \"#utility.yul\":2537:2540   */\n      dup5\n        /* \"#utility.yul\":2529:2535   */\n      dup3\n        /* \"#utility.yul\":2522:2526   */\n      0x20\n        /* \"#utility.yul\":2514:2520   */\n      dup7\n        /* \"#utility.yul\":2510:2527   */\n      add\n        /* \"#utility.yul\":2462:2541   */\n      tag_44\n      jump\t// in\n    tag_97:\n        /* \"#utility.yul\":2453:2541   */\n      swap2\n      pop\n        /* \"#utility.yul\":2269:2547   */\n      pop\n        /* \"#utility.yul\":2207:2547   */\n      swap3\n      swap2\n      pop\n      pop\n      jump\t// out\n        /* \"#utility.yul\":2553:3062   */\n    tag_10:\n        /* \"#utility.yul\":2622:2628   */\n      0x00\n        /* \"#utility.yul\":2671:2673   */\n      0x20\n        /* \"#utility.yul\":2659:2668   */\n      dup3\n        /* \"#utility.yul\":2650:2657   */\n      dup5\n        /* \"#utility.yul\":2646:2669   */\n      sub\n        /* \"#utility.yul\":2642:2674   */\n      slt\n        /* \"#utility.yul\":2639:2758   */\n      iszero\n      tag_99\n      jumpi\n        /* \"#utility.yul\":2677:2756   */\n      tag_100\n      tag_34\n      jump\t// in\n    tag_100:\n        /* \"#utility.yul\":2639:2758   */\n    tag_99:\n        /* \"#utility.yul\":2825:2826   */\n      0x00\n        /* \"#utility.yul\":2814:2823   */\n      dup3\n        /* \"#utility.yul\":2810:2827   */\n      add\n        /* \"#utility.yul\":2797:2828   */\n      calldataload\n        /* \"#utility.yul\":2855:2873   */\n      0xffffffffffffffff\n        /* \"#utility.yul\":2847:2853   */\n      dup2\n        /* \"#utility.yul\":2844:2874   */\n      gt\n        /* \"#utility.yul\":2841:2958   */\n      iszero\n      tag_101\n      jumpi\n        /* \"#utility.yul\":2877:2956   */\n      tag_102\n      tag_35\n      jump\t// in\n    tag_102:\n        /* \"#utility.yul\":2841:2958   */\n    tag_101:\n        /* \"#utility.yul\":2982:3045   */\n      tag_103\n        /* \"#utility.yul\":3037:3044   */\n      dup5\n        /* \"#utility.yul\":3028:3034   */\n      dup3\n        /* \"#utility.yul\":3017:3026   */\n      dup6\n        /* \"#utility.yul\":3013:3035   */\n      add\n        /* \"#utility.yul\":2982:3045   */\n      tag_45\n      jump\t// in\n    tag_103:\n        /* \"#utility.yul\":2972:3045   */\n      swap2\n      pop\n        /* \"#utility.yul\":2768:3055   */\n      pop\n        /* \"#utility.yul\":2553:3062   */\n      swap3\n      swap2\n      pop\n      pop\n      jump\t// out\n        /* \"#utility.yul\":3068:3167   */\n    tag_46:\n        /* \"#utility.yul\":3120:3126   */\n      0x00\n        /* \"#utility.yul\":3154:3159   */\n      dup2\n        /* \"#utility.yul\":3148:3160   */\n      mload\n        /* \"#utility.yul\":3138:3160   */\n      swap1\n      pop\n        /* \"#utility.yul\":3068:3167   */\n      swap2\n      swap1\n      pop\n      jump\t// out\n        /* \"#utility.yul\":3173:3342   */\n    tag_47:\n        /* \"#utility.yul\":3257:3268   */\n      0x00\n        /* \"#utility.yul\":3291:3297   */\n      dup3\n        /* \"#utility.yul\":3286:3289   */\n      dup3\n        /* \"#utility.yul\":3279:3298   */\n      mstore\n        /* \"#utility.yul\":3331:3335   */\n      0x20\n        /* \"#utility.yul\":3326:3329   */\n      dup3\n        /* \"#utility.yul\":3322:3336   */\n      add\n        /* \"#utility.yul\":3307:3336   */\n      swap1\n      pop\n        /* \"#utility.yul\":3173:3342   */\n      swap3\n      swap2\n      pop\n      pop\n      jump\t// out\n        /* \"#utility.yul\":3348:3594   */\n    tag_48:\n        /* \"#utility.yul\":3429:3430   */\n      0x00\n        /* \"#utility.yul\":3439:3552   */\n    tag_107:\n        /* \"#utility.yul\":3453:3459   */\n      dup4\n        /* \"#utility.yul\":3450:3451   */\n      dup2\n        /* \"#utility.yul\":3447:3460   */\n      lt\n        /* \"#utility.yul\":3439:3552   */\n      iszero\n      tag_109\n      jumpi\n        /* \"#utility.yul\":3538:3539   */\n      dup1\n        /* \"#utility.yul\":3533:3536   */\n      dup3\n        /* \"#utility.yul\":3529:3540   */\n      add\n        /* \"#utility.yul\":3523:3541   */\n      mload\n        /* \"#utility.yul\":3519:3520   */\n      dup2\n        /* \"#utility.yul\":3514:3517   */\n      dup5\n        /* \"#utility.yul\":3510:3521   */\n      add\n        /* \"#utility.yul\":3503:3542   */\n      mstore\n        /* \"#utility.yul\":3475:3477   */\n      0x20\n        /* \"#utility.yul\":3472:3473   */\n      dup2\n        /* \"#utility.yul\":3468:3478   */\n      add\n        /* \"#utility.yul\":3463:3478   */\n      swap1\n      pop\n        /* \"#utility.yul\":3439:3552   */\n      jump(tag_107)\n    tag_109:\n        /* \"#utility.yul\":3586:3587   */\n      0x00\n        /* \"#utility.yul\":3577:3583   */\n      dup5\n        /* \"#utility.yul\":3572:3575   */\n      dup5\n        /* \"#utility.yul\":3568:3584   */\n      add\n        /* \"#utility.yul\":3561:3588   */\n      mstore\n        /* \"#utility.yul\":3410:3594   */\n      pop\n        /* \"#utility.yul\":3348:3594   */\n      pop\n      pop\n      pop\n      jump\t// out\n        /* \"#utility.yul\":3600:3977   */\n    tag_49:\n        /* \"#utility.yul\":3688:3691   */\n      0x00\n        /* \"#utility.yul\":3716:3755   */\n      tag_111\n        /* \"#utility.yul\":3749:3754   */\n      dup3\n        /* \"#utility.yul\":3716:3755   */\n      tag_46\n      jump\t// in\n    tag_111:\n        /* \"#utility.yul\":3771:3842   */\n      tag_112\n        /* \"#utility.yul\":3835:3841   */\n      dup2\n        /* \"#utility.yul\":3830:3833   */\n      dup6\n        /* \"#utility.yul\":3771:3842   */\n      tag_47\n      jump\t// in\n    tag_112:\n        /* \"#utility.yul\":3764:3842   */\n      swap4\n      pop\n        /* \"#utility.yul\":3851:3916   */\n      tag_113\n        /* \"#utility.yul\":3909:3915   */\n      dup2\n        /* \"#utility.yul\":3904:3907   */\n      dup6\n        /* \"#utility.yul\":3897:3901   */\n      0x20\n        /* \"#utility.yul\":3890:3895   */\n      dup7\n        /* \"#utility.yul\":3886:3902   */\n      add\n        /* \"#utility.yul\":3851:3916   */\n      tag_48\n      jump\t// in\n    tag_113:\n        /* \"#utility.yul\":3941:3970   */\n      tag_114\n        /* \"#utility.yul\":3963:3969   */\n      dup2\n        /* \"#utility.yul\":3941:3970   */\n      tag_38\n      jump\t// in\n    tag_114:\n        /* \"#utility.yul\":3936:3939   */\n      dup5\n        /* \"#utility.yul\":3932:3971   */\n      add\n        /* \"#utility.yul\":3925:3971   */\n      swap2\n      pop\n        /* \"#utility.yul\":3692:3977   */\n      pop\n        /* \"#utility.yul\":3600:3977   */\n      swap3\n      swap2\n      pop\n      pop\n      jump\t// out\n        /* \"#utility.yul\":3983:4060   */\n    tag_50:\n        /* \"#utility.yul\":4020:4027   */\n      0x00\n        /* \"#utility.yul\":4049:4054   */\n      dup2\n        /* \"#utility.yul\":4038:4054   */\n      swap1\n      pop\n        /* \"#utility.yul\":3983:4060   */\n      swap2\n      swap1\n      pop\n      jump\t// out\n        /* \"#utility.yul\":4066:4184   */\n    tag_51:\n        /* \"#utility.yul\":4153:4177   */\n      tag_117\n        /* \"#utility.yul\":4171:4176   */\n      dup2\n        /* \"#utility.yul\":4153:4177   */\n      tag_50\n      jump\t// in\n    tag_117:\n        /* \"#utility.yul\":4148:4151   */\n      dup3\n        /* \"#utility.yul\":4141:4178   */\n      mstore\n        /* \"#utility.yul\":4066:4184   */\n      pop\n      pop\n      jump\t// out\n        /* \"#utility.yul\":4190:4613   */\n    tag_15:\n        /* \"#utility.yul\":4331:4335   */\n      0x00\n        /* \"#utility.yul\":4369:4371   */\n      0x40\n        /* \"#utility.yul\":4358:4367   */\n      dup3\n        /* \"#utility.yul\":4354:4372   */\n      add\n        /* \"#utility.yul\":4346:4372   */\n      swap1\n      pop\n        /* \"#utility.yul\":4418:4427   */\n      dup2\n        /* \"#utility.yul\":4412:4416   */\n      dup2\n        /* \"#utility.yul\":4408:4428   */\n      sub\n        /* \"#utility.yul\":4404:4405   */\n      0x00\n        /* \"#utility.yul\":4393:4402   */\n      dup4\n        /* \"#utility.yul\":4389:4406   */\n      add\n        /* \"#utility.yul\":4382:4429   */\n      mstore\n        /* \"#utility.yul\":4446:4524   */\n      tag_119\n        /* \"#utility.yul\":4519:4523   */\n      dup2\n        /* \"#utility.yul\":4510:4516   */\n      dup6\n        /* \"#utility.yul\":4446:4524   */\n      tag_49\n      jump\t// in\n    tag_119:\n        /* \"#utility.yul\":4438:4524   */\n      swap1\n      pop\n        /* \"#utility.yul\":4534:4606   */\n      tag_120\n        /* \"#utility.yul\":4602:4604   */\n      0x20\n        /* \"#utility.yul\":4591:4600   */\n      dup4\n        /* \"#utility.yul\":4587:4605   */\n      add\n        /* \"#utility.yul\":4578:4584   */\n      dup5\n        /* \"#utility.yul\":4534:4606   */\n      tag_51\n      jump\t// in\n    tag_120:\n        /* \"#utility.yul\":4190:4613   */\n      swap4\n      swap3\n      pop\n      pop\n      pop\n      jump\t// out\n        /* \"#utility.yul\":4619:4799   */\n    tag_52:\n        /* \"#utility.yul\":4667:4744   */\n      0x4e487b7100000000000000000000000000000000000000000000000000000000\n        /* \"#utility.yul\":4664:4665   */\n      0x00\n        /* \"#utility.yul\":4657:4745   */\n      mstore\n        /* \"#utility.yul\":4764:4768   */\n      0x22\n        /* \"#utility.yul\":4761:4762   */\n      0x04\n        /* \"#utility.yul\":4754:4769   */\n      mstore\n        /* \"#utility.yul\":4788:4792   */\n      0x24\n        /* \"#utility.yul\":4785:4786   */\n      0x00\n        /* \"#utility.yul\":4778:4793   */\n      revert\n        /* \"#utility.yul\":4805:5125   */\n    tag_23:\n        /* \"#utility.yul\":4849:4855   */\n      0x00\n        /* \"#utility.yul\":4886:4887   */\n      0x02\n        /* \"#utility.yul\":4880:4884   */\n      dup3\n        /* \"#utility.yul\":4876:4888   */\n      div\n        /* \"#utility.yul\":4866:4888   */\n      swap1\n      pop\n        /* \"#utility.yul\":4933:4934   */\n      0x01\n        /* \"#utility.yul\":4927:4931   */\n      dup3\n        /* \"#utility.yul\":4923:4935   */\n      and\n        /* \"#utility.yul\":4954:4972   */\n      dup1\n        /* \"#utility.yul\":4944:5025   */\n      tag_123\n      jumpi\n        /* \"#utility.yul\":5010:5014   */\n      0x7f\n        /* \"#utility.yul\":5002:5008   */\n      dup3\n        /* \"#utility.yul\":4998:5015   */\n      and\n        /* \"#utility.yul\":4988:5015   */\n      swap2\n      pop\n        /* \"#utility.yul\":4944:5025   */\n    tag_123:\n        /* \"#utility.yul\":5072:5074   */\n      0x20\n        /* \"#utility.yul\":5064:5070   */\n      dup3\n        /* \"#utility.yul\":5061:5075   */\n      lt\n        /* \"#utility.yul\":5041:5059   */\n      dup2\n        /* \"#utility.yul\":5038:5076   */\n      sub\n        /* \"#utility.yul\":5035:5119   */\n      tag_124\n      jumpi\n        /* \"#utility.yul\":5091:5109   */\n      tag_125\n      tag_52\n      jump\t// in\n    tag_125:\n        /* \"#utility.yul\":5035:5119   */\n    tag_124:\n        /* \"#utility.yul\":4856:5125   */\n      pop\n        /* \"#utility.yul\":4805:5125   */\n      swap2\n      swap1\n      pop\n      jump\t// out\n        /* \"#utility.yul\":5131:5272   */\n    tag_53:\n        /* \"#utility.yul\":5180:5184   */\n      0x00\n        /* \"#utility.yul\":5203:5206   */\n      dup2\n        /* \"#utility.yul\":5195:5206   */\n      swap1\n      pop\n        /* \"#utility.yul\":5226:5229   */\n      dup2\n        /* \"#utility.yul\":5223:5224   */\n      0x00\n        /* \"#utility.yul\":5216:5230   */\n      mstore\n        /* \"#utility.yul\":5260:5264   */\n      0x20\n        /* \"#utility.yul\":5257:5258   */\n      0x00\n        /* \"#utility.yul\":5247:5265   */\n      keccak256\n        /* \"#utility.yul\":5239:5265   */\n      swap1\n      pop\n        /* \"#utility.yul\":5131:5272   */\n      swap2\n      swap1\n      pop\n      jump\t// out\n        /* \"#utility.yul\":5278:5371   */\n    tag_54:\n        /* \"#utility.yul\":5315:5321   */\n      0x00\n        /* \"#utility.yul\":5362:5364   */\n      0x20\n        /* \"#utility.yul\":5357:5359   */\n      0x1f\n        /* \"#utility.yul\":5350:5355   */\n      dup4\n        /* \"#utility.yul\":5346:5360   */\n      add\n        /* \"#utility.yul\":5342:5365   */\n      div\n        /* \"#utility.yul\":5332:5365   */\n      swap1\n      pop\n        /* \"#utility.yul\":5278:5371   */\n      swap2\n      swap1\n      pop\n      jump\t// out\n        /* \"#utility.yul\":5377:5484   */\n    tag_55:\n        /* \"#utility.yul\":5421:5429   */\n      0x00\n        /* \"#utility.yul\":5471:5476   */\n      dup3\n        /* \"#utility.yul\":5465:5469   */\n      dup3\n        /* \"#utility.yul\":5461:5477   */\n      shl\n        /* \"#utility.yul\":5440:5477   */\n      swap1\n      pop\n        /* \"#utility.yul\":5377:5484   */\n      swap3\n      swap2\n      pop\n      pop\n      jump\t// out\n        /* \"#utility.yul\":5490:5883   */\n    tag_56:\n        /* \"#utility.yul\":5559:5565   */\n      0x00\n        /* \"#utility.yul\":5609:5610   */\n      0x08\n        /* \"#utility.yul\":5597:5607   */\n      dup4\n        /* \"#utility.yul\":5593:5611   */\n      mul\n        /* \"#utility.yul\":5632:5729   */\n      tag_130\n        /* \"#utility.yul\":5662:5728   */\n      0xffffffffffffffffffffffffffffffffffffffffffffffffffffffffffffffff\n        /* \"#utility.yul\":5651:5660   */\n      dup3\n        /* \"#utility.yul\":5632:5729   */\n      tag_55\n      jump\t// in\n    tag_130:\n        /* \"#utility.yul\":5750:5789   */\n      tag_131\n        /* \"#utility.yul\":5780:5788   */\n      dup7\n        /* \"#utility.yul\":5769:5778   */\n      dup4\n        /* \"#utility.yul\":5750:5789   */\n      tag_55\n      jump\t// in\n    tag_131:\n        /* \"#utility.yul\":5738:5789   */\n      swap6\n      pop\n        /* \"#utility.yul\":5822:5826   */\n      dup1\n        /* \"#utility.yul\":5818:5827   */\n      not\n        /* \"#utility.yul\":5811:5816   */\n      dup5\n        /* \"#utility.yul\":5807:5828   */\n      and\n        /* \"#utility.yul\":5798:5828   */\n      swap4\n      pop\n        /* \"#utility.yul\":5871:5875   */\n      dup1\n        /* \"#utility.yul\":5861:5869   */\n      dup7\n        /* \"#utility.yul\":5857:5876   */\n      and\n        /* \"#utility.yul\":5850:5855   */\n      dup5\n        /* \"#utility.yul\":5847:5877   */\n      or\n        /* \"#utility.yul\":5837:5877   */\n      swap3\n      pop\n        /* \"#utility.yul\":5566:5883   */\n      pop\n      pop\n        /* \"#utility.yul\":5490:5883   */\n      swap4\n      swap3\n      pop\n      pop\n      pop\n      jump\t// out\n        /* \"#utility.yul\":5889:5949   */\n    tag_57:\n        /* \"#utility.yul\":5917:5920   */\n      0x00\n        /* \"#utility.yul\":5938:5943   */\n      dup2\n        /* \"#utility.yul\":5931:5943   */\n      swap1\n      pop\n        /* \"#utility.yul\":5889:5949   */\n      swap2\n      swap1\n      pop\n      jump\t// out\n        /* \"#utility.yul\":5955:6097   */\n    tag_58:\n        /* \"#utility.yul\":6005:6014   */\n      0x00\n        /* \"#utility.yul\":6038:6091   */\n      tag_134\n        /* \"#utility.yul\":6056:6090   */\n      tag_135\n        /* \"#utility.yul\":6065:6089   */\n      tag_136\n        /* \"#utility.yul\":6083:6088   */\n      dup5\n        /* \"#utility.yul\":6065:6089   */\n      tag_50\n      jump\t// in\n    tag_136:\n        /* \"#utility.yul\":6056:6090   */\n      tag_57\n      jump\t// in\n    tag_135:\n        /* \"#utility.yul\":6038:6091   */\n      tag_50\n      jump\t// in\n    tag_134:\n        /* \"#utility.yul\":6025:6091   */\n      swap1\n      pop\n        /* \"#utility.yul\":5955:6097   */\n      swap2\n      swap1\n      pop\n      jump\t// out\n        /* \"#utility.yul\":6103:6178   */\n    tag_59:\n        /* \"#utility.yul\":6146:6149   */\n      0x00\n        /* \"#utility.yul\":6167:6172   */\n      dup2\n        /* \"#utility.yul\":6160:6172   */\n      swap1\n      pop\n        /* \"#utility.yul\":6103:6178   */\n      swap2\n      swap1\n      pop\n      jump\t// out\n        /* \"#utility.yul\":6184:6453   */\n    tag_60:\n        /* \"#utility.yul\":6294:6333   */\n      tag_139\n        /* \"#utility.yul\":6325:6332   */\n      dup4\n        /* \"#utility.yul\":6294:6333   */\n      tag_58\n      jump\t// in\n    tag_139:\n        /* \"#utility.yul\":6355:6446   */\n      tag_140\n        /* \"#utility.yul\":6404:6445   */\n      tag_141\n        /* \"#utility.yul\":6428:6444   */\n      dup3\n        /* \"#utility.yul\":6404:6445   */\n      tag_59\n      jump\t// in\n    tag_141:\n        /* \"#utility.yul\":6396:6402   */\n      dup5\n        /* \"#utility.yul\":6389:6393   */\n      dup5\n        /* \"#utility.yul\":6383:6394   */\n      sload\n        /* \"#utility.yul\":6355:6446   */\n      tag_56\n      jump\t// in\n    tag_140:\n        /* \"#utility.yul\":6349:6353   */\n      dup3\n        /* \"#utility.yul\":6342:6447   */\n      sstore\n        /* \"#utility.yul\":6260:6453   */\n      pop\n        /* \"#utility.yul\":6184:6453   */\n      pop\n      pop\n      pop\n      jump\t// out\n        /* \"#utility.yul\":6459:6532   */\n    tag_61:\n        /* \"#utility.yul\":6504:6507   */\n      0x00\n        /* \"#utility.yul\":6459:6532   */\n      swap1\n      jump\t// out\n        /* \"#utility.yul\":6538:6727   */\n    tag_62:\n        /* \"#utility.yul\":6615:6647   */\n      tag_144\n      tag_61\n      jump\t// in\n    tag_144:\n        /* \"#utility.yul\":6656:6721   */\n      tag_145\n        /* \"#utility.yul\":6714:6720   */\n      dup2\n        /* \"#utility.yul\":6706:6712   */\n      dup5\n        /* \"#utility.yul\":6700:6704   */\n      dup5\n        /* \"#utility.yul\":6656:6721   */\n      tag_60\n      jump\t// in\n    tag_145:\n        /* \"#utility.yul\":6591:6727   */\n      pop\n        /* \"#utility.yul\":6538:6727   */\n      pop\n      pop\n      jump\t// out\n        /* \"#utility.yul\":6733:6919   */\n    tag_63:\n        /* \"#utility.yul\":6793:6913   */\n    tag_147:\n        /* \"#utility.yul\":6810:6813   */\n      dup2\n        /* \"#utility.yul\":6803:6808   */\n      dup2\n        /* \"#utility.yul\":6800:6814   */\n      lt\n        /* \"#utility.yul\":6793:6913   */\n      iszero\n      tag_149\n      jumpi\n        /* \"#utility.yul\":6864:6903   */\n      tag_150\n        /* \"#utility.yul\":6901:6902   */\n      0x00\n        /* \"#utility.yul\":6894:6899   */\n      dup3\n        /* \"#utility.yul\":6864:6903   */\n      tag_62\n      jump\t// in\n    tag_150:\n        /* \"#utility.yul\":6837:6838   */\n      0x01\n        /* \"#utility.yul\":6830:6835   */\n      dup2\n        /* \"#utility.yul\":6826:6839   */\n      add\n        /* \"#utility.yul\":6817:6839   */\n      swap1\n      pop\n        /* \"#utility.yul\":6793:6913   */\n      jump(tag_147)\n    tag_149:\n        /* \"#utility.yul\":6733:6919   */\n      pop\n      pop\n      jump\t// out\n        /* \"#utility.yul\":6925:7468   */\n    tag_64:\n        /* \"#utility.yul\":7026:7028   */\n      0x1f\n        /* \"#utility.yul\":7021:7024   */\n      dup3\n        /* \"#utility.yul\":7018:7029   */\n      gt\n        /* \"#utility.yul\":7015:7461   */\n      iszero\n      tag_152\n      jumpi\n        /* \"#utility.yul\":7060:7098   */\n      tag_153\n        /* \"#utility.yul\":7092:7097   */\n      dup2\n        /* \"#utility.yul\":7060:7098   */\n      tag_53\n      jump\t// in\n    tag_153:\n        /* \"#utility.yul\":7144:7173   */\n      tag_154\n        /* \"#utility.yul\":7162:7172   */\n      dup5\n        /* \"#utility.yul\":7144:7173   */\n      tag_54\n      jump\t// in\n    tag_154:\n        /* \"#utility.yul\":7134:7142   */\n      dup2\n        /* \"#utility.yul\":7130:7174   */\n      add\n        /* \"#utility.yul\":7327:7329   */\n      0x20\n        /* \"#utility.yul\":7315:7325   */\n      dup6\n        /* \"#utility.yul\":7312:7330   */\n      lt\n        /* \"#utility.yul\":7309:7358   */\n      iszero\n      tag_155\n      jumpi\n        /* \"#utility.yul\":7348:7356   */\n      dup2\n        /* \"#utility.yul\":7333:7356   */\n      swap1\n      pop\n        /* \"#utility.yul\":7309:7358   */\n    tag_155:\n        /* \"#utility.yul\":7371:7451   */\n      tag_156\n        /* \"#utility.yul\":7427:7449   */\n      tag_157\n        /* \"#utility.yul\":7445:7448   */\n      dup6\n        /* \"#utility.yul\":7427:7449   */\n      tag_54\n      jump\t// in\n    tag_157:\n        /* \"#utility.yul\":7417:7425   */\n      dup4\n        /* \"#utility.yul\":7413:7450   */\n      add\n        /* \"#utility.yul\":7400:7411   */\n      dup3\n        /* \"#utility.yul\":7371:7451   */\n      tag_63\n      jump\t// in\n    tag_156:\n        /* \"#utility.yul\":7030:7461   */\n      pop\n      pop\n        /* \"#utility.yul\":7015:7461   */\n    tag_152:\n        /* \"#utility.yul\":6925:7468   */\n      pop\n      pop\n      pop\n      jump\t// out\n        /* \"#utility.yul\":7474:7591   */\n    tag_65:\n        /* \"#utility.yul\":7528:7536   */\n      0x00\n        /* \"#utility.yul\":7578:7583   */\n      dup3\n        /* \"#utility.yul\":7572:7576   */\n      dup3\n        /* \"#utility.yul\":7568:7584   */\n      shr\n        /* \"#utility.yul\":7547:7584   */\n      swap1\n      pop\n        /* \"#utility.yul\":7474:7591   */\n      swap3\n      swap2\n      pop\n      pop\n      jump\t// out\n        /* \"#utility.yul\":7597:7766   */\n    tag_66:\n        /* \"#utility.yul\":7641:7647   */\n      0x00\n        /* \"#utility.yul\":7674:7725   */\n      tag_160\n        /* \"#utility.yul\":7722:7723   */\n      0x00\n        /* \"#utility.yul\":7718:7724   */\n      not\n        /* \"#utility.yul\":7710:7715   */\n      dup5\n        /* \"#utility.yul\":7707:7708   */\n      0x08\n        /* \"#utility.yul\":7703:7716   */\n      mul\n        /* \"#utility.yul\":7674:7725   */\n      tag_65\n      jump\t// in\n    tag_160:\n        /* \"#utility.yul\":7670:7726   */\n      not\n        /* \"#utility.yul\":7755:7759   */\n      dup1\n        /* \"#utility.yul\":7749:7753   */\n      dup4\n        /* \"#utility.yul\":7745:7760   */\n      and\n        /* \"#utility.yul\":7735:7760   */\n      swap2\n      pop\n        /* \"#utility.yul\":7648:7766   */\n      pop\n        /* \"#utility.yul\":7597:7766   */\n      swap3\n      swap2\n      pop\n      pop\n      jump\t// out\n        /* \"#utility.yul\":7771:8066   */\n    tag_67:\n        /* \"#utility.yul\":7847:7851   */\n      0x00\n        /* \"#utility.yul\":7993:8022   */\n      tag_162\n        /* \"#utility.yul\":8018:8021   */\n      dup4\n        /* \"#utility.yul\":8012:8016   */\n      dup4\n        /* \"#utility.yul\":7993:8022   */\n      tag_66\n      jump\t// in\n    tag_162:\n        /* \"#utility.yul\":7985:8022   */\n      swap2\n      pop\n        /* \"#utility.yul\":8055:8058   */\n      dup3\n        /* \"#utility.yul\":8052:8053   */\n      0x02\n        /* \"#utility.yul\":8048:8059   */\n      mul\n        /* \"#utility.yul\":8042:8046   */\n      dup3\n        /* \"#utility.yul\":8039:8060   */\n      or\n        /* \"#utility.yul\":8031:8060   */\n      swap1\n      pop\n        /* \"#utility.yul\":7771:8066   */\n      swap3\n      swap2\n      pop\n      pop\n      jump\t// out\n        /* \"#utility.yul\":8071:9466   */\n    tag_18:\n        /* \"#utility.yul\":8188:8225   */\n      tag_164\n        /* \"#utility.yul\":8221:8224   */\n      dup3\n        /* \"#utility.yul\":8188:8225   */\n      tag_46\n      jump\t// in\n    tag_164:\n        /* \"#utility.yul\":8290:8308   */\n      0xffffffffffffffff\n        /* \"#utility.yul\":8282:8288   */\n      dup2\n        /* \"#utility.yul\":8279:8309   */\n      gt\n        /* \"#utility.yul\":8276:8332   */\n      iszero\n      tag_165\n      jumpi\n        /* \"#utility.yul\":8312:8330   */\n      tag_166\n      tag_39\n      jump\t// in\n    tag_166:\n        /* \"#utility.yul\":8276:8332   */\n    tag_165:\n        /* \"#utility.yul\":8356:8394   */\n      tag_167\n        /* \"#utility.yul\":8388:8392   */\n      dup3\n        /* \"#utility.yul\":8382:8393   */\n      sload\n        /* \"#utility.yul\":8356:8394   */\n      tag_23\n      jump\t// in\n    tag_167:\n        /* \"#utility.yul\":8441:8508   */\n      tag_168\n        /* \"#utility.yul\":8501:8507   */\n      dup3\n        /* \"#utility.yul\":8493:8499   */\n      dup3\n        /* \"#utility.yul\":8487:8491   */\n      dup6\n        /* \"#utility.yul\":8441:8508   */\n      tag_64\n      jump\t// in\n    tag_168:\n        /* \"#utility.yul\":8535:8536   */\n      0x00\n        /* \"#utility.yul\":8559:8563   */\n      0x20\n        /* \"#utility.yul\":8546:8563   */\n      swap1\n      pop\n        /* \"#utility.yul\":8591:8593   */\n      0x1f\n        /* \"#utility.yul\":8583:8589   */\n      dup4\n        /* \"#utility.yul\":8580:8594   */\n      gt\n        /* \"#utility.yul\":8608:8609   */\n      0x01\n        /* \"#utility.yul\":8603:9221   */\n      dup2\n      eq\n      tag_170\n      jumpi\n        /* \"#utility.yul\":9265:9266   */\n      0x00\n        /* \"#utility.yul\":9282:9288   */\n      dup5\n        /* \"#utility.yul\":9279:9356   */\n      iszero\n      tag_171\n      jumpi\n        /* \"#utility.yul\":9331:9340   */\n      dup3\n        /* \"#utility.yul\":9326:9329   */\n      dup8\n        /* \"#utility.yul\":9322:9341   */\n      add\n        /* \"#utility.yul\":9316:9342   */\n      mload\n        /* \"#utility.yul\":9307:9342   */\n      swap1\n      pop\n        /* \"#utility.yul\":9279:9356   */\n    tag_171:\n        /* \"#utility.yul\":9382:9449   */\n      tag_172\n        /* \"#utility.yul\":9442:9448   */\n      dup6\n        /* \"#utility.yul\":9435:9440   */\n      dup3\n        /* \"#utility.yul\":9382:9449   */\n      tag_67\n      jump\t// in\n    tag_172:\n        /* \"#utility.yul\":9376:9380   */\n      dup7\n        /* \"#utility.yul\":9369:9450   */\n      sstore\n        /* \"#utility.yul\":9238:9460   */\n      pop\n        /* \"#utility.yul\":8573:9460   */\n      jump(tag_169)\n        /* \"#utility.yul\":8603:9221   */\n    tag_170:\n        /* \"#utility.yul\":8655:8659   */\n      0x1f\n        /* \"#utility.yul\":8651:8660   */\n      not\n        /* \"#utility.yul\":8643:8649   */\n      dup5\n        /* \"#utility.yul\":8639:8661   */\n      and\n        /* \"#utility.yul\":8689:8726   */\n      tag_173\n        /* \"#utility.yul\":8721:8725   */\n      dup7\n        /* \"#utility.yul\":8689:8726   */\n      tag_53\n      jump\t// in\n    tag_173:\n        /* \"#utility.yul\":8748:8749   */\n      0x00\n        /* \"#utility.yul\":8762:8970   */\n    tag_174:\n        /* \"#utility.yul\":8776:8783   */\n      dup3\n        /* \"#utility.yul\":8773:8774   */\n      dup2\n        /* \"#utility.yul\":8770:8784   */\n      lt\n        /* \"#utility.yul\":8762:8970   */\n      iszero\n      tag_176\n      jumpi\n        /* \"#utility.yul\":8855:8864   */\n      dup5\n        /* \"#utility.yul\":8850:8853   */\n      dup10\n        /* \"#utility.yul\":8846:8865   */\n      add\n        /* \"#utility.yul\":8840:8866   */\n      mload\n        /* \"#utility.yul\":8832:8838   */\n      dup3\n        /* \"#utility.yul\":8825:8867   */\n      sstore\n        /* \"#utility.yul\":8906:8907   */\n      0x01\n        /* \"#utility.yul\":8898:8904   */\n      dup3\n        /* \"#utility.yul\":8894:8908   */\n      add\n        /* \"#utility.yul\":8884:8908   */\n      swap2\n      pop\n        /* \"#utility.yul\":8953:8955   */\n      0x20\n        /* \"#utility.yul\":8942:8951   */\n      dup6\n        /* \"#utility.yul\":8938:8956   */\n      add\n        /* \"#utility.yul\":8925:8956   */\n      swap5\n      pop\n        /* \"#utility.yul\":8799:8803   */\n      0x20\n        /* \"#utility.yul\":8796:8797   */\n      dup2\n        /* \"#utility.yul\":8792:8804   */\n      add\n        /* \"#utility.yul\":8787:8804   */\n      swap1\n      pop\n        /* \"#utility.yul\":8762:8970   */\n      jump(tag_174)\n    tag_176:\n        /* \"#utility.yul\":8998:9004   */\n      dup7\n        /* \"#utility.yul\":8989:8996   */\n      dup4\n        /* \"#utility.yul\":8986:9005   */\n      lt\n        /* \"#utility.yul\":8983:9162   */\n      iszero\n      tag_177\n      jumpi\n        /* \"#utility.yul\":9056:9065   */\n      dup5\n        /* \"#utility.yul\":9051:9054   */\n      dup10\n        /* \"#utility.yul\":9047:9066   */\n      add\n        /* \"#utility.yul\":9041:9067   */\n      mload\n        /* \"#utility.yul\":9099:9147   */\n      tag_178\n        /* \"#utility.yul\":9141:9145   */\n      0x1f\n        /* \"#utility.yul\":9133:9139   */\n      dup10\n        /* \"#utility.yul\":9129:9146   */\n      and\n        /* \"#utility.yul\":9118:9127   */\n      dup3\n        /* \"#utility.yul\":9099:9147   */\n      tag_66\n      jump\t// in\n    tag_178:\n        /* \"#utility.yul\":9091:9097   */\n      dup4\n        /* \"#utility.yul\":9084:9148   */\n      sstore\n        /* \"#utility.yul\":9006:9162   */\n      pop\n        /* \"#utility.yul\":8983:9162   */\n    tag_177:\n        /* \"#utility.yul\":9208:9209   */\n      0x01\n        /* \"#utility.yul\":9204:9205   */\n      0x02\n        /* \"#utility.yul\":9196:9202   */\n      dup9\n        /* \"#utility.yul\":9192:9206   */\n      mul\n        /* \"#utility.yul\":9188:9210   */\n      add\n        /* \"#utility.yul\":9182:9186   */\n      dup9\n        /* \"#utility.yul\":9175:9211   */\n      sstore\n        /* \"#utility.yul\":8610:9221   */\n      pop\n      pop\n      pop\n        /* \"#utility.yul\":8573:9460   */\n    tag_169:\n      pop\n        /* \"#utility.yul\":8163:9466   */\n      pop\n      pop\n      pop\n        /* \"#utility.yul\":8071:9466   */\n      pop\n      pop\n      jump\t// out\n\n    auxdata: 0xa264697066735822122055f4247a4e909514a4d1fe32ab6b57b57857f5cf3b8168a3dcf35a595ab662ea64736f6c63430008170033\n}\n",
				"bytecode": {
					"linkReferences": {},
					"object": "608060405234801561000f575f80fd5b506107578061001d5f395ff3fe608060405234801561000f575f80fd5b506004361061003f575f3560e01c80634af9263f146100435780635cf6f76f1461004d578063eae4c1ed14610069575b5f80fd5b61004b610088565b005b61006760048036038101906100629190610351565b6100ce565b005b6100716100e0565b60405161007f92919061042a565b60405180910390f35b6040518060400160405280600581526020017f48616c6f600000000000000000000000000000000000000000000000000000008152505f90816100cb9190610652565b50565b805f90816100dc9190610652565b5050565b60605f805f80546100f090610485565b80601f016020809104026020016040519081016040528092919081815260200182805461011c90610485565b80156101675780601f1061013e57610100808354040283529160200191610167565b820191905f5260205f20905b81548152906001019060200180831161014a57829003601f168201915b505050505090505f815181805461017d90610485565b80601f01602080910402602001604051908101604052809291908181526020018280546101a990610485565b80156101f45780601f106101cb576101008083540402835291602001916101f4565b820191905f5260205f20905b8154815290600101906020018083116101d757829003601f168201915b5050505050915092509250509091565b5f604051905090565b5f80fd5b5f80fd5b5f80fd5b5f80fd5b5f601f19601f8301169050919050565b7f4e487b71000000000000000000000000000000000000000000000000000000005f52604160045260245ffd5b6102638261021d565b810181811067ffffffffffffffff821117156102825761028161022d565b5b80604052505050565b5f610294610204565b90506102a0828261025a565b919050565b5f67ffffffffffffffff8211156102bf576102be61022d565b5b6102c88261021d565b9050602081019050919050565b828183375f83830152505050565b5f6102f56102f0846102a5565b61028b565b90508281526020810184848401111561031157610310610219565b5b61031c8482856102d5565b509392505050565b5f82601f83011261033857610337610215565b5b81356103488482602086016102e3565b91505092915050565b5f602082840312156103665761036561020d565b5b5f82013567ffffffffffffffff81111561038357610382610211565b5b61038f84828501610324565b91505092915050565b5f81519050919050565b5f82825260208201905092915050565b5f5b838110156103cf5780820151818401526020810190506103b4565b5f8484015250505050565b5f6103e482610398565b6103ee81856103a2565b93506103fe8185602086016103b2565b6104078161021d565b840191505092915050565b5f819050919050565b61042481610412565b82525050565b5f6040820190508181035f83015261044281856103da565b9050610451602083018461041b565b9392505050565b7f4e487b71000000000000000000000000000000000000000000000000000000005f52602260045260245ffd5b5f600282049050600182168061049c57607f821691505b6020821081036104af576104ae610458565b5b50919050565b5f819050815f5260205f209050919050565b5f6020601f8301049050919050565b5f82821b905092915050565b5f600883026105117fffffffffffffffffffffffffffffffffffffffffffffffffffffffffffffffff826104d6565b61051b86836104d6565b95508019841693508086168417925050509392505050565b5f819050919050565b5f61055661055161054c84610412565b610533565b610412565b9050919050565b5f819050919050565b61056f8361053c565b61058361057b8261055d565b8484546104e2565b825550505050565b5f90565b61059761058b565b6105a2818484610566565b505050565b5b818110156105c5576105ba5f8261058f565b6001810190506105a8565b5050565b601f82111561060a576105db816104b5565b6105e4846104c7565b810160208510156105f3578190505b6106076105ff856104c7565b8301826105a7565b50505b505050565b5f82821c905092915050565b5f61062a5f198460080261060f565b1980831691505092915050565b5f610642838361061b565b9150826002028217905092915050565b61065b82610398565b67ffffffffffffffff8111156106745761067361022d565b5b61067e8254610485565b6106898282856105c9565b5f60209050601f8311600181146106ba575f84156106a8578287015190505b6106b28582610637565b865550610719565b601f1984166106c8866104b5565b5f5b828110156106ef578489015182556001820191506020850194506020810190506106ca565b8683101561070c5784890151610708601f89168261061b565b8355505b6001600288020188555050505b50505050505056fea264697066735822122055f4247a4e909514a4d1fe32ab6b57b57857f5cf3b8168a3dcf35a595ab662ea64736f6c63430008170033",
					"opcodes": "PUSH1 0x80 PUSH1 0x40 MSTORE CALLVALUE DUP1 ISZERO PUSH2 0xF JUMPI PUSH0 DUP1 REVERT JUMPDEST POP PUSH2 0x757 DUP1 PUSH2 0x1D PUSH0 CODECOPY PUSH0 RETURN INVALID PUSH1 0x80 PUSH1 0x40 MSTORE CALLVALUE DUP1 ISZERO PUSH2 0xF JUMPI PUSH0 DUP1 REVERT JUMPDEST POP PUSH1 0x4 CALLDATASIZE LT PUSH2 0x3F JUMPI PUSH0 CALLDATALOAD PUSH1 0xE0 SHR DUP1 PUSH4 0x4AF9263F EQ PUSH2 0x43 JUMPI DUP1 PUSH4 0x5CF6F76F EQ PUSH2 0x4D JUMPI DUP1 PUSH4 0xEAE4C1ED EQ PUSH2 0x69 JUMPI JUMPDEST PUSH0 DUP1 REVERT JUMPDEST PUSH2 0x4B PUSH2 0x88 JUMP JUMPDEST STOP JUMPDEST PUSH2 0x67 PUSH1 0x4 DUP1 CALLDATASIZE SUB DUP2 ADD SWAP1 PUSH2 0x62 SWAP2 SWAP1 PUSH2 0x351 JUMP JUMPDEST PUSH2 0xCE JUMP JUMPDEST STOP JUMPDEST PUSH2 0x71 PUSH2 0xE0 JUMP JUMPDEST PUSH1 0x40 MLOAD PUSH2 0x7F SWAP3 SWAP2 SWAP1 PUSH2 0x42A JUMP JUMPDEST PUSH1 0x40 MLOAD DUP1 SWAP2 SUB SWAP1 RETURN JUMPDEST PUSH1 0x40 MLOAD DUP1 PUSH1 0x40 ADD PUSH1 0x40 MSTORE DUP1 PUSH1 0x5 DUP2 MSTORE PUSH1 0x20 ADD PUSH32 0x48616C6F60000000000000000000000000000000000000000000000000000000 DUP2 MSTORE POP PUSH0 SWAP1 DUP2 PUSH2 0xCB SWAP2 SWAP1 PUSH2 0x652 JUMP JUMPDEST POP JUMP JUMPDEST DUP1 PUSH0 SWAP1 DUP2 PUSH2 0xDC SWAP2 SWAP1 PUSH2 0x652 JUMP JUMPDEST POP POP JUMP JUMPDEST PUSH1 0x60 PUSH0 DUP1 PUSH0 DUP1 SLOAD PUSH2 0xF0 SWAP1 PUSH2 0x485 JUMP JUMPDEST DUP1 PUSH1 0x1F ADD PUSH1 0x20 DUP1 SWAP2 DIV MUL PUSH1 0x20 ADD PUSH1 0x40 MLOAD SWAP1 DUP2 ADD PUSH1 0x40 MSTORE DUP1 SWAP3 SWAP2 SWAP1 DUP2 DUP2 MSTORE PUSH1 0x20 ADD DUP3 DUP1 SLOAD PUSH2 0x11C SWAP1 PUSH2 0x485 JUMP JUMPDEST DUP1 ISZERO PUSH2 0x167 JUMPI DUP1 PUSH1 0x1F LT PUSH2 0x13E JUMPI PUSH2 0x100 DUP1 DUP4 SLOAD DIV MUL DUP4 MSTORE SWAP2 PUSH1 0x20 ADD SWAP2 PUSH2 0x167 JUMP JUMPDEST DUP3 ADD SWAP2 SWAP1 PUSH0 MSTORE PUSH1 0x20 PUSH0 KECCAK256 SWAP1 JUMPDEST DUP2 SLOAD DUP2 MSTORE SWAP1 PUSH1 0x1 ADD SWAP1 PUSH1 0x20 ADD DUP1 DUP4 GT PUSH2 0x14A JUMPI DUP3 SWAP1 SUB PUSH1 0x1F AND DUP3 ADD SWAP2 JUMPDEST POP POP POP POP POP SWAP1 POP PUSH0 DUP2 MLOAD DUP2 DUP1 SLOAD PUSH2 0x17D SWAP1 PUSH2 0x485 JUMP JUMPDEST DUP1 PUSH1 0x1F ADD PUSH1 0x20 DUP1 SWAP2 DIV MUL PUSH1 0x20 ADD PUSH1 0x40 MLOAD SWAP1 DUP2 ADD PUSH1 0x40 MSTORE DUP1 SWAP3 SWAP2 SWAP1 DUP2 DUP2 MSTORE PUSH1 0x20 ADD DUP3 DUP1 SLOAD PUSH2 0x1A9 SWAP1 PUSH2 0x485 JUMP JUMPDEST DUP1 ISZERO PUSH2 0x1F4 JUMPI DUP1 PUSH1 0x1F LT PUSH2 0x1CB JUMPI PUSH2 0x100 DUP1 DUP4 SLOAD DIV MUL DUP4 MSTORE SWAP2 PUSH1 0x20 ADD SWAP2 PUSH2 0x1F4 JUMP JUMPDEST DUP3 ADD SWAP2 SWAP1 PUSH0 MSTORE PUSH1 0x20 PUSH0 KECCAK256 SWAP1 JUMPDEST DUP2 SLOAD DUP2 MSTORE SWAP1 PUSH1 0x1 ADD SWAP1 PUSH1 0x20 ADD DUP1 DUP4 GT PUSH2 0x1D7 JUMPI DUP3 SWAP1 SUB PUSH1 0x1F AND DUP3 ADD SWAP2 JUMPDEST POP POP POP POP POP SWAP2 POP SWAP3 POP SWAP3 POP POP SWAP1 SWAP2 JUMP JUMPDEST PUSH0 PUSH1 0x40 MLOAD SWAP1 POP SWAP1 JUMP JUMPDEST PUSH0 DUP1 REVERT JUMPDEST PUSH0 DUP1 REVERT JUMPDEST PUSH0 DUP1 REVERT JUMPDEST PUSH0 DUP1 REVERT JUMPDEST PUSH0 PUSH1 0x1F NOT PUSH1 0x1F DUP4 ADD AND SWAP1 POP SWAP2 SWAP1 POP JUMP JUMPDEST PUSH32 0x4E487B7100000000000000000000000000000000000000000000000000000000 PUSH0 MSTORE PUSH1 0x41 PUSH1 0x4 MSTORE PUSH1 0x24 PUSH0 REVERT JUMPDEST PUSH2 0x263 DUP3 PUSH2 0x21D JUMP JUMPDEST DUP2 ADD DUP2 DUP2 LT PUSH8 0xFFFFFFFFFFFFFFFF DUP3 GT OR ISZERO PUSH2 0x282 JUMPI PUSH2 0x281 PUSH2 0x22D JUMP JUMPDEST JUMPDEST DUP1 PUSH1 0x40 MSTORE POP POP POP JUMP JUMPDEST PUSH0 PUSH2 0x294 PUSH2 0x204 JUMP JUMPDEST SWAP1 POP PUSH2 0x2A0 DUP3 DUP3 PUSH2 0x25A JUMP JUMPDEST SWAP2 SWAP1 POP JUMP JUMPDEST PUSH0 PUSH8 0xFFFFFFFFFFFFFFFF DUP3 GT ISZERO PUSH2 0x2BF JUMPI PUSH2 0x2BE PUSH2 0x22D JUMP JUMPDEST JUMPDEST PUSH2 0x2C8 DUP3 PUSH2 0x21D JUMP JUMPDEST SWAP1 POP PUSH1 0x20 DUP2 ADD SWAP1 POP SWAP2 SWAP1 POP JUMP JUMPDEST DUP3 DUP2 DUP4 CALLDATACOPY PUSH0 DUP4 DUP4 ADD MSTORE POP POP POP JUMP JUMPDEST PUSH0 PUSH2 0x2F5 PUSH2 0x2F0 DUP5 PUSH2 0x2A5 JUMP JUMPDEST PUSH2 0x28B JUMP JUMPDEST SWAP1 POP DUP3 DUP2 MSTORE PUSH1 0x20 DUP2 ADD DUP5 DUP5 DUP5 ADD GT ISZERO PUSH2 0x311 JUMPI PUSH2 0x310 PUSH2 0x219 JUMP JUMPDEST JUMPDEST PUSH2 0x31C DUP5 DUP3 DUP6 PUSH2 0x2D5 JUMP JUMPDEST POP SWAP4 SWAP3 POP POP POP JUMP JUMPDEST PUSH0 DUP3 PUSH1 0x1F DUP4 ADD SLT PUSH2 0x338 JUMPI PUSH2 0x337 PUSH2 0x215 JUMP JUMPDEST JUMPDEST DUP2 CALLDATALOAD PUSH2 0x348 DUP5 DUP3 PUSH1 0x20 DUP7 ADD PUSH2 0x2E3 JUMP JUMPDEST SWAP2 POP POP SWAP3 SWAP2 POP POP JUMP JUMPDEST PUSH0 PUSH1 0x20 DUP3 DUP5 SUB SLT ISZERO PUSH2 0x366 JUMPI PUSH2 0x365 PUSH2 0x20D JUMP JUMPDEST JUMPDEST PUSH0 DUP3 ADD CALLDATALOAD PUSH8 0xFFFFFFFFFFFFFFFF DUP2 GT ISZERO PUSH2 0x383 JUMPI PUSH2 0x382 PUSH2 0x211 JUMP JUMPDEST JUMPDEST PUSH2 0x38F DUP5 DUP3 DUP6 ADD PUSH2 0x324 JUMP JUMPDEST SWAP2 POP POP SWAP3 SWAP2 POP POP JUMP JUMPDEST PUSH0 DUP2 MLOAD SWAP1 POP SWAP2 SWAP1 POP JUMP JUMPDEST PUSH0 DUP3 DUP3 MSTORE PUSH1 0x20 DUP3 ADD SWAP1 POP SWAP3 SWAP2 POP POP JUMP JUMPDEST PUSH0 JUMPDEST DUP4 DUP2 LT ISZERO PUSH2 0x3CF JUMPI DUP1 DUP3 ADD MLOAD DUP2 DUP5 ADD MSTORE PUSH1 0x20 DUP2 ADD SWAP1 POP PUSH2 0x3B4 JUMP JUMPDEST PUSH0 DUP5 DUP5 ADD MSTORE POP POP POP POP JUMP JUMPDEST PUSH0 PUSH2 0x3E4 DUP3 PUSH2 0x398 JUMP JUMPDEST PUSH2 0x3EE DUP2 DUP6 PUSH2 0x3A2 JUMP JUMPDEST SWAP4 POP PUSH2 0x3FE DUP2 DUP6 PUSH1 0x20 DUP7 ADD PUSH2 0x3B2 JUMP JUMPDEST PUSH2 0x407 DUP2 PUSH2 0x21D JUMP JUMPDEST DUP5 ADD SWAP2 POP POP SWAP3 SWAP2 POP POP JUMP JUMPDEST PUSH0 DUP2 SWAP1 POP SWAP2 SWAP1 POP JUMP JUMPDEST PUSH2 0x424 DUP2 PUSH2 0x412 JUMP JUMPDEST DUP3 MSTORE POP POP JUMP JUMPDEST PUSH0 PUSH1 0x40 DUP3 ADD SWAP1 POP DUP2 DUP2 SUB PUSH0 DUP4 ADD MSTORE PUSH2 0x442 DUP2 DUP6 PUSH2 0x3DA JUMP JUMPDEST SWAP1 POP PUSH2 0x451 PUSH1 0x20 DUP4 ADD DUP5 PUSH2 0x41B JUMP JUMPDEST SWAP4 SWAP3 POP POP POP JUMP JUMPDEST PUSH32 0x4E487B7100000000000000000000000000000000000000000000000000000000 PUSH0 MSTORE PUSH1 0x22 PUSH1 0x4 MSTORE PUSH1 0x24 PUSH0 REVERT JUMPDEST PUSH0 PUSH1 0x2 DUP3 DIV SWAP1 POP PUSH1 0x1 DUP3 AND DUP1 PUSH2 0x49C JUMPI PUSH1 0x7F DUP3 AND SWAP2 POP JUMPDEST PUSH1 0x20 DUP3 LT DUP2 SUB PUSH2 0x4AF JUMPI PUSH2 0x4AE PUSH2 0x458 JUMP JUMPDEST JUMPDEST POP SWAP2 SWAP1 POP JUMP JUMPDEST PUSH0 DUP2 SWAP1 POP DUP2 PUSH0 MSTORE PUSH1 0x20 PUSH0 KECCAK256 SWAP1 POP SWAP2 SWAP1 POP JUMP JUMPDEST PUSH0 PUSH1 0x20 PUSH1 0x1F DUP4 ADD DIV SWAP1 POP SWAP2 SWAP1 POP JUMP JUMPDEST PUSH0 DUP3 DUP3 SHL SWAP1 POP SWAP3 SWAP2 POP POP JUMP JUMPDEST PUSH0 PUSH1 0x8 DUP4 MUL PUSH2 0x511 PUSH32 0xFFFFFFFFFFFFFFFFFFFFFFFFFFFFFFFFFFFFFFFFFFFFFFFFFFFFFFFFFFFFFFFF DUP3 PUSH2 0x4D6 JUMP JUMPDEST PUSH2 0x51B DUP7 DUP4 PUSH2 0x4D6 JUMP JUMPDEST SWAP6 POP DUP1 NOT DUP5 AND SWAP4 POP DUP1 DUP7 AND DUP5 OR SWAP3 POP POP POP SWAP4 SWAP3 POP POP POP JUMP JUMPDEST PUSH0 DUP2 SWAP1 POP SWAP2 SWAP1 POP JUMP JUMPDEST PUSH0 PUSH2 0x556 PUSH2 0x551 PUSH2 0x54C DUP5 PUSH2 0x412 JUMP JUMPDEST PUSH2 0x533 JUMP JUMPDEST PUSH2 0x412 JUMP JUMPDEST SWAP1 POP SWAP2 SWAP1 POP JUMP JUMPDEST PUSH0 DUP2 SWAP1 POP SWAP2 SWAP1 POP JUMP JUMPDEST PUSH2 0x56F DUP4 PUSH2 0x53C JUMP JUMPDEST PUSH2 0x583 PUSH2 0x57B DUP3 PUSH2 0x55D JUMP JUMPDEST DUP5 DUP5 SLOAD PUSH2 0x4E2 JUMP JUMPDEST DUP3 SSTORE POP POP POP POP JUMP JUMPDEST PUSH0 SWAP1 JUMP JUMPDEST PUSH2 0x597 PUSH2 0x58B JUMP JUMPDEST PUSH2 0x5A2 DUP2 DUP5 DUP5 PUSH2 0x566 JUMP JUMPDEST POP POP POP JUMP JUMPDEST JUMPDEST DUP2 DUP2 LT ISZERO PUSH2 0x5C5 JUMPI PUSH2 0x5BA PUSH0 DUP3 PUSH2 0x58F JUMP JUMPDEST PUSH1 0x1 DUP2 ADD SWAP1 POP PUSH2 0x5A8 JUMP JUMPDEST POP POP JUMP JUMPDEST PUSH1 0x1F DUP3 GT ISZERO PUSH2 0x60A JUMPI PUSH2 0x5DB DUP2 PUSH2 0x4B5 JUMP JUMPDEST PUSH2 0x5E4 DUP5 PUSH2 0x4C7 JUMP JUMPDEST DUP2 ADD PUSH1 0x20 DUP6 LT ISZERO PUSH2 0x5F3 JUMPI DUP2 SWAP1 POP JUMPDEST PUSH2 0x607 PUSH2 0x5FF DUP6 PUSH2 0x4C7 JUMP JUMPDEST DUP4 ADD DUP3 PUSH2 0x5A7 JUMP JUMPDEST POP POP JUMPDEST POP POP POP JUMP JUMPDEST PUSH0 DUP3 DUP3 SHR SWAP1 POP SWAP3 SWAP2 POP POP JUMP JUMPDEST PUSH0 PUSH2 0x62A PUSH0 NOT DUP5 PUSH1 0x8 MUL PUSH2 0x60F JUMP JUMPDEST NOT DUP1 DUP4 AND SWAP2 POP POP SWAP3 SWAP2 POP POP JUMP JUMPDEST PUSH0 PUSH2 0x642 DUP4 DUP4 PUSH2 0x61B JUMP JUMPDEST SWAP2 POP DUP3 PUSH1 0x2 MUL DUP3 OR SWAP1 POP SWAP3 SWAP2 POP POP JUMP JUMPDEST PUSH2 0x65B DUP3 PUSH2 0x398 JUMP JUMPDEST PUSH8 0xFFFFFFFFFFFFFFFF DUP2 GT ISZERO PUSH2 0x674 JUMPI PUSH2 0x673 PUSH2 0x22D JUMP JUMPDEST JUMPDEST PUSH2 0x67E DUP3 SLOAD PUSH2 0x485 JUMP JUMPDEST PUSH2 0x689 DUP3 DUP3 DUP6 PUSH2 0x5C9 JUMP JUMPDEST PUSH0 PUSH1 0x20 SWAP1 POP PUSH1 0x1F DUP4 GT PUSH1 0x1 DUP2 EQ PUSH2 0x6BA JUMPI PUSH0 DUP5 ISZERO PUSH2 0x6A8 JUMPI DUP3 DUP8 ADD MLOAD SWAP1 POP JUMPDEST PUSH2 0x6B2 DUP6 DUP3 PUSH2 0x637 JUMP JUMPDEST DUP7 SSTORE POP PUSH2 0x719 JUMP JUMPDEST PUSH1 0x1F NOT DUP5 AND PUSH2 0x6C8 DUP7 PUSH2 0x4B5 JUMP JUMPDEST PUSH0 JUMPDEST DUP3 DUP2 LT ISZERO PUSH2 0x6EF JUMPI DUP5 DUP10 ADD MLOAD DUP3 SSTORE PUSH1 0x1 DUP3 ADD SWAP2 POP PUSH1 0x20 DUP6 ADD SWAP5 POP PUSH1 0x20 DUP2 ADD SWAP1 POP PUSH2 0x6CA JUMP JUMPDEST DUP7 DUP4 LT ISZERO PUSH2 0x70C JUMPI DUP5 DUP10 ADD MLOAD PUSH2 0x708 PUSH1 0x1F DUP10 AND DUP3 PUSH2 0x61B JUMP JUMPDEST DUP4 SSTORE POP JUMPDEST PUSH1 0x1 PUSH1 0x2 DUP9 MUL ADD DUP9 SSTORE POP POP POP JUMPDEST POP POP POP POP POP POP JUMP INVALID LOG2 PUSH5 0x6970667358 0x22 SLT KECCAK256 SSTORE DELEGATECALL 0x24 PUSH27 0x4E909514A4D1FE32AB6B57B57857F5CF3B8168A3DCF35A595AB662 0xEA PUSH5 0x736F6C6343 STOP ADDMOD OR STOP CALLER "
				},
				"gasEstimates": {
					"creation": {
						"codeDepositCost": "375800",
						"executionCost": "409",
						"totalCost": "376209"
					},
					"external": {
						"mytext()": "infinite",
						"showtext()": "infinite",
						"textByPassing(string)": "infinite"
					}
				},
				"methodIdentifiers": {
					"mytext()": "4af9263f",
					"showtext()": "eae4c1ed",
					"textByPassing(string)": "5cf6f76f"
				}
			},
			"storageLayout": {
				"storage": [
					{
						"astId": 3,
						"contract": "contracts/Strings.sol:strings",
						"label": "text",
						"offset": 0,
						"slot": "0",
						"type": "t_string_storage"
					}
				],
				"types": {
					"t_string_storage": {
						"encoding": "bytes",
						"label": "string",
						"numberOfBytes": "32"
					}
				}
			},
			"userdoc": {
				"kind": "user",
				"methods": {},
				"version": 1
			}
		}
	}
}