{
	"contracts/Loops.sol": {
		"Loops": {
			"abi": [
				{
					"inputs": [],
					"name": "doWhileLoop",
					"outputs": [
						{
							"internalType": "uint256",
							"name": "",
							"type": "uint256"
						}
					],
					"stateMutability": "pure",
					"type": "function"
				},
				{
					"inputs": [],
					"name": "forLoop",
					"outputs": [
						{
							"internalType": "uint256",
							"name": "",
							"type": "uint256"
						}
					],
					"stateMutability": "pure",
					"type": "function"
				},
				{
					"inputs": [],
					"name": "whileLoop",
					"outputs": [
						{
							"internalType": "uint256",
							"name": "",
							"type": "uint256"
						}
					],
					"stateMutability": "pure",
					"type": "function"
				}
			],
			"devdoc": {
				"kind": "dev",
				"methods": {},
				"version": 1
			},
			"evm": {
				"assembly": "    /* \"contracts/Loops.sol\":70:786  contract Loops{... */\n  mstore(0x40, 0x80)\n  callvalue\n  dup1\n  iszero\n  tag_1\n  jumpi\n  0x00\n  dup1\n  revert\ntag_1:\n  pop\n  dataSize(sub_0)\n  dup1\n  dataOffset(sub_0)\n  0x00\n  codecopy\n  0x00\n  return\nstop\n\nsub_0: assembly {\n        /* \"contracts/Loops.sol\":70:786  contract Loops{... */\n      mstore(0x40, 0x80)\n      callvalue\n      dup1\n      iszero\n      tag_1\n      jumpi\n      0x00\n      dup1\n      revert\n    tag_1:\n      pop\n      jumpi(tag_2, lt(calldatasize, 0x04))\n      shr(0xe0, calldataload(0x00))\n      dup1\n      0x174c9c7e\n      eq\n      tag_3\n      jumpi\n      dup1\n      0xe7c898ef\n      eq\n      tag_4\n      jumpi\n      dup1\n      0xfc0e6008\n      eq\n      tag_5\n      jumpi\n    tag_2:\n      0x00\n      dup1\n      revert\n        /* \"contracts/Loops.sol\":560:781  function doWhileLoop()public pure returns(uint) {... */\n    tag_3:\n      tag_6\n      tag_7\n      jump\t// in\n    tag_6:\n      mload(0x40)\n      tag_8\n      swap2\n      swap1\n      tag_9\n      jump\t// in\n    tag_8:\n      mload(0x40)\n      dup1\n      swap2\n      sub\n      swap1\n      return\n        /* \"contracts/Loops.sol\":166:372  function whileLoop() public pure returns(uint){... */\n    tag_4:\n      tag_10\n      tag_11\n      jump\t// in\n    tag_10:\n      mload(0x40)\n      tag_12\n      swap2\n      swap1\n      tag_9\n      jump\t// in\n    tag_12:\n      mload(0x40)\n      dup1\n      swap2\n      sub\n      swap1\n      return\n        /* \"contracts/Loops.sol\":380:552  function forLoop()public pure returns(uint){... */\n    tag_5:\n      tag_13\n      tag_14\n      jump\t// in\n    tag_13:\n      mload(0x40)\n      tag_15\n      swap2\n      swap1\n      tag_9\n      jump\t// in\n    tag_15:\n      mload(0x40)\n      dup1\n      swap2\n      sub\n      swap1\n      return\n        /* \"contracts/Loops.sol\":560:781  function doWhileLoop()public pure returns(uint) {... */\n    tag_7:\n        /* \"contracts/Loops.sol\":602:606  uint */\n      0x00\n        /* \"contracts/Loops.sol\":619:627  uint sum */\n      dup1\n        /* \"contracts/Loops.sol\":638:648  uint count */\n      0x00\n        /* \"contracts/Loops.sol\":659:747  do {... */\n    tag_17:\n        /* \"contracts/Loops.sol\":682:687  count */\n      dup1\n        /* \"contracts/Loops.sol\":677:687  sum+=count */\n      dup3\n      tag_20\n      swap2\n      swap1\n      tag_21\n      jump\t// in\n    tag_20:\n      swap2\n      pop\n        /* \"contracts/Loops.sol\":709:710  1 */\n      0x01\n        /* \"contracts/Loops.sol\":702:710  count+=1 */\n      dup2\n      tag_22\n      swap2\n      swap1\n      tag_21\n      jump\t// in\n    tag_22:\n      swap1\n      pop\n        /* \"contracts/Loops.sol\":744:745  5 */\n      0x05\n        /* \"contracts/Loops.sol\":738:743  count */\n      dup2\n        /* \"contracts/Loops.sol\":738:745  count<5 */\n      lt\n        /* \"contracts/Loops.sol\":659:747  do {... */\n      tag_17\n      jumpi\n        /* \"contracts/Loops.sol\":768:771  sum */\n      dup2\n        /* \"contracts/Loops.sol\":761:771  return sum */\n      swap3\n      pop\n      pop\n      pop\n        /* \"contracts/Loops.sol\":560:781  function doWhileLoop()public pure returns(uint) {... */\n      swap1\n      jump\t// out\n        /* \"contracts/Loops.sol\":166:372  function whileLoop() public pure returns(uint){... */\n    tag_11:\n        /* \"contracts/Loops.sol\":207:211  uint */\n      0x00\n        /* \"contracts/Loops.sol\":223:231  uint age */\n      dup1\n        /* \"contracts/Loops.sol\":242:251  uint year */\n      0x00\n        /* \"contracts/Loops.sol\":254:258  2004 */\n      0x07d4\n        /* \"contracts/Loops.sol\":242:258  uint year = 2004 */\n      swap1\n      pop\n        /* \"contracts/Loops.sol\":269:344  while (year < 2050) {... */\n    tag_24:\n        /* \"contracts/Loops.sol\":283:287  2050 */\n      0x0802\n        /* \"contracts/Loops.sol\":276:280  year */\n      dup2\n        /* \"contracts/Loops.sol\":276:287  year < 2050 */\n      lt\n        /* \"contracts/Loops.sol\":269:344  while (year < 2050) {... */\n      iszero\n      tag_25\n      jumpi\n        /* \"contracts/Loops.sol\":310:311  1 */\n      0x01\n        /* \"contracts/Loops.sol\":304:311  year+=1 */\n      dup2\n      tag_26\n      swap2\n      swap1\n      tag_21\n      jump\t// in\n    tag_26:\n      swap1\n      pop\n        /* \"contracts/Loops.sol\":331:332  1 */\n      0x01\n        /* \"contracts/Loops.sol\":326:332  age+=1 */\n      dup3\n      tag_27\n      swap2\n      swap1\n      tag_21\n      jump\t// in\n    tag_27:\n      swap2\n      pop\n        /* \"contracts/Loops.sol\":269:344  while (year < 2050) {... */\n      jump(tag_24)\n    tag_25:\n        /* \"contracts/Loops.sol\":361:364  age */\n      dup2\n        /* \"contracts/Loops.sol\":354:364  return age */\n      swap3\n      pop\n      pop\n      pop\n        /* \"contracts/Loops.sol\":166:372  function whileLoop() public pure returns(uint){... */\n      swap1\n      jump\t// out\n        /* \"contracts/Loops.sol\":380:552  function forLoop()public pure returns(uint){... */\n    tag_14:\n        /* \"contracts/Loops.sol\":418:422  uint */\n      0x00\n        /* \"contracts/Loops.sol\":434:442  uint sum */\n      dup1\n        /* \"contracts/Loops.sol\":457:467  uint count */\n      0x00\n        /* \"contracts/Loops.sol\":453:524  for(uint count=0;count<5;count++) {... */\n    tag_29:\n        /* \"contracts/Loops.sol\":476:477  5 */\n      0x05\n        /* \"contracts/Loops.sol\":470:475  count */\n      dup2\n        /* \"contracts/Loops.sol\":470:477  count<5 */\n      lt\n        /* \"contracts/Loops.sol\":453:524  for(uint count=0;count<5;count++) {... */\n      iszero\n      tag_30\n      jumpi\n        /* \"contracts/Loops.sol\":507:512  count */\n      dup1\n        /* \"contracts/Loops.sol\":502:512  sum+=count */\n      dup3\n      tag_32\n      swap2\n      swap1\n      tag_21\n      jump\t// in\n    tag_32:\n      swap2\n      pop\n        /* \"contracts/Loops.sol\":478:485  count++ */\n      dup1\n      dup1\n      0x01\n      add\n      swap2\n      pop\n      pop\n        /* \"contracts/Loops.sol\":453:524  for(uint count=0;count<5;count++) {... */\n      jump(tag_29)\n    tag_30:\n      pop\n        /* \"contracts/Loops.sol\":541:544  sum */\n      dup1\n        /* \"contracts/Loops.sol\":534:544  return sum */\n      swap2\n      pop\n      pop\n        /* \"contracts/Loops.sol\":380:552  function forLoop()public pure returns(uint){... */\n      swap1\n      jump\t// out\n        /* \"#utility.yul\":7:84   */\n    tag_33:\n        /* \"#utility.yul\":44:51   */\n      0x00\n        /* \"#utility.yul\":73:78   */\n      dup2\n        /* \"#utility.yul\":62:78   */\n      swap1\n      pop\n        /* \"#utility.yul\":7:84   */\n      swap2\n      swap1\n      pop\n      jump\t// out\n        /* \"#utility.yul\":90:208   */\n    tag_34:\n        /* \"#utility.yul\":177:201   */\n      tag_39\n        /* \"#utility.yul\":195:200   */\n      dup2\n        /* \"#utility.yul\":177:201   */\n      tag_33\n      jump\t// in\n    tag_39:\n        /* \"#utility.yul\":172:175   */\n      dup3\n        /* \"#utility.yul\":165:202   */\n      mstore\n        /* \"#utility.yul\":90:208   */\n      pop\n      pop\n      jump\t// out\n        /* \"#utility.yul\":214:436   */\n    tag_9:\n        /* \"#utility.yul\":307:311   */\n      0x00\n        /* \"#utility.yul\":345:347   */\n      0x20\n        /* \"#utility.yul\":334:343   */\n      dup3\n        /* \"#utility.yul\":330:348   */\n      add\n        /* \"#utility.yul\":322:348   */\n      swap1\n      pop\n        /* \"#utility.yul\":358:429   */\n      tag_41\n        /* \"#utility.yul\":426:427   */\n      0x00\n        /* \"#utility.yul\":415:424   */\n      dup4\n        /* \"#utility.yul\":411:428   */\n      add\n        /* \"#utility.yul\":402:408   */\n      dup5\n        /* \"#utility.yul\":358:429   */\n      tag_34\n      jump\t// in\n    tag_41:\n        /* \"#utility.yul\":214:436   */\n      swap3\n      swap2\n      pop\n      pop\n      jump\t// out\n        /* \"#utility.yul\":442:622   */\n    tag_35:\n        /* \"#utility.yul\":490:567   */\n      0x4e487b7100000000000000000000000000000000000000000000000000000000\n        /* \"#utility.yul\":487:488   */\n      0x00\n        /* \"#utility.yul\":480:568   */\n      mstore\n        /* \"#utility.yul\":587:591   */\n      0x11\n        /* \"#utility.yul\":584:585   */\n      0x04\n        /* \"#utility.yul\":577:592   */\n      mstore\n        /* \"#utility.yul\":611:615   */\n      0x24\n        /* \"#utility.yul\":608:609   */\n      0x00\n        /* \"#utility.yul\":601:616   */\n      revert\n        /* \"#utility.yul\":628:819   */\n    tag_21:\n        /* \"#utility.yul\":668:671   */\n      0x00\n        /* \"#utility.yul\":687:707   */\n      tag_44\n        /* \"#utility.yul\":705:706   */\n      dup3\n        /* \"#utility.yul\":687:707   */\n      tag_33\n      jump\t// in\n    tag_44:\n        /* \"#utility.yul\":682:707   */\n      swap2\n      pop\n        /* \"#utility.yul\":721:741   */\n      tag_45\n        /* \"#utility.yul\":739:740   */\n      dup4\n        /* \"#utility.yul\":721:741   */\n      tag_33\n      jump\t// in\n    tag_45:\n        /* \"#utility.yul\":716:741   */\n      swap3\n      pop\n        /* \"#utility.yul\":764:765   */\n      dup3\n        /* \"#utility.yul\":761:762   */\n      dup3\n        /* \"#utility.yul\":757:766   */\n      add\n        /* \"#utility.yul\":750:766   */\n      swap1\n      pop\n        /* \"#utility.yul\":785:788   */\n      dup1\n        /* \"#utility.yul\":782:783   */\n      dup3\n        /* \"#utility.yul\":779:789   */\n      gt\n        /* \"#utility.yul\":776:812   */\n      iszero\n      tag_46\n      jumpi\n        /* \"#utility.yul\":792:810   */\n      tag_47\n      tag_35\n      jump\t// in\n    tag_47:\n        /* \"#utility.yul\":776:812   */\n    tag_46:\n        /* \"#utility.yul\":628:819   */\n      swap3\n      swap2\n      pop\n      pop\n      jump\t// out\n\n    auxdata: 0xa2646970667358221220f48c592d61c9726ec8651fd0310c7697caf05e6b69a9fbb99f36d6fc2fc2d13864736f6c63430008170033\n}\n",
				"bytecode": {
					"linkReferences": {},
					"object": "608060405234801561000f575f80fd5b506102038061001d5f395ff3fe608060405234801561000f575f80fd5b506004361061003f575f3560e01c8063174c9c7e14610043578063e7c898ef14610061578063fc0e60081461007f575b5f80fd5b61004b61009d565b6040516100589190610154565b60405180910390f35b6100696100ce565b6040516100769190610154565b60405180910390f35b61008761010c565b6040516100949190610154565b60405180910390f35b5f805f5b80826100ad919061019a565b91506001816100bc919061019a565b9050600581106100a157819250505090565b5f805f6107d490505b610802811015610104576001816100ee919061019a565b90506001826100fd919061019a565b91506100d7565b819250505090565b5f805f5b6005811015610134578082610125919061019a565b91508080600101915050610110565b508091505090565b5f819050919050565b61014e8161013c565b82525050565b5f6020820190506101675f830184610145565b92915050565b7f4e487b71000000000000000000000000000000000000000000000000000000005f52601160045260245ffd5b5f6101a48261013c565b91506101af8361013c565b92508282019050808211156101c7576101c661016d565b5b9291505056fea2646970667358221220f48c592d61c9726ec8651fd0310c7697caf05e6b69a9fbb99f36d6fc2fc2d13864736f6c63430008170033",
					"opcodes": "PUSH1 0x80 PUSH1 0x40 MSTORE CALLVALUE DUP1 ISZERO PUSH2 0xF JUMPI PUSH0 DUP1 REVERT JUMPDEST POP PUSH2 0x203 DUP1 PUSH2 0x1D PUSH0 CODECOPY PUSH0 RETURN INVALID PUSH1 0x80 PUSH1 0x40 MSTORE CALLVALUE DUP1 ISZERO PUSH2 0xF JUMPI PUSH0 DUP1 REVERT JUMPDEST POP PUSH1 0x4 CALLDATASIZE LT PUSH2 0x3F JUMPI PUSH0 CALLDATALOAD PUSH1 0xE0 SHR DUP1 PUSH4 0x174C9C7E EQ PUSH2 0x43 JUMPI DUP1 PUSH4 0xE7C898EF EQ PUSH2 0x61 JUMPI DUP1 PUSH4 0xFC0E6008 EQ PUSH2 0x7F JUMPI JUMPDEST PUSH0 DUP1 REVERT JUMPDEST PUSH2 0x4B PUSH2 0x9D JUMP JUMPDEST PUSH1 0x40 MLOAD PUSH2 0x58 SWAP2 SWAP1 PUSH2 0x154 JUMP JUMPDEST PUSH1 0x40 MLOAD DUP1 SWAP2 SUB SWAP1 RETURN JUMPDEST PUSH2 0x69 PUSH2 0xCE JUMP JUMPDEST PUSH1 0x40 MLOAD PUSH2 0x76 SWAP2 SWAP1 PUSH2 0x154 JUMP JUMPDEST PUSH1 0x40 MLOAD DUP1 SWAP2 SUB SWAP1 RETURN JUMPDEST PUSH2 0x87 PUSH2 0x10C JUMP JUMPDEST PUSH1 0x40 MLOAD PUSH2 0x94 SWAP2 SWAP1 PUSH2 0x154 JUMP JUMPDEST PUSH1 0x40 MLOAD DUP1 SWAP2 SUB SWAP1 RETURN JUMPDEST PUSH0 DUP1 PUSH0 JUMPDEST DUP1 DUP3 PUSH2 0xAD SWAP2 SWAP1 PUSH2 0x19A JUMP JUMPDEST SWAP2 POP PUSH1 0x1 DUP2 PUSH2 0xBC SWAP2 SWAP1 PUSH2 0x19A JUMP JUMPDEST SWAP1 POP PUSH1 0x5 DUP2 LT PUSH2 0xA1 JUMPI DUP2 SWAP3 POP POP POP SWAP1 JUMP JUMPDEST PUSH0 DUP1 PUSH0 PUSH2 0x7D4 SWAP1 POP JUMPDEST PUSH2 0x802 DUP2 LT ISZERO PUSH2 0x104 JUMPI PUSH1 0x1 DUP2 PUSH2 0xEE SWAP2 SWAP1 PUSH2 0x19A JUMP JUMPDEST SWAP1 POP PUSH1 0x1 DUP3 PUSH2 0xFD SWAP2 SWAP1 PUSH2 0x19A JUMP JUMPDEST SWAP2 POP PUSH2 0xD7 JUMP JUMPDEST DUP2 SWAP3 POP POP POP SWAP1 JUMP JUMPDEST PUSH0 DUP1 PUSH0 JUMPDEST PUSH1 0x5 DUP2 LT ISZERO PUSH2 0x134 JUMPI DUP1 DUP3 PUSH2 0x125 SWAP2 SWAP1 PUSH2 0x19A JUMP JUMPDEST SWAP2 POP DUP1 DUP1 PUSH1 0x1 ADD SWAP2 POP POP PUSH2 0x110 JUMP JUMPDEST POP DUP1 SWAP2 POP POP SWAP1 JUMP JUMPDEST PUSH0 DUP2 SWAP1 POP SWAP2 SWAP1 POP JUMP JUMPDEST PUSH2 0x14E DUP2 PUSH2 0x13C JUMP JUMPDEST DUP3 MSTORE POP POP JUMP JUMPDEST PUSH0 PUSH1 0x20 DUP3 ADD SWAP1 POP PUSH2 0x167 PUSH0 DUP4 ADD DUP5 PUSH2 0x145 JUMP JUMPDEST SWAP3 SWAP2 POP POP JUMP JUMPDEST PUSH32 0x4E487B7100000000000000000000000000000000000000000000000000000000 PUSH0 MSTORE PUSH1 0x11 PUSH1 0x4 MSTORE PUSH1 0x24 PUSH0 REVERT JUMPDEST PUSH0 PUSH2 0x1A4 DUP3 PUSH2 0x13C JUMP JUMPDEST SWAP2 POP PUSH2 0x1AF DUP4 PUSH2 0x13C JUMP JUMPDEST SWAP3 POP DUP3 DUP3 ADD SWAP1 POP DUP1 DUP3 GT ISZERO PUSH2 0x1C7 JUMPI PUSH2 0x1C6 PUSH2 0x16D JUMP JUMPDEST JUMPDEST SWAP3 SWAP2 POP POP JUMP INVALID LOG2 PUSH5 0x6970667358 0x22 SLT KECCAK256 DELEGATECALL DUP13 MSIZE 0x2D PUSH2 0xC972 PUSH15 0xC8651FD0310C7697CAF05E6B69A9FB 0xB9 SWAP16 CALLDATASIZE 0xD6 0xFC 0x2F 0xC2 0xD1 CODESIZE PUSH5 0x736F6C6343 STOP ADDMOD OR STOP CALLER "
				},
				"gasEstimates": {
					"creation": {
						"codeDepositCost": "103000",
						"executionCost": "151",
						"totalCost": "103151"
					},
					"external": {
						"doWhileLoop()": "infinite",
						"forLoop()": "infinite",
						"whileLoop()": "infinite"
					}
				},
				"methodIdentifiers": {
					"doWhileLoop()": "174c9c7e",
					"forLoop()": "fc0e6008",
					"whileLoop()": "e7c898ef"
				}
			},
			"storageLayout": {
				"storage": [],
				"types": null
			},
			"userdoc": {
				"kind": "user",
				"methods": {},
				"version": 1
			}
		}
	}
}