{
	"contracts/Basics_Conditional.sol": {
		"requireStatement": {
			"abi": [
				{
					"inputs": [
						{
							"internalType": "uint256",
							"name": "a",
							"type": "uint256"
						}
					],
					"name": "isZero",
					"outputs": [
						{
							"internalType": "bool",
							"name": "",
							"type": "bool"
						}
					],
					"stateMutability": "pure",
					"type": "function"
				},
				{
					"inputs": [
						{
							"internalType": "uint256",
							"name": "b",
							"type": "uint256"
						}
					],
					"name": "revertStatement",
					"outputs": [
						{
							"internalType": "bool",
							"name": "",
							"type": "bool"
						}
					],
					"stateMutability": "pure",
					"type": "function"
				}
			],
			"devdoc": {
				"kind": "dev",
				"methods": {},
				"version": 1
			},
			"evm": {
				"assembly": "    /* \"contracts/Basics_Conditional.sol\":832:1281  contract requireStatement {... */\n  mstore(0x40, 0x80)\n  callvalue\n  dup1\n  iszero\n  tag_1\n  jumpi\n  0x00\n  dup1\n  revert\ntag_1:\n  pop\n  dataSize(sub_0)\n  dup1\n  dataOffset(sub_0)\n  0x00\n  codecopy\n  0x00\n  return\nstop\n\nsub_0: assembly {\n        /* \"contracts/Basics_Conditional.sol\":832:1281  contract requireStatement {... */\n      mstore(0x40, 0x80)\n      callvalue\n      dup1\n      iszero\n      tag_1\n      jumpi\n      0x00\n      dup1\n      revert\n    tag_1:\n      pop\n      jumpi(tag_2, lt(calldatasize, 0x04))\n      shr(0xe0, calldataload(0x00))\n      dup1\n      0x77bfb28d\n      eq\n      tag_3\n      jumpi\n      dup1\n      0x7a38f9eb\n      eq\n      tag_4\n      jumpi\n    tag_2:\n      0x00\n      dup1\n      revert\n        /* \"contracts/Basics_Conditional.sol\":1000:1276  function revertStatement(uint b) public pure returns (bool) {... */\n    tag_3:\n      tag_5\n      0x04\n      dup1\n      calldatasize\n      sub\n      dup2\n      add\n      swap1\n      tag_6\n      swap2\n      swap1\n      tag_7\n      jump\t// in\n    tag_6:\n      tag_8\n      jump\t// in\n    tag_5:\n      mload(0x40)\n      tag_9\n      swap2\n      swap1\n      tag_10\n      jump\t// in\n    tag_9:\n      mload(0x40)\n      dup1\n      swap2\n      sub\n      swap1\n      return\n        /* \"contracts/Basics_Conditional.sol\":865:993  function isZero(uint a)public pure returns(bool) {... */\n    tag_4:\n      tag_11\n      0x04\n      dup1\n      calldatasize\n      sub\n      dup2\n      add\n      swap1\n      tag_12\n      swap2\n      swap1\n      tag_7\n      jump\t// in\n    tag_12:\n      tag_13\n      jump\t// in\n    tag_11:\n      mload(0x40)\n      tag_14\n      swap2\n      swap1\n      tag_10\n      jump\t// in\n    tag_14:\n      mload(0x40)\n      dup1\n      swap2\n      sub\n      swap1\n      return\n        /* \"contracts/Basics_Conditional.sol\":1000:1276  function revertStatement(uint b) public pure returns (bool) {... */\n    tag_8:\n        /* \"contracts/Basics_Conditional.sol\":1054:1058  bool */\n      0x00\n        /* \"contracts/Basics_Conditional.sol\":1078:1079  0 */\n      dup1\n        /* \"contracts/Basics_Conditional.sol\":1075:1076  b */\n      dup3\n        /* \"contracts/Basics_Conditional.sol\":1075:1079  b==0 */\n      sub\n        /* \"contracts/Basics_Conditional.sol\":1071:1119  if (b==0) {... */\n      tag_16\n      jumpi\n        /* \"contracts/Basics_Conditional.sol\":1103:1107  true */\n      0x01\n        /* \"contracts/Basics_Conditional.sol\":1096:1107  return true */\n      swap1\n      pop\n      jump(tag_15)\n        /* \"contracts/Basics_Conditional.sol\":1071:1119  if (b==0) {... */\n    tag_16:\n        /* \"contracts/Basics_Conditional.sol\":1129:1161  revert(\"b is not equal to zero\") */\n      mload(0x40)\n      0x08c379a000000000000000000000000000000000000000000000000000000000\n      dup2\n      mstore\n      0x04\n      add\n      tag_17\n      swap1\n      tag_18\n      jump\t// in\n    tag_17:\n      mload(0x40)\n      dup1\n      swap2\n      sub\n      swap1\n      revert\n        /* \"contracts/Basics_Conditional.sol\":1000:1276  function revertStatement(uint b) public pure returns (bool) {... */\n    tag_15:\n      swap2\n      swap1\n      pop\n      jump\t// out\n        /* \"contracts/Basics_Conditional.sol\":865:993  function isZero(uint a)public pure returns(bool) {... */\n    tag_13:\n        /* \"contracts/Basics_Conditional.sol\":908:912  bool */\n      0x00\n        /* \"contracts/Basics_Conditional.sol\":936:937  0 */\n      dup1\n        /* \"contracts/Basics_Conditional.sol\":933:934  a */\n      dup3\n        /* \"contracts/Basics_Conditional.sol\":933:937  a==0 */\n      eq\n        /* \"contracts/Basics_Conditional.sol\":925:963  require(a==0,\"a is not equal to zero\") */\n      tag_20\n      jumpi\n      mload(0x40)\n      0x08c379a000000000000000000000000000000000000000000000000000000000\n      dup2\n      mstore\n      0x04\n      add\n      tag_21\n      swap1\n      tag_22\n      jump\t// in\n    tag_21:\n      mload(0x40)\n      dup1\n      swap2\n      sub\n      swap1\n      revert\n    tag_20:\n        /* \"contracts/Basics_Conditional.sol\":981:985  true */\n      0x01\n        /* \"contracts/Basics_Conditional.sol\":974:985  return true */\n      swap1\n      pop\n        /* \"contracts/Basics_Conditional.sol\":865:993  function isZero(uint a)public pure returns(bool) {... */\n      swap2\n      swap1\n      pop\n      jump\t// out\n        /* \"#utility.yul\":88:205   */\n    tag_24:\n        /* \"#utility.yul\":197:198   */\n      0x00\n        /* \"#utility.yul\":194:195   */\n      dup1\n        /* \"#utility.yul\":187:199   */\n      revert\n        /* \"#utility.yul\":334:411   */\n    tag_26:\n        /* \"#utility.yul\":371:378   */\n      0x00\n        /* \"#utility.yul\":400:405   */\n      dup2\n        /* \"#utility.yul\":389:405   */\n      swap1\n      pop\n        /* \"#utility.yul\":334:411   */\n      swap2\n      swap1\n      pop\n      jump\t// out\n        /* \"#utility.yul\":417:539   */\n    tag_27:\n        /* \"#utility.yul\":490:514   */\n      tag_42\n        /* \"#utility.yul\":508:513   */\n      dup2\n        /* \"#utility.yul\":490:514   */\n      tag_26\n      jump\t// in\n    tag_42:\n        /* \"#utility.yul\":483:488   */\n      dup2\n        /* \"#utility.yul\":480:515   */\n      eq\n        /* \"#utility.yul\":470:533   */\n      tag_43\n      jumpi\n        /* \"#utility.yul\":529:530   */\n      0x00\n        /* \"#utility.yul\":526:527   */\n      dup1\n        /* \"#utility.yul\":519:531   */\n      revert\n        /* \"#utility.yul\":470:533   */\n    tag_43:\n        /* \"#utility.yul\":417:539   */\n      pop\n      jump\t// out\n        /* \"#utility.yul\":545:684   */\n    tag_28:\n        /* \"#utility.yul\":591:596   */\n      0x00\n        /* \"#utility.yul\":629:635   */\n      dup2\n        /* \"#utility.yul\":616:636   */\n      calldataload\n        /* \"#utility.yul\":607:636   */\n      swap1\n      pop\n        /* \"#utility.yul\":645:678   */\n      tag_45\n        /* \"#utility.yul\":672:677   */\n      dup2\n        /* \"#utility.yul\":645:678   */\n      tag_27\n      jump\t// in\n    tag_45:\n        /* \"#utility.yul\":545:684   */\n      swap3\n      swap2\n      pop\n      pop\n      jump\t// out\n        /* \"#utility.yul\":690:1019   */\n    tag_7:\n        /* \"#utility.yul\":749:755   */\n      0x00\n        /* \"#utility.yul\":798:800   */\n      0x20\n        /* \"#utility.yul\":786:795   */\n      dup3\n        /* \"#utility.yul\":777:784   */\n      dup5\n        /* \"#utility.yul\":773:796   */\n      sub\n        /* \"#utility.yul\":769:801   */\n      slt\n        /* \"#utility.yul\":766:885   */\n      iszero\n      tag_47\n      jumpi\n        /* \"#utility.yul\":804:883   */\n      tag_48\n      tag_24\n      jump\t// in\n    tag_48:\n        /* \"#utility.yul\":766:885   */\n    tag_47:\n        /* \"#utility.yul\":924:925   */\n      0x00\n        /* \"#utility.yul\":949:1002   */\n      tag_49\n        /* \"#utility.yul\":994:1001   */\n      dup5\n        /* \"#utility.yul\":985:991   */\n      dup3\n        /* \"#utility.yul\":974:983   */\n      dup6\n        /* \"#utility.yul\":970:992   */\n      add\n        /* \"#utility.yul\":949:1002   */\n      tag_28\n      jump\t// in\n    tag_49:\n        /* \"#utility.yul\":939:1002   */\n      swap2\n      pop\n        /* \"#utility.yul\":895:1012   */\n      pop\n        /* \"#utility.yul\":690:1019   */\n      swap3\n      swap2\n      pop\n      pop\n      jump\t// out\n        /* \"#utility.yul\":1025:1115   */\n    tag_29:\n        /* \"#utility.yul\":1059:1066   */\n      0x00\n        /* \"#utility.yul\":1102:1107   */\n      dup2\n        /* \"#utility.yul\":1095:1108   */\n      iszero\n        /* \"#utility.yul\":1088:1109   */\n      iszero\n        /* \"#utility.yul\":1077:1109   */\n      swap1\n      pop\n        /* \"#utility.yul\":1025:1115   */\n      swap2\n      swap1\n      pop\n      jump\t// out\n        /* \"#utility.yul\":1121:1230   */\n    tag_30:\n        /* \"#utility.yul\":1202:1223   */\n      tag_52\n        /* \"#utility.yul\":1217:1222   */\n      dup2\n        /* \"#utility.yul\":1202:1223   */\n      tag_29\n      jump\t// in\n    tag_52:\n        /* \"#utility.yul\":1197:1200   */\n      dup3\n        /* \"#utility.yul\":1190:1224   */\n      mstore\n        /* \"#utility.yul\":1121:1230   */\n      pop\n      pop\n      jump\t// out\n        /* \"#utility.yul\":1236:1446   */\n    tag_10:\n        /* \"#utility.yul\":1323:1327   */\n      0x00\n        /* \"#utility.yul\":1361:1363   */\n      0x20\n        /* \"#utility.yul\":1350:1359   */\n      dup3\n        /* \"#utility.yul\":1346:1364   */\n      add\n        /* \"#utility.yul\":1338:1364   */\n      swap1\n      pop\n        /* \"#utility.yul\":1374:1439   */\n      tag_54\n        /* \"#utility.yul\":1436:1437   */\n      0x00\n        /* \"#utility.yul\":1425:1434   */\n      dup4\n        /* \"#utility.yul\":1421:1438   */\n      add\n        /* \"#utility.yul\":1412:1418   */\n      dup5\n        /* \"#utility.yul\":1374:1439   */\n      tag_30\n      jump\t// in\n    tag_54:\n        /* \"#utility.yul\":1236:1446   */\n      swap3\n      swap2\n      pop\n      pop\n      jump\t// out\n        /* \"#utility.yul\":1452:1621   */\n    tag_31:\n        /* \"#utility.yul\":1536:1547   */\n      0x00\n        /* \"#utility.yul\":1570:1576   */\n      dup3\n        /* \"#utility.yul\":1565:1568   */\n      dup3\n        /* \"#utility.yul\":1558:1577   */\n      mstore\n        /* \"#utility.yul\":1610:1614   */\n      0x20\n        /* \"#utility.yul\":1605:1608   */\n      dup3\n        /* \"#utility.yul\":1601:1615   */\n      add\n        /* \"#utility.yul\":1586:1615   */\n      swap1\n      pop\n        /* \"#utility.yul\":1452:1621   */\n      swap3\n      swap2\n      pop\n      pop\n      jump\t// out\n        /* \"#utility.yul\":1627:1799   */\n    tag_32:\n        /* \"#utility.yul\":1767:1791   */\n      0x62206973206e6f7420657175616c20746f207a65726f00000000000000000000\n        /* \"#utility.yul\":1763:1764   */\n      0x00\n        /* \"#utility.yul\":1755:1761   */\n      dup3\n        /* \"#utility.yul\":1751:1765   */\n      add\n        /* \"#utility.yul\":1744:1792   */\n      mstore\n        /* \"#utility.yul\":1627:1799   */\n      pop\n      jump\t// out\n        /* \"#utility.yul\":1805:2171   */\n    tag_33:\n        /* \"#utility.yul\":1947:1950   */\n      0x00\n        /* \"#utility.yul\":1968:2035   */\n      tag_58\n        /* \"#utility.yul\":2032:2034   */\n      0x16\n        /* \"#utility.yul\":2027:2030   */\n      dup4\n        /* \"#utility.yul\":1968:2035   */\n      tag_31\n      jump\t// in\n    tag_58:\n        /* \"#utility.yul\":1961:2035   */\n      swap2\n      pop\n        /* \"#utility.yul\":2044:2137   */\n      tag_59\n        /* \"#utility.yul\":2133:2136   */\n      dup3\n        /* \"#utility.yul\":2044:2137   */\n      tag_32\n      jump\t// in\n    tag_59:\n        /* \"#utility.yul\":2162:2164   */\n      0x20\n        /* \"#utility.yul\":2157:2160   */\n      dup3\n        /* \"#utility.yul\":2153:2165   */\n      add\n        /* \"#utility.yul\":2146:2165   */\n      swap1\n      pop\n        /* \"#utility.yul\":1805:2171   */\n      swap2\n      swap1\n      pop\n      jump\t// out\n        /* \"#utility.yul\":2177:2596   */\n    tag_18:\n        /* \"#utility.yul\":2343:2347   */\n      0x00\n        /* \"#utility.yul\":2381:2383   */\n      0x20\n        /* \"#utility.yul\":2370:2379   */\n      dup3\n        /* \"#utility.yul\":2366:2384   */\n      add\n        /* \"#utility.yul\":2358:2384   */\n      swap1\n      pop\n        /* \"#utility.yul\":2430:2439   */\n      dup2\n        /* \"#utility.yul\":2424:2428   */\n      dup2\n        /* \"#utility.yul\":2420:2440   */\n      sub\n        /* \"#utility.yul\":2416:2417   */\n      0x00\n        /* \"#utility.yul\":2405:2414   */\n      dup4\n        /* \"#utility.yul\":2401:2418   */\n      add\n        /* \"#utility.yul\":2394:2441   */\n      mstore\n        /* \"#utility.yul\":2458:2589   */\n      tag_61\n        /* \"#utility.yul\":2584:2588   */\n      dup2\n        /* \"#utility.yul\":2458:2589   */\n      tag_33\n      jump\t// in\n    tag_61:\n        /* \"#utility.yul\":2450:2589   */\n      swap1\n      pop\n        /* \"#utility.yul\":2177:2596   */\n      swap2\n      swap1\n      pop\n      jump\t// out\n        /* \"#utility.yul\":2602:2774   */\n    tag_34:\n        /* \"#utility.yul\":2742:2766   */\n      0x61206973206e6f7420657175616c20746f207a65726f00000000000000000000\n        /* \"#utility.yul\":2738:2739   */\n      0x00\n        /* \"#utility.yul\":2730:2736   */\n      dup3\n        /* \"#utility.yul\":2726:2740   */\n      add\n        /* \"#utility.yul\":2719:2767   */\n      mstore\n        /* \"#utility.yul\":2602:2774   */\n      pop\n      jump\t// out\n        /* \"#utility.yul\":2780:3146   */\n    tag_35:\n        /* \"#utility.yul\":2922:2925   */\n      0x00\n        /* \"#utility.yul\":2943:3010   */\n      tag_64\n        /* \"#utility.yul\":3007:3009   */\n      0x16\n        /* \"#utility.yul\":3002:3005   */\n      dup4\n        /* \"#utility.yul\":2943:3010   */\n      tag_31\n      jump\t// in\n    tag_64:\n        /* \"#utility.yul\":2936:3010   */\n      swap2\n      pop\n        /* \"#utility.yul\":3019:3112   */\n      tag_65\n        /* \"#utility.yul\":3108:3111   */\n      dup3\n        /* \"#utility.yul\":3019:3112   */\n      tag_34\n      jump\t// in\n    tag_65:\n        /* \"#utility.yul\":3137:3139   */\n      0x20\n        /* \"#utility.yul\":3132:3135   */\n      dup3\n        /* \"#utility.yul\":3128:3140   */\n      add\n        /* \"#utility.yul\":3121:3140   */\n      swap1\n      pop\n        /* \"#utility.yul\":2780:3146   */\n      swap2\n      swap1\n      pop\n      jump\t// out\n        /* \"#utility.yul\":3152:3571   */\n    tag_22:\n        /* \"#utility.yul\":3318:3322   */\n      0x00\n        /* \"#utility.yul\":3356:3358   */\n      0x20\n        /* \"#utility.yul\":3345:3354   */\n      dup3\n        /* \"#utility.yul\":3341:3359   */\n      add\n        /* \"#utility.yul\":3333:3359   */\n      swap1\n      pop\n        /* \"#utility.yul\":3405:3414   */\n      dup2\n        /* \"#utility.yul\":3399:3403   */\n      dup2\n        /* \"#utility.yul\":3395:3415   */\n      sub\n        /* \"#utility.yul\":3391:3392   */\n      0x00\n        /* \"#utility.yul\":3380:3389   */\n      dup4\n        /* \"#utility.yul\":3376:3393   */\n      add\n        /* \"#utility.yul\":3369:3416   */\n      mstore\n        /* \"#utility.yul\":3433:3564   */\n      tag_67\n        /* \"#utility.yul\":3559:3563   */\n      dup2\n        /* \"#utility.yul\":3433:3564   */\n      tag_35\n      jump\t// in\n    tag_67:\n        /* \"#utility.yul\":3425:3564   */\n      swap1\n      pop\n        /* \"#utility.yul\":3152:3571   */\n      swap2\n      swap1\n      pop\n      jump\t// out\n\n    auxdata: 0xa26469706673582212207756873e495a1c38ae1e5a93ee23c278c339605808d330fc0910112a2dcdaf3864736f6c63430008170033\n}\n",
				"bytecode": {
					"linkReferences": {},
					"object": "608060405234801561000f575f80fd5b506102e08061001d5f395ff3fe608060405234801561000f575f80fd5b5060043610610034575f3560e01c806377bfb28d146100385780637a38f9eb14610068575b5f80fd5b610052600480360381019061004d919061016c565b610098565b60405161005f91906101b1565b60405180910390f35b610082600480360381019061007d919061016c565b6100e9565b60405161008f91906101b1565b60405180910390f35b5f8082036100a957600190506100e4565b6040517f08c379a00000000000000000000000000000000000000000000000000000000081526004016100db90610224565b60405180910390fd5b919050565b5f80821461012c576040517f08c379a00000000000000000000000000000000000000000000000000000000081526004016101239061028c565b60405180910390fd5b60019050919050565b5f80fd5b5f819050919050565b61014b81610139565b8114610155575f80fd5b50565b5f8135905061016681610142565b92915050565b5f6020828403121561018157610180610135565b5b5f61018e84828501610158565b91505092915050565b5f8115159050919050565b6101ab81610197565b82525050565b5f6020820190506101c45f8301846101a2565b92915050565b5f82825260208201905092915050565b7f62206973206e6f7420657175616c20746f207a65726f000000000000000000005f82015250565b5f61020e6016836101ca565b9150610219826101da565b602082019050919050565b5f6020820190508181035f83015261023b81610202565b9050919050565b7f61206973206e6f7420657175616c20746f207a65726f000000000000000000005f82015250565b5f6102766016836101ca565b915061028182610242565b602082019050919050565b5f6020820190508181035f8301526102a38161026a565b905091905056fea26469706673582212207756873e495a1c38ae1e5a93ee23c278c339605808d330fc0910112a2dcdaf3864736f6c63430008170033",
					"opcodes": "PUSH1 0x80 PUSH1 0x40 MSTORE CALLVALUE DUP1 ISZERO PUSH2 0xF JUMPI PUSH0 DUP1 REVERT JUMPDEST POP PUSH2 0x2E0 DUP1 PUSH2 0x1D PUSH0 CODECOPY PUSH0 RETURN INVALID PUSH1 0x80 PUSH1 0x40 MSTORE CALLVALUE DUP1 ISZERO PUSH2 0xF JUMPI PUSH0 DUP1 REVERT JUMPDEST POP PUSH1 0x4 CALLDATASIZE LT PUSH2 0x34 JUMPI PUSH0 CALLDATALOAD PUSH1 0xE0 SHR DUP1 PUSH4 0x77BFB28D EQ PUSH2 0x38 JUMPI DUP1 PUSH4 0x7A38F9EB EQ PUSH2 0x68 JUMPI JUMPDEST PUSH0 DUP1 REVERT JUMPDEST PUSH2 0x52 PUSH1 0x4 DUP1 CALLDATASIZE SUB DUP2 ADD SWAP1 PUSH2 0x4D SWAP2 SWAP1 PUSH2 0x16C JUMP JUMPDEST PUSH2 0x98 JUMP JUMPDEST PUSH1 0x40 MLOAD PUSH2 0x5F SWAP2 SWAP1 PUSH2 0x1B1 JUMP JUMPDEST PUSH1 0x40 MLOAD DUP1 SWAP2 SUB SWAP1 RETURN JUMPDEST PUSH2 0x82 PUSH1 0x4 DUP1 CALLDATASIZE SUB DUP2 ADD SWAP1 PUSH2 0x7D SWAP2 SWAP1 PUSH2 0x16C JUMP JUMPDEST PUSH2 0xE9 JUMP JUMPDEST PUSH1 0x40 MLOAD PUSH2 0x8F SWAP2 SWAP1 PUSH2 0x1B1 JUMP JUMPDEST PUSH1 0x40 MLOAD DUP1 SWAP2 SUB SWAP1 RETURN JUMPDEST PUSH0 DUP1 DUP3 SUB PUSH2 0xA9 JUMPI PUSH1 0x1 SWAP1 POP PUSH2 0xE4 JUMP JUMPDEST PUSH1 0x40 MLOAD PUSH32 0x8C379A000000000000000000000000000000000000000000000000000000000 DUP2 MSTORE PUSH1 0x4 ADD PUSH2 0xDB SWAP1 PUSH2 0x224 JUMP JUMPDEST PUSH1 0x40 MLOAD DUP1 SWAP2 SUB SWAP1 REVERT JUMPDEST SWAP2 SWAP1 POP JUMP JUMPDEST PUSH0 DUP1 DUP3 EQ PUSH2 0x12C JUMPI PUSH1 0x40 MLOAD PUSH32 0x8C379A000000000000000000000000000000000000000000000000000000000 DUP2 MSTORE PUSH1 0x4 ADD PUSH2 0x123 SWAP1 PUSH2 0x28C JUMP JUMPDEST PUSH1 0x40 MLOAD DUP1 SWAP2 SUB SWAP1 REVERT JUMPDEST PUSH1 0x1 SWAP1 POP SWAP2 SWAP1 POP JUMP JUMPDEST PUSH0 DUP1 REVERT JUMPDEST PUSH0 DUP2 SWAP1 POP SWAP2 SWAP1 POP JUMP JUMPDEST PUSH2 0x14B DUP2 PUSH2 0x139 JUMP JUMPDEST DUP2 EQ PUSH2 0x155 JUMPI PUSH0 DUP1 REVERT JUMPDEST POP JUMP JUMPDEST PUSH0 DUP2 CALLDATALOAD SWAP1 POP PUSH2 0x166 DUP2 PUSH2 0x142 JUMP JUMPDEST SWAP3 SWAP2 POP POP JUMP JUMPDEST PUSH0 PUSH1 0x20 DUP3 DUP5 SUB SLT ISZERO PUSH2 0x181 JUMPI PUSH2 0x180 PUSH2 0x135 JUMP JUMPDEST JUMPDEST PUSH0 PUSH2 0x18E DUP5 DUP3 DUP6 ADD PUSH2 0x158 JUMP JUMPDEST SWAP2 POP POP SWAP3 SWAP2 POP POP JUMP JUMPDEST PUSH0 DUP2 ISZERO ISZERO SWAP1 POP SWAP2 SWAP1 POP JUMP JUMPDEST PUSH2 0x1AB DUP2 PUSH2 0x197 JUMP JUMPDEST DUP3 MSTORE POP POP JUMP JUMPDEST PUSH0 PUSH1 0x20 DUP3 ADD SWAP1 POP PUSH2 0x1C4 PUSH0 DUP4 ADD DUP5 PUSH2 0x1A2 JUMP JUMPDEST SWAP3 SWAP2 POP POP JUMP JUMPDEST PUSH0 DUP3 DUP3 MSTORE PUSH1 0x20 DUP3 ADD SWAP1 POP SWAP3 SWAP2 POP POP JUMP JUMPDEST PUSH32 0x62206973206E6F7420657175616C20746F207A65726F00000000000000000000 PUSH0 DUP3 ADD MSTORE POP JUMP JUMPDEST PUSH0 PUSH2 0x20E PUSH1 0x16 DUP4 PUSH2 0x1CA JUMP JUMPDEST SWAP2 POP PUSH2 0x219 DUP3 PUSH2 0x1DA JUMP JUMPDEST PUSH1 0x20 DUP3 ADD SWAP1 POP SWAP2 SWAP1 POP JUMP JUMPDEST PUSH0 PUSH1 0x20 DUP3 ADD SWAP1 POP DUP2 DUP2 SUB PUSH0 DUP4 ADD MSTORE PUSH2 0x23B DUP2 PUSH2 0x202 JUMP JUMPDEST SWAP1 POP SWAP2 SWAP1 POP JUMP JUMPDEST PUSH32 0x61206973206E6F7420657175616C20746F207A65726F00000000000000000000 PUSH0 DUP3 ADD MSTORE POP JUMP JUMPDEST PUSH0 PUSH2 0x276 PUSH1 0x16 DUP4 PUSH2 0x1CA JUMP JUMPDEST SWAP2 POP PUSH2 0x281 DUP3 PUSH2 0x242 JUMP JUMPDEST PUSH1 0x20 DUP3 ADD SWAP1 POP SWAP2 SWAP1 POP JUMP JUMPDEST PUSH0 PUSH1 0x20 DUP3 ADD SWAP1 POP DUP2 DUP2 SUB PUSH0 DUP4 ADD MSTORE PUSH2 0x2A3 DUP2 PUSH2 0x26A JUMP JUMPDEST SWAP1 POP SWAP2 SWAP1 POP JUMP INVALID LOG2 PUSH5 0x6970667358 0x22 SLT KECCAK256 PUSH24 0x56873E495A1C38AE1E5A93EE23C278C339605808D330FC09 LT GT 0x2A 0x2D 0xCD 0xAF CODESIZE PUSH5 0x736F6C6343 STOP ADDMOD OR STOP CALLER "
				},
				"gasEstimates": {
					"creation": {
						"codeDepositCost": "147200",
						"executionCost": "188",
						"totalCost": "147388"
					},
					"external": {
						"isZero(uint256)": "708",
						"revertStatement(uint256)": "687"
					}
				},
				"methodIdentifiers": {
					"isZero(uint256)": "7a38f9eb",
					"revertStatement(uint256)": "77bfb28d"
				}
			},
			"storageLayout": {
				"storage": [],
				"types": null
			},
			"userdoc": {
				"kind": "user",
				"methods": {},
				"version": 1
			}
		}
	}
}