{
	"contracts/Basics_modifiers.sol": {
		"modifiers": {
			"abi": [
				{
					"inputs": [],
					"name": "f1",
					"outputs": [
						{
							"internalType": "uint256",
							"name": "",
							"type": "uint256"
						}
					],
					"stateMutability": "pure",
					"type": "function"
				},
				{
					"inputs": [],
					"name": "f2",
					"outputs": [
						{
							"internalType": "uint256",
							"name": "",
							"type": "uint256"
						}
					],
					"stateMutability": "pure",
					"type": "function"
				},
				{
					"inputs": [],
					"name": "f3",
					"outputs": [
						{
							"internalType": "uint256",
							"name": "",
							"type": "uint256"
						}
					],
					"stateMutability": "pure",
					"type": "function"
				},
				{
					"inputs": [],
					"name": "f4",
					"outputs": [
						{
							"internalType": "uint256",
							"name": "",
							"type": "uint256"
						}
					],
					"stateMutability": "pure",
					"type": "function"
				}
			],
			"devdoc": {
				"kind": "dev",
				"methods": {},
				"version": 1
			},
			"evm": {
				"assembly": "    /* \"contracts/Basics_modifiers.sol\":68:690  contract modifiers {\r... */\n  mstore(0x40, 0x80)\n  callvalue\n  dup1\n  iszero\n  tag_1\n  jumpi\n  0x00\n  dup1\n  revert\ntag_1:\n  pop\n  dataSize(sub_0)\n  dup1\n  dataOffset(sub_0)\n  0x00\n  codecopy\n  0x00\n  return\nstop\n\nsub_0: assembly {\n        /* \"contracts/Basics_modifiers.sol\":68:690  contract modifiers {\r... */\n      mstore(0x40, 0x80)\n      callvalue\n      dup1\n      iszero\n      tag_1\n      jumpi\n      0x00\n      dup1\n      revert\n    tag_1:\n      pop\n      jumpi(tag_2, lt(calldatasize, 0x04))\n      shr(0xe0, calldataload(0x00))\n      dup1\n      0x9942ec6f\n      eq\n      tag_3\n      jumpi\n      dup1\n      0xaaf05f3d\n      eq\n      tag_4\n      jumpi\n      dup1\n      0xc27fc305\n      eq\n      tag_5\n      jumpi\n      dup1\n      0xc3f90202\n      eq\n      tag_6\n      jumpi\n    tag_2:\n      0x00\n      dup1\n      revert\n        /* \"contracts/Basics_modifiers.sol\":453:527  function f2() public pure isTrue returns(uint) {\r... */\n    tag_3:\n      tag_7\n      tag_8\n      jump\t// in\n    tag_7:\n      mload(0x40)\n      dup1\n      dup3\n      dup2\n      mstore\n      0x20\n      add\n      swap2\n      pop\n      pop\n      mload(0x40)\n      dup1\n      swap2\n      sub\n      swap1\n      return\n        /* \"contracts/Basics_modifiers.sol\":533:607  function f3() public pure isTrue returns(uint) {\r... */\n    tag_4:\n      tag_9\n      tag_10\n      jump\t// in\n    tag_9:\n      mload(0x40)\n      dup1\n      dup3\n      dup2\n      mstore\n      0x20\n      add\n      swap2\n      pop\n      pop\n      mload(0x40)\n      dup1\n      swap2\n      sub\n      swap1\n      return\n        /* \"contracts/Basics_modifiers.sol\":373:447  function f1() public pure isTrue returns(uint) {\r... */\n    tag_5:\n      tag_11\n      tag_12\n      jump\t// in\n    tag_11:\n      mload(0x40)\n      dup1\n      dup3\n      dup2\n      mstore\n      0x20\n      add\n      swap2\n      pop\n      pop\n      mload(0x40)\n      dup1\n      swap2\n      sub\n      swap1\n      return\n        /* \"contracts/Basics_modifiers.sol\":613:687  function f4() public pure isTrue returns(uint) {\r... */\n    tag_6:\n      tag_13\n      tag_14\n      jump\t// in\n    tag_13:\n      mload(0x40)\n      dup1\n      dup3\n      dup2\n      mstore\n      0x20\n      add\n      swap2\n      pop\n      pop\n      mload(0x40)\n      dup1\n      swap2\n      sub\n      swap1\n      return\n        /* \"contracts/Basics_modifiers.sol\":453:527  function f2() public pure isTrue returns(uint) {\r... */\n    tag_8:\n        /* \"contracts/Basics_modifiers.sol\":494:498  uint */\n      0x00\n        /* \"contracts/Basics_modifiers.sol\":136:140  true */\n      0x01\n        /* \"contracts/Basics_modifiers.sol\":130:140  true==true */\n      iszero\n      iszero\n        /* \"contracts/Basics_modifiers.sol\":130:134  true */\n      0x01\n        /* \"contracts/Basics_modifiers.sol\":130:140  true==true */\n      iszero\n      iszero\n      eq\n        /* \"contracts/Basics_modifiers.sol\":122:160  require(true==true,\"true is not true\") */\n      tag_16\n      jumpi\n      mload(0x40)\n      0x08c379a000000000000000000000000000000000000000000000000000000000\n      dup2\n      mstore\n      0x04\n      add\n      dup1\n      dup1\n      0x20\n      add\n      dup3\n      dup2\n      sub\n      dup3\n      mstore\n      0x10\n      dup2\n      mstore\n      0x20\n      add\n      dup1\n      0x74727565206973206e6f74207472756500000000000000000000000000000000\n      dup2\n      mstore\n      pop\n      0x20\n      add\n      swap2\n      pop\n      pop\n      mload(0x40)\n      dup1\n      swap2\n      sub\n      swap1\n      revert\n    tag_16:\n        /* \"contracts/Basics_modifiers.sol\":518:519  2 */\n      0x02\n        /* \"contracts/Basics_modifiers.sol\":511:519  return 2 */\n      swap1\n      pop\n        /* \"contracts/Basics_modifiers.sol\":453:527  function f2() public pure isTrue returns(uint) {\r... */\n      swap1\n      jump\t// out\n        /* \"contracts/Basics_modifiers.sol\":533:607  function f3() public pure isTrue returns(uint) {\r... */\n    tag_10:\n        /* \"contracts/Basics_modifiers.sol\":574:578  uint */\n      0x00\n        /* \"contracts/Basics_modifiers.sol\":136:140  true */\n      0x01\n        /* \"contracts/Basics_modifiers.sol\":130:140  true==true */\n      iszero\n      iszero\n        /* \"contracts/Basics_modifiers.sol\":130:134  true */\n      0x01\n        /* \"contracts/Basics_modifiers.sol\":130:140  true==true */\n      iszero\n      iszero\n      eq\n        /* \"contracts/Basics_modifiers.sol\":122:160  require(true==true,\"true is not true\") */\n      tag_19\n      jumpi\n      mload(0x40)\n      0x08c379a000000000000000000000000000000000000000000000000000000000\n      dup2\n      mstore\n      0x04\n      add\n      dup1\n      dup1\n      0x20\n      add\n      dup3\n      dup2\n      sub\n      dup3\n      mstore\n      0x10\n      dup2\n      mstore\n      0x20\n      add\n      dup1\n      0x74727565206973206e6f74207472756500000000000000000000000000000000\n      dup2\n      mstore\n      pop\n      0x20\n      add\n      swap2\n      pop\n      pop\n      mload(0x40)\n      dup1\n      swap2\n      sub\n      swap1\n      revert\n    tag_19:\n        /* \"contracts/Basics_modifiers.sol\":598:599  3 */\n      0x03\n        /* \"contracts/Basics_modifiers.sol\":591:599  return 3 */\n      swap1\n      pop\n        /* \"contracts/Basics_modifiers.sol\":533:607  function f3() public pure isTrue returns(uint) {\r... */\n      swap1\n      jump\t// out\n        /* \"contracts/Basics_modifiers.sol\":373:447  function f1() public pure isTrue returns(uint) {\r... */\n    tag_12:\n        /* \"contracts/Basics_modifiers.sol\":414:418  uint */\n      0x00\n        /* \"contracts/Basics_modifiers.sol\":136:140  true */\n      0x01\n        /* \"contracts/Basics_modifiers.sol\":130:140  true==true */\n      iszero\n      iszero\n        /* \"contracts/Basics_modifiers.sol\":130:134  true */\n      0x01\n        /* \"contracts/Basics_modifiers.sol\":130:140  true==true */\n      iszero\n      iszero\n      eq\n        /* \"contracts/Basics_modifiers.sol\":122:160  require(true==true,\"true is not true\") */\n      tag_22\n      jumpi\n      mload(0x40)\n      0x08c379a000000000000000000000000000000000000000000000000000000000\n      dup2\n      mstore\n      0x04\n      add\n      dup1\n      dup1\n      0x20\n      add\n      dup3\n      dup2\n      sub\n      dup3\n      mstore\n      0x10\n      dup2\n      mstore\n      0x20\n      add\n      dup1\n      0x74727565206973206e6f74207472756500000000000000000000000000000000\n      dup2\n      mstore\n      pop\n      0x20\n      add\n      swap2\n      pop\n      pop\n      mload(0x40)\n      dup1\n      swap2\n      sub\n      swap1\n      revert\n    tag_22:\n        /* \"contracts/Basics_modifiers.sol\":438:439  1 */\n      0x01\n        /* \"contracts/Basics_modifiers.sol\":431:439  return 1 */\n      swap1\n      pop\n        /* \"contracts/Basics_modifiers.sol\":373:447  function f1() public pure isTrue returns(uint) {\r... */\n      swap1\n      jump\t// out\n        /* \"contracts/Basics_modifiers.sol\":613:687  function f4() public pure isTrue returns(uint) {\r... */\n    tag_14:\n        /* \"contracts/Basics_modifiers.sol\":654:658  uint */\n      0x00\n        /* \"contracts/Basics_modifiers.sol\":136:140  true */\n      0x01\n        /* \"contracts/Basics_modifiers.sol\":130:140  true==true */\n      iszero\n      iszero\n        /* \"contracts/Basics_modifiers.sol\":130:134  true */\n      0x01\n        /* \"contracts/Basics_modifiers.sol\":130:140  true==true */\n      iszero\n      iszero\n      eq\n        /* \"contracts/Basics_modifiers.sol\":122:160  require(true==true,\"true is not true\") */\n      tag_25\n      jumpi\n      mload(0x40)\n      0x08c379a000000000000000000000000000000000000000000000000000000000\n      dup2\n      mstore\n      0x04\n      add\n      dup1\n      dup1\n      0x20\n      add\n      dup3\n      dup2\n      sub\n      dup3\n      mstore\n      0x10\n      dup2\n      mstore\n      0x20\n      add\n      dup1\n      0x74727565206973206e6f74207472756500000000000000000000000000000000\n      dup2\n      mstore\n      pop\n      0x20\n      add\n      swap2\n      pop\n      pop\n      mload(0x40)\n      dup1\n      swap2\n      sub\n      swap1\n      revert\n    tag_25:\n        /* \"contracts/Basics_modifiers.sol\":678:679  4 */\n      0x04\n        /* \"contracts/Basics_modifiers.sol\":671:679  return 4 */\n      swap1\n      pop\n        /* \"contracts/Basics_modifiers.sol\":613:687  function f4() public pure isTrue returns(uint) {\r... */\n      swap1\n      jump\t// out\n\n    auxdata: 0xa26469706673582212201e149211ff75d4e5c955db64b28616f18ab270d86c3ee525960dc1b1fa1c5e1864736f6c63430007000033\n}\n",
				"bytecode": {
					"linkReferences": {},
					"object": "608060405234801561001057600080fd5b5061030f806100206000396000f3fe608060405234801561001057600080fd5b506004361061004c5760003560e01c80639942ec6f14610051578063aaf05f3d1461006f578063c27fc3051461008d578063c3f90202146100ab575b600080fd5b6100596100c9565b6040518082815260200191505060405180910390f35b61007761014d565b6040518082815260200191505060405180910390f35b6100956101d1565b6040518082815260200191505060405180910390f35b6100b3610255565b6040518082815260200191505060405180910390f35b6000600115156001151514610146576040517f08c379a00000000000000000000000000000000000000000000000000000000081526004018080602001828103825260108152602001807f74727565206973206e6f7420747275650000000000000000000000000000000081525060200191505060405180910390fd5b6002905090565b60006001151560011515146101ca576040517f08c379a00000000000000000000000000000000000000000000000000000000081526004018080602001828103825260108152602001807f74727565206973206e6f7420747275650000000000000000000000000000000081525060200191505060405180910390fd5b6003905090565b600060011515600115151461024e576040517f08c379a00000000000000000000000000000000000000000000000000000000081526004018080602001828103825260108152602001807f74727565206973206e6f7420747275650000000000000000000000000000000081525060200191505060405180910390fd5b6001905090565b60006001151560011515146102d2576040517f08c379a00000000000000000000000000000000000000000000000000000000081526004018080602001828103825260108152602001807f74727565206973206e6f7420747275650000000000000000000000000000000081525060200191505060405180910390fd5b600490509056fea26469706673582212201e149211ff75d4e5c955db64b28616f18ab270d86c3ee525960dc1b1fa1c5e1864736f6c63430007000033",
					"opcodes": "PUSH1 0x80 PUSH1 0x40 MSTORE CALLVALUE DUP1 ISZERO PUSH2 0x10 JUMPI PUSH1 0x0 DUP1 REVERT JUMPDEST POP PUSH2 0x30F DUP1 PUSH2 0x20 PUSH1 0x0 CODECOPY PUSH1 0x0 RETURN INVALID PUSH1 0x80 PUSH1 0x40 MSTORE CALLVALUE DUP1 ISZERO PUSH2 0x10 JUMPI PUSH1 0x0 DUP1 REVERT JUMPDEST POP PUSH1 0x4 CALLDATASIZE LT PUSH2 0x4C JUMPI PUSH1 0x0 CALLDATALOAD PUSH1 0xE0 SHR DUP1 PUSH4 0x9942EC6F EQ PUSH2 0x51 JUMPI DUP1 PUSH4 0xAAF05F3D EQ PUSH2 0x6F JUMPI DUP1 PUSH4 0xC27FC305 EQ PUSH2 0x8D JUMPI DUP1 PUSH4 0xC3F90202 EQ PUSH2 0xAB JUMPI JUMPDEST PUSH1 0x0 DUP1 REVERT JUMPDEST PUSH2 0x59 PUSH2 0xC9 JUMP JUMPDEST PUSH1 0x40 MLOAD DUP1 DUP3 DUP2 MSTORE PUSH1 0x20 ADD SWAP2 POP POP PUSH1 0x40 MLOAD DUP1 SWAP2 SUB SWAP1 RETURN JUMPDEST PUSH2 0x77 PUSH2 0x14D JUMP JUMPDEST PUSH1 0x40 MLOAD DUP1 DUP3 DUP2 MSTORE PUSH1 0x20 ADD SWAP2 POP POP PUSH1 0x40 MLOAD DUP1 SWAP2 SUB SWAP1 RETURN JUMPDEST PUSH2 0x95 PUSH2 0x1D1 JUMP JUMPDEST PUSH1 0x40 MLOAD DUP1 DUP3 DUP2 MSTORE PUSH1 0x20 ADD SWAP2 POP POP PUSH1 0x40 MLOAD DUP1 SWAP2 SUB SWAP1 RETURN JUMPDEST PUSH2 0xB3 PUSH2 0x255 JUMP JUMPDEST PUSH1 0x40 MLOAD DUP1 DUP3 DUP2 MSTORE PUSH1 0x20 ADD SWAP2 POP POP PUSH1 0x40 MLOAD DUP1 SWAP2 SUB SWAP1 RETURN JUMPDEST PUSH1 0x0 PUSH1 0x1 ISZERO ISZERO PUSH1 0x1 ISZERO ISZERO EQ PUSH2 0x146 JUMPI PUSH1 0x40 MLOAD PUSH32 0x8C379A000000000000000000000000000000000000000000000000000000000 DUP2 MSTORE PUSH1 0x4 ADD DUP1 DUP1 PUSH1 0x20 ADD DUP3 DUP2 SUB DUP3 MSTORE PUSH1 0x10 DUP2 MSTORE PUSH1 0x20 ADD DUP1 PUSH32 0x74727565206973206E6F74207472756500000000000000000000000000000000 DUP2 MSTORE POP PUSH1 0x20 ADD SWAP2 POP POP PUSH1 0x40 MLOAD DUP1 SWAP2 SUB SWAP1 REVERT JUMPDEST PUSH1 0x2 SWAP1 POP SWAP1 JUMP JUMPDEST PUSH1 0x0 PUSH1 0x1 ISZERO ISZERO PUSH1 0x1 ISZERO ISZERO EQ PUSH2 0x1CA JUMPI PUSH1 0x40 MLOAD PUSH32 0x8C379A000000000000000000000000000000000000000000000000000000000 DUP2 MSTORE PUSH1 0x4 ADD DUP1 DUP1 PUSH1 0x20 ADD DUP3 DUP2 SUB DUP3 MSTORE PUSH1 0x10 DUP2 MSTORE PUSH1 0x20 ADD DUP1 PUSH32 0x74727565206973206E6F74207472756500000000000000000000000000000000 DUP2 MSTORE POP PUSH1 0x20 ADD SWAP2 POP POP PUSH1 0x40 MLOAD DUP1 SWAP2 SUB SWAP1 REVERT JUMPDEST PUSH1 0x3 SWAP1 POP SWAP1 JUMP JUMPDEST PUSH1 0x0 PUSH1 0x1 ISZERO ISZERO PUSH1 0x1 ISZERO ISZERO EQ PUSH2 0x24E JUMPI PUSH1 0x40 MLOAD PUSH32 0x8C379A000000000000000000000000000000000000000000000000000000000 DUP2 MSTORE PUSH1 0x4 ADD DUP1 DUP1 PUSH1 0x20 ADD DUP3 DUP2 SUB DUP3 MSTORE PUSH1 0x10 DUP2 MSTORE PUSH1 0x20 ADD DUP1 PUSH32 0x74727565206973206E6F74207472756500000000000000000000000000000000 DUP2 MSTORE POP PUSH1 0x20 ADD SWAP2 POP POP PUSH1 0x40 MLOAD DUP1 SWAP2 SUB SWAP1 REVERT JUMPDEST PUSH1 0x1 SWAP1 POP SWAP1 JUMP JUMPDEST PUSH1 0x0 PUSH1 0x1 ISZERO ISZERO PUSH1 0x1 ISZERO ISZERO EQ PUSH2 0x2D2 JUMPI PUSH1 0x40 MLOAD PUSH32 0x8C379A000000000000000000000000000000000000000000000000000000000 DUP2 MSTORE PUSH1 0x4 ADD DUP1 DUP1 PUSH1 0x20 ADD DUP3 DUP2 SUB DUP3 MSTORE PUSH1 0x10 DUP2 MSTORE PUSH1 0x20 ADD DUP1 PUSH32 0x74727565206973206E6F74207472756500000000000000000000000000000000 DUP2 MSTORE POP PUSH1 0x20 ADD SWAP2 POP POP PUSH1 0x40 MLOAD DUP1 SWAP2 SUB SWAP1 REVERT JUMPDEST PUSH1 0x4 SWAP1 POP SWAP1 JUMP INVALID LOG2 PUSH5 0x6970667358 0x22 SLT KECCAK256 0x1E EQ SWAP3 GT SELFDESTRUCT PUSH22 0xD4E5C955DB64B28616F18AB270D86C3EE525960DC1B1 STATICCALL SHR 0x5E XOR PUSH5 0x736F6C6343 STOP SMOD STOP STOP CALLER "
				},
				"gasEstimates": {
					"creation": {
						"codeDepositCost": "156600",
						"executionCost": "202",
						"totalCost": "156802"
					},
					"external": {
						"f1()": "270",
						"f2()": "226",
						"f3()": "248",
						"f4()": "292"
					}
				},
				"methodIdentifiers": {
					"f1()": "c27fc305",
					"f2()": "9942ec6f",
					"f3()": "aaf05f3d",
					"f4()": "c3f90202"
				}
			},
			"storageLayout": {
				"storage": [],
				"types": null
			},
			"userdoc": {
				"kind": "user",
				"methods": {},
				"version": 1
			}
		}
	}
}