{
	"data": {
		"bytecode": {
			"linkReferences": {},
			"object": "608060405234801561000f575f80fd5b506105148061001d5f395ff3fe608060405234801561000f575f80fd5b5060043610610034575f3560e01c80633f3108f714610038578063993a04b714610042575b5f80fd5b610040610060565b005b61004a6100a6565b60405161005791906101bf565b60405180910390f35b6040518060400160405280600581526020017f48656c6c6f0000000000000000000000000000000000000000000000000000008152505f90816100a3919061040f565b50565b60605f80546100b490610239565b80601f01602080910402602001604051908101604052809291908181526020018280546100e090610239565b801561012b5780601f106101025761010080835404028352916020019161012b565b820191905f5260205f20905b81548152906001019060200180831161010e57829003601f168201915b5050505050905090565b5f81519050919050565b5f82825260208201905092915050565b5f5b8381101561016c578082015181840152602081019050610151565b5f8484015250505050565b5f601f19601f8301169050919050565b5f61019182610135565b61019b818561013f565b93506101ab81856020860161014f565b6101b481610177565b840191505092915050565b5f6020820190508181035f8301526101d78184610187565b905092915050565b7f4e487b71000000000000000000000000000000000000000000000000000000005f52604160045260245ffd5b7f4e487b71000000000000000000000000000000000000000000000000000000005f52602260045260245ffd5b5f600282049050600182168061025057607f821691505b6020821081036102635761026261020c565b5b50919050565b5f819050815f5260205f209050919050565b5f6020601f8301049050919050565b5f82821b905092915050565b5f600883026102c57fffffffffffffffffffffffffffffffffffffffffffffffffffffffffffffffff8261028a565b6102cf868361028a565b95508019841693508086168417925050509392505050565b5f819050919050565b5f819050919050565b5f61031361030e610309846102e7565b6102f0565b6102e7565b9050919050565b5f819050919050565b61032c836102f9565b6103406103388261031a565b848454610296565b825550505050565b5f90565b610354610348565b61035f818484610323565b505050565b5b81811015610382576103775f8261034c565b600181019050610365565b5050565b601f8211156103c75761039881610269565b6103a18461027b565b810160208510156103b0578190505b6103c46103bc8561027b565b830182610364565b50505b505050565b5f82821c905092915050565b5f6103e75f19846008026103cc565b1980831691505092915050565b5f6103ff83836103d8565b9150826002028217905092915050565b61041882610135565b67ffffffffffffffff811115610431576104306101df565b5b61043b8254610239565b610446828285610386565b5f60209050601f831160018114610477575f8415610465578287015190505b61046f85826103f4565b8655506104d6565b601f19841661048586610269565b5f5b828110156104ac57848901518255600182019150602085019450602081019050610487565b868310156104c957848901516104c5601f8916826103d8565b8355505b6001600288020188555050505b50505050505056fea264697066735822122033e9e921c9ce4fda7e0a8a2ce0596f15a70f98ba367cf67afd22a303f67f484b64736f6c63430008170033",
			"opcodes": "PUSH1 0x80 PUSH1 0x40 MSTORE CALLVALUE DUP1 ISZERO PUSH2 0xF JUMPI PUSH0 DUP1 REVERT JUMPDEST POP PUSH2 0x514 DUP1 PUSH2 0x1D PUSH0 CODECOPY PUSH0 RETURN INVALID PUSH1 0x80 PUSH1 0x40 MSTORE CALLVALUE DUP1 ISZERO PUSH2 0xF JUMPI PUSH0 DUP1 REVERT JUMPDEST POP PUSH1 0x4 CALLDATASIZE LT PUSH2 0x34 JUMPI PUSH0 CALLDATALOAD PUSH1 0xE0 SHR DUP1 PUSH4 0x3F3108F7 EQ PUSH2 0x38 JUMPI DUP1 PUSH4 0x993A04B7 EQ PUSH2 0x42 JUMPI JUMPDEST PUSH0 DUP1 REVERT JUMPDEST PUSH2 0x40 PUSH2 0x60 JUMP JUMPDEST STOP JUMPDEST PUSH2 0x4A PUSH2 0xA6 JUMP JUMPDEST PUSH1 0x40 MLOAD PUSH2 0x57 SWAP2 SWAP1 PUSH2 0x1BF JUMP JUMPDEST PUSH1 0x40 MLOAD DUP1 SWAP2 SUB SWAP1 RETURN JUMPDEST PUSH1 0x40 MLOAD DUP1 PUSH1 0x40 ADD PUSH1 0x40 MSTORE DUP1 PUSH1 0x5 DUP2 MSTORE PUSH1 0x20 ADD PUSH32 0x48656C6C6F000000000000000000000000000000000000000000000000000000 DUP2 MSTORE POP PUSH0 SWAP1 DUP2 PUSH2 0xA3 SWAP2 SWAP1 PUSH2 0x40F JUMP JUMPDEST POP JUMP JUMPDEST PUSH1 0x60 PUSH0 DUP1 SLOAD PUSH2 0xB4 SWAP1 PUSH2 0x239 JUMP JUMPDEST DUP1 PUSH1 0x1F ADD PUSH1 0x20 DUP1 SWAP2 DIV MUL PUSH1 0x20 ADD PUSH1 0x40 MLOAD SWAP1 DUP2 ADD PUSH1 0x40 MSTORE DUP1 SWAP3 SWAP2 SWAP1 DUP2 DUP2 MSTORE PUSH1 0x20 ADD DUP3 DUP1 SLOAD PUSH2 0xE0 SWAP1 PUSH2 0x239 JUMP JUMPDEST DUP1 ISZERO PUSH2 0x12B JUMPI DUP1 PUSH1 0x1F LT PUSH2 0x102 JUMPI PUSH2 0x100 DUP1 DUP4 SLOAD DIV MUL DUP4 MSTORE SWAP2 PUSH1 0x20 ADD SWAP2 PUSH2 0x12B JUMP JUMPDEST DUP3 ADD SWAP2 SWAP1 PUSH0 MSTORE PUSH1 0x20 PUSH0 KECCAK256 SWAP1 JUMPDEST DUP2 SLOAD DUP2 MSTORE SWAP1 PUSH1 0x1 ADD SWAP1 PUSH1 0x20 ADD DUP1 DUP4 GT PUSH2 0x10E JUMPI DUP3 SWAP1 SUB PUSH1 0x1F AND DUP3 ADD SWAP2 JUMPDEST POP POP POP POP POP SWAP1 POP SWAP1 JUMP JUMPDEST PUSH0 DUP2 MLOAD SWAP1 POP SWAP2 SWAP1 POP JUMP JUMPDEST PUSH0 DUP3 DUP3 MSTORE PUSH1 0x20 DUP3 ADD SWAP1 POP SWAP3 SWAP2 POP POP JUMP JUMPDEST PUSH0 JUMPDEST DUP4 DUP2 LT ISZERO PUSH2 0x16C JUMPI DUP1 DUP3 ADD MLOAD DUP2 DUP5 ADD MSTORE PUSH1 0x20 DUP2 ADD SWAP1 POP PUSH2 0x151 JUMP JUMPDEST PUSH0 DUP5 DUP5 ADD MSTORE POP POP POP POP JUMP JUMPDEST PUSH0 PUSH1 0x1F NOT PUSH1 0x1F DUP4 ADD AND SWAP1 POP SWAP2 SWAP1 POP JUMP JUMPDEST PUSH0 PUSH2 0x191 DUP3 PUSH2 0x135 JUMP JUMPDEST PUSH2 0x19B DUP2 DUP6 PUSH2 0x13F JUMP JUMPDEST SWAP4 POP PUSH2 0x1AB DUP2 DUP6 PUSH1 0x20 DUP7 ADD PUSH2 0x14F JUMP JUMPDEST PUSH2 0x1B4 DUP2 PUSH2 0x177 JUMP JUMPDEST DUP5 ADD SWAP2 POP POP SWAP3 SWAP2 POP POP JUMP JUMPDEST PUSH0 PUSH1 0x20 DUP3 ADD SWAP1 POP DUP2 DUP2 SUB PUSH0 DUP4 ADD MSTORE PUSH2 0x1D7 DUP2 DUP5 PUSH2 0x187 JUMP JUMPDEST SWAP1 POP SWAP3 SWAP2 POP POP JUMP JUMPDEST PUSH32 0x4E487B7100000000000000000000000000000000000000000000000000000000 PUSH0 MSTORE PUSH1 0x41 PUSH1 0x4 MSTORE PUSH1 0x24 PUSH0 REVERT JUMPDEST PUSH32 0x4E487B7100000000000000000000000000000000000000000000000000000000 PUSH0 MSTORE PUSH1 0x22 PUSH1 0x4 MSTORE PUSH1 0x24 PUSH0 REVERT JUMPDEST PUSH0 PUSH1 0x2 DUP3 DIV SWAP1 POP PUSH1 0x1 DUP3 AND DUP1 PUSH2 0x250 JUMPI PUSH1 0x7F DUP3 AND SWAP2 POP JUMPDEST PUSH1 0x20 DUP3 LT DUP2 SUB PUSH2 0x263 JUMPI PUSH2 0x262 PUSH2 0x20C JUMP JUMPDEST JUMPDEST POP SWAP2 SWAP1 POP JUMP JUMPDEST PUSH0 DUP2 SWAP1 POP DUP2 PUSH0 MSTORE PUSH1 0x20 PUSH0 KECCAK256 SWAP1 POP SWAP2 SWAP1 POP JUMP JUMPDEST PUSH0 PUSH1 0x20 PUSH1 0x1F DUP4 ADD DIV SWAP1 POP SWAP2 SWAP1 POP JUMP JUMPDEST PUSH0 DUP3 DUP3 SHL SWAP1 POP SWAP3 SWAP2 POP POP JUMP JUMPDEST PUSH0 PUSH1 0x8 DUP4 MUL PUSH2 0x2C5 PUSH32 0xFFFFFFFFFFFFFFFFFFFFFFFFFFFFFFFFFFFFFFFFFFFFFFFFFFFFFFFFFFFFFFFF DUP3 PUSH2 0x28A JUMP JUMPDEST PUSH2 0x2CF DUP7 DUP4 PUSH2 0x28A JUMP JUMPDEST SWAP6 POP DUP1 NOT DUP5 AND SWAP4 POP DUP1 DUP7 AND DUP5 OR SWAP3 POP POP POP SWAP4 SWAP3 POP POP POP JUMP JUMPDEST PUSH0 DUP2 SWAP1 POP SWAP2 SWAP1 POP JUMP JUMPDEST PUSH0 DUP2 SWAP1 POP SWAP2 SWAP1 POP JUMP JUMPDEST PUSH0 PUSH2 0x313 PUSH2 0x30E PUSH2 0x309 DUP5 PUSH2 0x2E7 JUMP JUMPDEST PUSH2 0x2F0 JUMP JUMPDEST PUSH2 0x2E7 JUMP JUMPDEST SWAP1 POP SWAP2 SWAP1 POP JUMP JUMPDEST PUSH0 DUP2 SWAP1 POP SWAP2 SWAP1 POP JUMP JUMPDEST PUSH2 0x32C DUP4 PUSH2 0x2F9 JUMP JUMPDEST PUSH2 0x340 PUSH2 0x338 DUP3 PUSH2 0x31A JUMP JUMPDEST DUP5 DUP5 SLOAD PUSH2 0x296 JUMP JUMPDEST DUP3 SSTORE POP POP POP POP JUMP JUMPDEST PUSH0 SWAP1 JUMP JUMPDEST PUSH2 0x354 PUSH2 0x348 JUMP JUMPDEST PUSH2 0x35F DUP2 DUP5 DUP5 PUSH2 0x323 JUMP JUMPDEST POP POP POP JUMP JUMPDEST JUMPDEST DUP2 DUP2 LT ISZERO PUSH2 0x382 JUMPI PUSH2 0x377 PUSH0 DUP3 PUSH2 0x34C JUMP JUMPDEST PUSH1 0x1 DUP2 ADD SWAP1 POP PUSH2 0x365 JUMP JUMPDEST POP POP JUMP JUMPDEST PUSH1 0x1F DUP3 GT ISZERO PUSH2 0x3C7 JUMPI PUSH2 0x398 DUP2 PUSH2 0x269 JUMP JUMPDEST PUSH2 0x3A1 DUP5 PUSH2 0x27B JUMP JUMPDEST DUP2 ADD PUSH1 0x20 DUP6 LT ISZERO PUSH2 0x3B0 JUMPI DUP2 SWAP1 POP JUMPDEST PUSH2 0x3C4 PUSH2 0x3BC DUP6 PUSH2 0x27B JUMP JUMPDEST DUP4 ADD DUP3 PUSH2 0x364 JUMP JUMPDEST POP POP JUMPDEST POP POP POP JUMP JUMPDEST PUSH0 DUP3 DUP3 SHR SWAP1 POP SWAP3 SWAP2 POP POP JUMP JUMPDEST PUSH0 PUSH2 0x3E7 PUSH0 NOT DUP5 PUSH1 0x8 MUL PUSH2 0x3CC JUMP JUMPDEST NOT DUP1 DUP4 AND SWAP2 POP POP SWAP3 SWAP2 POP POP JUMP JUMPDEST PUSH0 PUSH2 0x3FF DUP4 DUP4 PUSH2 0x3D8 JUMP JUMPDEST SWAP2 POP DUP3 PUSH1 0x2 MUL DUP3 OR SWAP1 POP SWAP3 SWAP2 POP POP JUMP JUMPDEST PUSH2 0x418 DUP3 PUSH2 0x135 JUMP JUMPDEST PUSH8 0xFFFFFFFFFFFFFFFF DUP2 GT ISZERO PUSH2 0x431 JUMPI PUSH2 0x430 PUSH2 0x1DF JUMP JUMPDEST JUMPDEST PUSH2 0x43B DUP3 SLOAD PUSH2 0x239 JUMP JUMPDEST PUSH2 0x446 DUP3 DUP3 DUP6 PUSH2 0x386 JUMP JUMPDEST PUSH0 PUSH1 0x20 SWAP1 POP PUSH1 0x1F DUP4 GT PUSH1 0x1 DUP2 EQ PUSH2 0x477 JUMPI PUSH0 DUP5 ISZERO PUSH2 0x465 JUMPI DUP3 DUP8 ADD MLOAD SWAP1 POP JUMPDEST PUSH2 0x46F DUP6 DUP3 PUSH2 0x3F4 JUMP JUMPDEST DUP7 SSTORE POP PUSH2 0x4D6 JUMP JUMPDEST PUSH1 0x1F NOT DUP5 AND PUSH2 0x485 DUP7 PUSH2 0x269 JUMP JUMPDEST PUSH0 JUMPDEST DUP3 DUP2 LT ISZERO PUSH2 0x4AC JUMPI DUP5 DUP10 ADD MLOAD DUP3 SSTORE PUSH1 0x1 DUP3 ADD SWAP2 POP PUSH1 0x20 DUP6 ADD SWAP5 POP PUSH1 0x20 DUP2 ADD SWAP1 POP PUSH2 0x487 JUMP JUMPDEST DUP7 DUP4 LT ISZERO PUSH2 0x4C9 JUMPI DUP5 DUP10 ADD MLOAD PUSH2 0x4C5 PUSH1 0x1F DUP10 AND DUP3 PUSH2 0x3D8 JUMP JUMPDEST DUP4 SSTORE POP JUMPDEST PUSH1 0x1 PUSH1 0x2 DUP9 MUL ADD DUP9 SSTORE POP POP POP JUMPDEST POP POP POP POP POP POP JUMP INVALID LOG2 PUSH5 0x6970667358 0x22 SLT KECCAK256 CALLER 0xE9 0xE9 0x21 0xC9 0xCE 0x4F 0xDA PUSH31 0xA8A2CE0596F15A70F98BA367CF67AFD22A303F67F484B64736F6C63430008 OR STOP CALLER "
		},
		"gasEstimates": {
			"creation": {
				"codeDepositCost": "260000",
				"executionCost": "298",
				"totalCost": "260298"
			},
			"external": {
				"getter()": "infinite",
				"setter()": "infinite"
			}
		},
		"methodIdentifiers": {
			"getter()": "993a04b7",
			"setter()": "3f3108f7"
		}
	},
	"abi": [
		{
			"inputs": [],
			"name": "getter",
			"outputs": [
				{
					"internalType": "string",
					"name": "",
					"type": "string"
				}
			],
			"stateMutability": "view",
			"type": "function"
		},
		{
			"inputs": [],
			"name": "setter",
			"outputs": [],
			"stateMutability": "nonpayable",
			"type": "function"
		}
	]
}