{
	"data": {
		"bytecode": {
			"linkReferences": {},
			"object": "608060405234801561000f575f80fd5b506102298061001d5f395ff3fe608060405234801561000f575f80fd5b5060043610610029575f3560e01c80634c4988a81461002d575b5f80fd5b610047600480360381019061004291906100e4565b61005d565b6040516100549190610199565b60405180910390f35b60605f8260405160200161007191906101d9565b604051602081830303815290604052905080915050919050565b5f80fd5b5f7fffffff000000000000000000000000000000000000000000000000000000000082169050919050565b6100c38161008f565b81146100cd575f80fd5b50565b5f813590506100de816100ba565b92915050565b5f602082840312156100f9576100f861008b565b5b5f610106848285016100d0565b91505092915050565b5f81519050919050565b5f82825260208201905092915050565b5f5b8381101561014657808201518184015260208101905061012b565b5f8484015250505050565b5f601f19601f8301169050919050565b5f61016b8261010f565b6101758185610119565b9350610185818560208601610129565b61018e81610151565b840191505092915050565b5f6020820190508181035f8301526101b18184610161565b905092915050565b5f819050919050565b6101d36101ce8261008f565b6101b9565b82525050565b5f6101e482846101c2565b6003820191508190509291505056fea2646970667358221220a10b7a660a068f39dbf69caa11aaccce8fca31310b1e73ed7c5b5f7b50fcb80264736f6c63430008160033",
			"opcodes": "PUSH1 0x80 PUSH1 0x40 MSTORE CALLVALUE DUP1 ISZERO PUSH2 0xF JUMPI PUSH0 DUP1 REVERT JUMPDEST POP PUSH2 0x229 DUP1 PUSH2 0x1D PUSH0 CODECOPY PUSH0 RETURN INVALID PUSH1 0x80 PUSH1 0x40 MSTORE CALLVALUE DUP1 ISZERO PUSH2 0xF JUMPI PUSH0 DUP1 REVERT JUMPDEST POP PUSH1 0x4 CALLDATASIZE LT PUSH2 0x29 JUMPI PUSH0 CALLDATALOAD PUSH1 0xE0 SHR DUP1 PUSH4 0x4C4988A8 EQ PUSH2 0x2D JUMPI JUMPDEST PUSH0 DUP1 REVERT JUMPDEST PUSH2 0x47 PUSH1 0x4 DUP1 CALLDATASIZE SUB DUP2 ADD SWAP1 PUSH2 0x42 SWAP2 SWAP1 PUSH2 0xE4 JUMP JUMPDEST PUSH2 0x5D JUMP JUMPDEST PUSH1 0x40 MLOAD PUSH2 0x54 SWAP2 SWAP1 PUSH2 0x199 JUMP JUMPDEST PUSH1 0x40 MLOAD DUP1 SWAP2 SUB SWAP1 RETURN JUMPDEST PUSH1 0x60 PUSH0 DUP3 PUSH1 0x40 MLOAD PUSH1 0x20 ADD PUSH2 0x71 SWAP2 SWAP1 PUSH2 0x1D9 JUMP JUMPDEST PUSH1 0x40 MLOAD PUSH1 0x20 DUP2 DUP4 SUB SUB DUP2 MSTORE SWAP1 PUSH1 0x40 MSTORE SWAP1 POP DUP1 SWAP2 POP POP SWAP2 SWAP1 POP JUMP JUMPDEST PUSH0 DUP1 REVERT JUMPDEST PUSH0 PUSH32 0xFFFFFF0000000000000000000000000000000000000000000000000000000000 DUP3 AND SWAP1 POP SWAP2 SWAP1 POP JUMP JUMPDEST PUSH2 0xC3 DUP2 PUSH2 0x8F JUMP JUMPDEST DUP2 EQ PUSH2 0xCD JUMPI PUSH0 DUP1 REVERT JUMPDEST POP JUMP JUMPDEST PUSH0 DUP2 CALLDATALOAD SWAP1 POP PUSH2 0xDE DUP2 PUSH2 0xBA JUMP JUMPDEST SWAP3 SWAP2 POP POP JUMP JUMPDEST PUSH0 PUSH1 0x20 DUP3 DUP5 SUB SLT ISZERO PUSH2 0xF9 JUMPI PUSH2 0xF8 PUSH2 0x8B JUMP JUMPDEST JUMPDEST PUSH0 PUSH2 0x106 DUP5 DUP3 DUP6 ADD PUSH2 0xD0 JUMP JUMPDEST SWAP2 POP POP SWAP3 SWAP2 POP POP JUMP JUMPDEST PUSH0 DUP2 MLOAD SWAP1 POP SWAP2 SWAP1 POP JUMP JUMPDEST PUSH0 DUP3 DUP3 MSTORE PUSH1 0x20 DUP3 ADD SWAP1 POP SWAP3 SWAP2 POP POP JUMP JUMPDEST PUSH0 JUMPDEST DUP4 DUP2 LT ISZERO PUSH2 0x146 JUMPI DUP1 DUP3 ADD MLOAD DUP2 DUP5 ADD MSTORE PUSH1 0x20 DUP2 ADD SWAP1 POP PUSH2 0x12B JUMP JUMPDEST PUSH0 DUP5 DUP5 ADD MSTORE POP POP POP POP JUMP JUMPDEST PUSH0 PUSH1 0x1F NOT PUSH1 0x1F DUP4 ADD AND SWAP1 POP SWAP2 SWAP1 POP JUMP JUMPDEST PUSH0 PUSH2 0x16B DUP3 PUSH2 0x10F JUMP JUMPDEST PUSH2 0x175 DUP2 DUP6 PUSH2 0x119 JUMP JUMPDEST SWAP4 POP PUSH2 0x185 DUP2 DUP6 PUSH1 0x20 DUP7 ADD PUSH2 0x129 JUMP JUMPDEST PUSH2 0x18E DUP2 PUSH2 0x151 JUMP JUMPDEST DUP5 ADD SWAP2 POP POP SWAP3 SWAP2 POP POP JUMP JUMPDEST PUSH0 PUSH1 0x20 DUP3 ADD SWAP1 POP DUP2 DUP2 SUB PUSH0 DUP4 ADD MSTORE PUSH2 0x1B1 DUP2 DUP5 PUSH2 0x161 JUMP JUMPDEST SWAP1 POP SWAP3 SWAP2 POP POP JUMP JUMPDEST PUSH0 DUP2 SWAP1 POP SWAP2 SWAP1 POP JUMP JUMPDEST PUSH2 0x1D3 PUSH2 0x1CE DUP3 PUSH2 0x8F JUMP JUMPDEST PUSH2 0x1B9 JUMP JUMPDEST DUP3 MSTORE POP POP JUMP JUMPDEST PUSH0 PUSH2 0x1E4 DUP3 DUP5 PUSH2 0x1C2 JUMP JUMPDEST PUSH1 0x3 DUP3 ADD SWAP2 POP DUP2 SWAP1 POP SWAP3 SWAP2 POP POP JUMP INVALID LOG2 PUSH5 0x6970667358 0x22 SLT KECCAK256 LOG1 SIGNEXTEND PUSH27 0x660A068F39DBF69CAA11AACCCE8FCA31310B1E73ED7C5B5F7B50FC 0xB8 MUL PUSH5 0x736F6C6343 STOP ADDMOD AND STOP CALLER "
		},
		"gasEstimates": {
			"creation": {
				"codeDepositCost": "110600",
				"executionCost": "157",
				"totalCost": "110757"
			},
			"external": {
				"ByteToStrng(bytes3)": "infinite"
			}
		},
		"methodIdentifiers": {
			"ByteToStrng(bytes3)": "4c4988a8"
		}
	},
	"abi": [
		{
			"inputs": [
				{
					"internalType": "bytes3",
					"name": "bt",
					"type": "bytes3"
				}
			],
			"name": "ByteToStrng",
			"outputs": [
				{
					"internalType": "string",
					"name": "",
					"type": "string"
				}
			],
			"stateMutability": "pure",
			"type": "function"
		}
	]
}