{
	"data": {
		"bytecode": {
			"linkReferences": {},
			"object": "60806040526040518060a00160405280600160ff168152602001600260ff168152602001600360ff168152602001600460ff168152602001600560ff168152505f90600561004e929190610060565b5034801561005a575f80fd5b506100cb565b828054828255905f5260205f2090810192821561009f579160200282015b8281111561009e578251829060ff1690559160200191906001019061007e565b5b5090506100ac91906100b0565b5090565b5b808211156100c7575f815f9055506001016100b1565b5090565b6103b6806100d85f395ff3fe608060405234801561000f575f80fd5b5060043610610029575f3560e01c8063a28ea7ac1461002d575b5f80fd5b61003561004c565b60405161004392919061034b565b60405180910390f35b6060806040518060e001604052807fffffffffffffffffffffffffffffffffffffffffffffffffffffffffffffffbc815260200161036e81526020016059815260200160078152602001602d815260200160408152602001603981525060019060076100b9929190610165565b505f60018180548060200260200160405190810160405280929190818152602001828054801561010657602002820191905f5260205f20905b8154815260200190600101908083116100f2575b505050505091508080548060200260200160405190810160405280929190818152602001828054801561015657602002820191905f5260205f20905b815481526020019060010190808311610142575b50505050509050915091509091565b828054828255905f5260205f2090810192821561019f579160200282015b8281111561019e578251825591602001919060010190610183565b5b5090506101ac91906101b0565b5090565b5b808211156101c7575f815f9055506001016101b1565b5090565b5f81519050919050565b5f82825260208201905092915050565b5f819050602082019050919050565b5f819050919050565b610206816101f4565b82525050565b5f61021783836101fd565b60208301905092915050565b5f602082019050919050565b5f610239826101cb565b61024381856101d5565b935061024e836101e5565b805f5b8381101561027e578151610265888261020c565b975061027083610223565b925050600181019050610251565b5085935050505092915050565b5f81519050919050565b5f82825260208201905092915050565b5f819050602082019050919050565b5f819050919050565b6102c6816102b4565b82525050565b5f6102d783836102bd565b60208301905092915050565b5f602082019050919050565b5f6102f98261028b565b6103038185610295565b935061030e836102a5565b805f5b8381101561033e57815161032588826102cc565b9750610330836102e3565b925050600181019050610311565b5085935050505092915050565b5f6040820190508181035f830152610363818561022f565b9050818103602083015261037781846102ef565b9050939250505056fea264697066735822122065efabc9b878c8d938b92bdbb7179277993d9e59cc1e70cf2718cd94e2ed22b764736f6c63430008160033",
			"opcodes": "PUSH1 0x80 PUSH1 0x40 MSTORE PUSH1 0x40 MLOAD DUP1 PUSH1 0xA0 ADD PUSH1 0x40 MSTORE DUP1 PUSH1 0x1 PUSH1 0xFF AND DUP2 MSTORE PUSH1 0x20 ADD PUSH1 0x2 PUSH1 0xFF AND DUP2 MSTORE PUSH1 0x20 ADD PUSH1 0x3 PUSH1 0xFF AND DUP2 MSTORE PUSH1 0x20 ADD PUSH1 0x4 PUSH1 0xFF AND DUP2 MSTORE PUSH1 0x20 ADD PUSH1 0x5 PUSH1 0xFF AND DUP2 MSTORE POP PUSH0 SWAP1 PUSH1 0x5 PUSH2 0x4E SWAP3 SWAP2 SWAP1 PUSH2 0x60 JUMP JUMPDEST POP CALLVALUE DUP1 ISZERO PUSH2 0x5A JUMPI PUSH0 DUP1 REVERT JUMPDEST POP PUSH2 0xCB JUMP JUMPDEST DUP3 DUP1 SLOAD DUP3 DUP3 SSTORE SWAP1 PUSH0 MSTORE PUSH1 0x20 PUSH0 KECCAK256 SWAP1 DUP2 ADD SWAP3 DUP3 ISZERO PUSH2 0x9F JUMPI SWAP2 PUSH1 0x20 MUL DUP3 ADD JUMPDEST DUP3 DUP2 GT ISZERO PUSH2 0x9E JUMPI DUP3 MLOAD DUP3 SWAP1 PUSH1 0xFF AND SWAP1 SSTORE SWAP2 PUSH1 0x20 ADD SWAP2 SWAP1 PUSH1 0x1 ADD SWAP1 PUSH2 0x7E JUMP JUMPDEST JUMPDEST POP SWAP1 POP PUSH2 0xAC SWAP2 SWAP1 PUSH2 0xB0 JUMP JUMPDEST POP SWAP1 JUMP JUMPDEST JUMPDEST DUP1 DUP3 GT ISZERO PUSH2 0xC7 JUMPI PUSH0 DUP2 PUSH0 SWAP1 SSTORE POP PUSH1 0x1 ADD PUSH2 0xB1 JUMP JUMPDEST POP SWAP1 JUMP JUMPDEST PUSH2 0x3B6 DUP1 PUSH2 0xD8 PUSH0 CODECOPY PUSH0 RETURN INVALID PUSH1 0x80 PUSH1 0x40 MSTORE CALLVALUE DUP1 ISZERO PUSH2 0xF JUMPI PUSH0 DUP1 REVERT JUMPDEST POP PUSH1 0x4 CALLDATASIZE LT PUSH2 0x29 JUMPI PUSH0 CALLDATALOAD PUSH1 0xE0 SHR DUP1 PUSH4 0xA28EA7AC EQ PUSH2 0x2D JUMPI JUMPDEST PUSH0 DUP1 REVERT JUMPDEST PUSH2 0x35 PUSH2 0x4C JUMP JUMPDEST PUSH1 0x40 MLOAD PUSH2 0x43 SWAP3 SWAP2 SWAP1 PUSH2 0x34B JUMP JUMPDEST PUSH1 0x40 MLOAD DUP1 SWAP2 SUB SWAP1 RETURN JUMPDEST PUSH1 0x60 DUP1 PUSH1 0x40 MLOAD DUP1 PUSH1 0xE0 ADD PUSH1 0x40 MSTORE DUP1 PUSH32 0xFFFFFFFFFFFFFFFFFFFFFFFFFFFFFFFFFFFFFFFFFFFFFFFFFFFFFFFFFFFFFFBC DUP2 MSTORE PUSH1 0x20 ADD PUSH2 0x36E DUP2 MSTORE PUSH1 0x20 ADD PUSH1 0x59 DUP2 MSTORE PUSH1 0x20 ADD PUSH1 0x7 DUP2 MSTORE PUSH1 0x20 ADD PUSH1 0x2D DUP2 MSTORE PUSH1 0x20 ADD PUSH1 0x40 DUP2 MSTORE PUSH1 0x20 ADD PUSH1 0x39 DUP2 MSTORE POP PUSH1 0x1 SWAP1 PUSH1 0x7 PUSH2 0xB9 SWAP3 SWAP2 SWAP1 PUSH2 0x165 JUMP JUMPDEST POP PUSH0 PUSH1 0x1 DUP2 DUP1 SLOAD DUP1 PUSH1 0x20 MUL PUSH1 0x20 ADD PUSH1 0x40 MLOAD SWAP1 DUP2 ADD PUSH1 0x40 MSTORE DUP1 SWAP3 SWAP2 SWAP1 DUP2 DUP2 MSTORE PUSH1 0x20 ADD DUP3 DUP1 SLOAD DUP1 ISZERO PUSH2 0x106 JUMPI PUSH1 0x20 MUL DUP3 ADD SWAP2 SWAP1 PUSH0 MSTORE PUSH1 0x20 PUSH0 KECCAK256 SWAP1 JUMPDEST DUP2 SLOAD DUP2 MSTORE PUSH1 0x20 ADD SWAP1 PUSH1 0x1 ADD SWAP1 DUP1 DUP4 GT PUSH2 0xF2 JUMPI JUMPDEST POP POP POP POP POP SWAP2 POP DUP1 DUP1 SLOAD DUP1 PUSH1 0x20 MUL PUSH1 0x20 ADD PUSH1 0x40 MLOAD SWAP1 DUP2 ADD PUSH1 0x40 MSTORE DUP1 SWAP3 SWAP2 SWAP1 DUP2 DUP2 MSTORE PUSH1 0x20 ADD DUP3 DUP1 SLOAD DUP1 ISZERO PUSH2 0x156 JUMPI PUSH1 0x20 MUL DUP3 ADD SWAP2 SWAP1 PUSH0 MSTORE PUSH1 0x20 PUSH0 KECCAK256 SWAP1 JUMPDEST DUP2 SLOAD DUP2 MSTORE PUSH1 0x20 ADD SWAP1 PUSH1 0x1 ADD SWAP1 DUP1 DUP4 GT PUSH2 0x142 JUMPI JUMPDEST POP POP POP POP POP SWAP1 POP SWAP2 POP SWAP2 POP SWAP1 SWAP2 JUMP JUMPDEST DUP3 DUP1 SLOAD DUP3 DUP3 SSTORE SWAP1 PUSH0 MSTORE PUSH1 0x20 PUSH0 KECCAK256 SWAP1 DUP2 ADD SWAP3 DUP3 ISZERO PUSH2 0x19F JUMPI SWAP2 PUSH1 0x20 MUL DUP3 ADD JUMPDEST DUP3 DUP2 GT ISZERO PUSH2 0x19E JUMPI DUP3 MLOAD DUP3 SSTORE SWAP2 PUSH1 0x20 ADD SWAP2 SWAP1 PUSH1 0x1 ADD SWAP1 PUSH2 0x183 JUMP JUMPDEST JUMPDEST POP SWAP1 POP PUSH2 0x1AC SWAP2 SWAP1 PUSH2 0x1B0 JUMP JUMPDEST POP SWAP1 JUMP JUMPDEST JUMPDEST DUP1 DUP3 GT ISZERO PUSH2 0x1C7 JUMPI PUSH0 DUP2 PUSH0 SWAP1 SSTORE POP PUSH1 0x1 ADD PUSH2 0x1B1 JUMP JUMPDEST POP SWAP1 JUMP JUMPDEST PUSH0 DUP2 MLOAD SWAP1 POP SWAP2 SWAP1 POP JUMP JUMPDEST PUSH0 DUP3 DUP3 MSTORE PUSH1 0x20 DUP3 ADD SWAP1 POP SWAP3 SWAP2 POP POP JUMP JUMPDEST PUSH0 DUP2 SWAP1 POP PUSH1 0x20 DUP3 ADD SWAP1 POP SWAP2 SWAP1 POP JUMP JUMPDEST PUSH0 DUP2 SWAP1 POP SWAP2 SWAP1 POP JUMP JUMPDEST PUSH2 0x206 DUP2 PUSH2 0x1F4 JUMP JUMPDEST DUP3 MSTORE POP POP JUMP JUMPDEST PUSH0 PUSH2 0x217 DUP4 DUP4 PUSH2 0x1FD JUMP JUMPDEST PUSH1 0x20 DUP4 ADD SWAP1 POP SWAP3 SWAP2 POP POP JUMP JUMPDEST PUSH0 PUSH1 0x20 DUP3 ADD SWAP1 POP SWAP2 SWAP1 POP JUMP JUMPDEST PUSH0 PUSH2 0x239 DUP3 PUSH2 0x1CB JUMP JUMPDEST PUSH2 0x243 DUP2 DUP6 PUSH2 0x1D5 JUMP JUMPDEST SWAP4 POP PUSH2 0x24E DUP4 PUSH2 0x1E5 JUMP JUMPDEST DUP1 PUSH0 JUMPDEST DUP4 DUP2 LT ISZERO PUSH2 0x27E JUMPI DUP2 MLOAD PUSH2 0x265 DUP9 DUP3 PUSH2 0x20C JUMP JUMPDEST SWAP8 POP PUSH2 0x270 DUP4 PUSH2 0x223 JUMP JUMPDEST SWAP3 POP POP PUSH1 0x1 DUP2 ADD SWAP1 POP PUSH2 0x251 JUMP JUMPDEST POP DUP6 SWAP4 POP POP POP POP SWAP3 SWAP2 POP POP JUMP JUMPDEST PUSH0 DUP2 MLOAD SWAP1 POP SWAP2 SWAP1 POP JUMP JUMPDEST PUSH0 DUP3 DUP3 MSTORE PUSH1 0x20 DUP3 ADD SWAP1 POP SWAP3 SWAP2 POP POP JUMP JUMPDEST PUSH0 DUP2 SWAP1 POP PUSH1 0x20 DUP3 ADD SWAP1 POP SWAP2 SWAP1 POP JUMP JUMPDEST PUSH0 DUP2 SWAP1 POP SWAP2 SWAP1 POP JUMP JUMPDEST PUSH2 0x2C6 DUP2 PUSH2 0x2B4 JUMP JUMPDEST DUP3 MSTORE POP POP JUMP JUMPDEST PUSH0 PUSH2 0x2D7 DUP4 DUP4 PUSH2 0x2BD JUMP JUMPDEST PUSH1 0x20 DUP4 ADD SWAP1 POP SWAP3 SWAP2 POP POP JUMP JUMPDEST PUSH0 PUSH1 0x20 DUP3 ADD SWAP1 POP SWAP2 SWAP1 POP JUMP JUMPDEST PUSH0 PUSH2 0x2F9 DUP3 PUSH2 0x28B JUMP JUMPDEST PUSH2 0x303 DUP2 DUP6 PUSH2 0x295 JUMP JUMPDEST SWAP4 POP PUSH2 0x30E DUP4 PUSH2 0x2A5 JUMP JUMPDEST DUP1 PUSH0 JUMPDEST DUP4 DUP2 LT ISZERO PUSH2 0x33E JUMPI DUP2 MLOAD PUSH2 0x325 DUP9 DUP3 PUSH2 0x2CC JUMP JUMPDEST SWAP8 POP PUSH2 0x330 DUP4 PUSH2 0x2E3 JUMP JUMPDEST SWAP3 POP POP PUSH1 0x1 DUP2 ADD SWAP1 POP PUSH2 0x311 JUMP JUMPDEST POP DUP6 SWAP4 POP POP POP POP SWAP3 SWAP2 POP POP JUMP JUMPDEST PUSH0 PUSH1 0x40 DUP3 ADD SWAP1 POP DUP2 DUP2 SUB PUSH0 DUP4 ADD MSTORE PUSH2 0x363 DUP2 DUP6 PUSH2 0x22F JUMP JUMPDEST SWAP1 POP DUP2 DUP2 SUB PUSH1 0x20 DUP4 ADD MSTORE PUSH2 0x377 DUP2 DUP5 PUSH2 0x2EF JUMP JUMPDEST SWAP1 POP SWAP4 SWAP3 POP POP POP JUMP INVALID LOG2 PUSH5 0x6970667358 0x22 SLT KECCAK256 PUSH6 0xEFABC9B878C8 0xD9 CODESIZE 0xB9 0x2B 0xDB 0xB7 OR SWAP3 PUSH24 0x993D9E59CC1E70CF2718CD94E2ED22B764736F6C63430008 AND STOP CALLER "
		},
		"gasEstimates": {
			"creation": {
				"codeDepositCost": "190000",
				"executionCost": "infinite",
				"totalCost": "infinite"
			},
			"external": {
				"dyArr()": "infinite"
			}
		},
		"methodIdentifiers": {
			"dyArr()": "a28ea7ac"
		}
	},
	"abi": [
		{
			"inputs": [],
			"name": "dyArr",
			"outputs": [
				{
					"internalType": "uint256[]",
					"name": "",
					"type": "uint256[]"
				},
				{
					"internalType": "int256[]",
					"name": "",
					"type": "int256[]"
				}
			],
			"stateMutability": "nonpayable",
			"type": "function"
		}
	]
}