{
	"data": {
		"bytecode": {
			"linkReferences": {},
			"object": "6080604052348015600e575f80fd5b50606a80601a5f395ff3fe6080604052348015600e575f80fd5b50600436106026575f3560e01c80638f7dcfa314602a575b5f80fd5b60306032565b005b56fea26469706673582212201d8c1682ff0a57657fe1d0a0526b9cd779658e2a2106d4fa611a386a2389410264736f6c63430008170033",
			"opcodes": "PUSH1 0x80 PUSH1 0x40 MSTORE CALLVALUE DUP1 ISZERO PUSH1 0xE JUMPI PUSH0 DUP1 REVERT JUMPDEST POP PUSH1 0x6A DUP1 PUSH1 0x1A PUSH0 CODECOPY PUSH0 RETURN INVALID PUSH1 0x80 PUSH1 0x40 MSTORE CALLVALUE DUP1 ISZERO PUSH1 0xE JUMPI PUSH0 DUP1 REVERT JUMPDEST POP PUSH1 0x4 CALLDATASIZE LT PUSH1 0x26 JUMPI PUSH0 CALLDATALOAD PUSH1 0xE0 SHR DUP1 PUSH4 0x8F7DCFA3 EQ PUSH1 0x2A JUMPI JUMPDEST PUSH0 DUP1 REVERT JUMPDEST PUSH1 0x30 PUSH1 0x32 JUMP JUMPDEST STOP JUMPDEST JUMP INVALID LOG2 PUSH5 0x6970667358 0x22 SLT KECCAK256 SAR DUP13 AND DUP3 SELFDESTRUCT EXP JUMPI PUSH6 0x7FE1D0A0526B SWAP13 0xD7 PUSH26 0x658E2A2106D4FA611A386A2389410264736F6C63430008170033 "
		},
		"gasEstimates": {
			"creation": {
				"codeDepositCost": "21200",
				"executionCost": "73",
				"totalCost": "21273"
			},
			"external": {
				"head()": "121"
			}
		},
		"methodIdentifiers": {
			"head()": "8f7dcfa3"
		}
	},
	"abi": [
		{
			"inputs": [],
			"name": "head",
			"outputs": [],
			"stateMutability": "nonpayable",
			"type": "function"
		}
	]
}