{
	"data": {
		"bytecode": {
			"linkReferences": {},
			"object": "608060405234801561000f575f80fd5b5061061f8061001d5f395ff3fe608060405234801561000f575f80fd5b5060043610610034575f3560e01c8063912a5bde14610038578063f816a70f14610058575b5f80fd5b610040610078565b60405161004f939291906102b7565b60405180910390f35b610060610114565b60405161006f939291906102b7565b60405180910390f35b5f805f01805461008790610320565b80601f01602080910402602001604051908101604052809291908181526020018280546100b390610320565b80156100fe5780601f106100d5576101008083540402835291602001916100fe565b820191905f5260205f20905b8154815290600101906020018083116100e157829003601f168201915b5050505050908060010154908060020154905083565b60605f806040518060400160405280600581526020017f4a616d65730000000000000000000000000000000000000000000000000000008152505f8001908161015d919061051a565b5061052c5f6001018190555060175f600201819055505f80015f600101545f6002015482805461018c90610320565b80601f01602080910402602001604051908101604052809291908181526020018280546101b890610320565b80156102035780601f106101da57610100808354040283529160200191610203565b820191905f5260205f20905b8154815290600101906020018083116101e657829003601f168201915b50505050509250925092509250909192565b5f81519050919050565b5f82825260208201905092915050565b5f5b8381101561024c578082015181840152602081019050610231565b5f8484015250505050565b5f601f19601f8301169050919050565b5f61027182610215565b61027b818561021f565b935061028b81856020860161022f565b61029481610257565b840191505092915050565b5f819050919050565b6102b18161029f565b82525050565b5f6060820190508181035f8301526102cf8186610267565b90506102de60208301856102a8565b6102eb60408301846102a8565b949350505050565b7f4e487b71000000000000000000000000000000000000000000000000000000005f52602260045260245ffd5b5f600282049050600182168061033757607f821691505b60208210810361034a576103496102f3565b5b50919050565b7f4e487b71000000000000000000000000000000000000000000000000000000005f52604160045260245ffd5b5f819050815f5260205f209050919050565b5f6020601f8301049050919050565b5f82821b905092915050565b5f600883026103d97fffffffffffffffffffffffffffffffffffffffffffffffffffffffffffffffff8261039e565b6103e3868361039e565b95508019841693508086168417925050509392505050565b5f819050919050565b5f61041e6104196104148461029f565b6103fb565b61029f565b9050919050565b5f819050919050565b61043783610404565b61044b61044382610425565b8484546103aa565b825550505050565b5f90565b61045f610453565b61046a81848461042e565b505050565b5b8181101561048d576104825f82610457565b600181019050610470565b5050565b601f8211156104d2576104a38161037d565b6104ac8461038f565b810160208510156104bb578190505b6104cf6104c78561038f565b83018261046f565b50505b505050565b5f82821c905092915050565b5f6104f25f19846008026104d7565b1980831691505092915050565b5f61050a83836104e3565b9150826002028217905092915050565b61052382610215565b67ffffffffffffffff81111561053c5761053b610350565b5b6105468254610320565b610551828285610491565b5f60209050601f831160018114610582575f8415610570578287015190505b61057a85826104ff565b8655506105e1565b601f1984166105908661037d565b5f5b828110156105b757848901518255600182019150602085019450602081019050610592565b868310156105d457848901516105d0601f8916826104e3565b8355505b6001600288020188555050505b50505050505056fea26469706673582212203599340dde424409f33e4e42ac055ea07aa333692e59edc6c5793e865481aa6864736f6c63430008170033",
			"opcodes": "PUSH1 0x80 PUSH1 0x40 MSTORE CALLVALUE DUP1 ISZERO PUSH2 0xF JUMPI PUSH0 DUP1 REVERT JUMPDEST POP PUSH2 0x61F DUP1 PUSH2 0x1D PUSH0 CODECOPY PUSH0 RETURN INVALID PUSH1 0x80 PUSH1 0x40 MSTORE CALLVALUE DUP1 ISZERO PUSH2 0xF JUMPI PUSH0 DUP1 REVERT JUMPDEST POP PUSH1 0x4 CALLDATASIZE LT PUSH2 0x34 JUMPI PUSH0 CALLDATALOAD PUSH1 0xE0 SHR DUP1 PUSH4 0x912A5BDE EQ PUSH2 0x38 JUMPI DUP1 PUSH4 0xF816A70F EQ PUSH2 0x58 JUMPI JUMPDEST PUSH0 DUP1 REVERT JUMPDEST PUSH2 0x40 PUSH2 0x78 JUMP JUMPDEST PUSH1 0x40 MLOAD PUSH2 0x4F SWAP4 SWAP3 SWAP2 SWAP1 PUSH2 0x2B7 JUMP JUMPDEST PUSH1 0x40 MLOAD DUP1 SWAP2 SUB SWAP1 RETURN JUMPDEST PUSH2 0x60 PUSH2 0x114 JUMP JUMPDEST PUSH1 0x40 MLOAD PUSH2 0x6F SWAP4 SWAP3 SWAP2 SWAP1 PUSH2 0x2B7 JUMP JUMPDEST PUSH1 0x40 MLOAD DUP1 SWAP2 SUB SWAP1 RETURN JUMPDEST PUSH0 DUP1 PUSH0 ADD DUP1 SLOAD PUSH2 0x87 SWAP1 PUSH2 0x320 JUMP JUMPDEST DUP1 PUSH1 0x1F ADD PUSH1 0x20 DUP1 SWAP2 DIV MUL PUSH1 0x20 ADD PUSH1 0x40 MLOAD SWAP1 DUP2 ADD PUSH1 0x40 MSTORE DUP1 SWAP3 SWAP2 SWAP1 DUP2 DUP2 MSTORE PUSH1 0x20 ADD DUP3 DUP1 SLOAD PUSH2 0xB3 SWAP1 PUSH2 0x320 JUMP JUMPDEST DUP1 ISZERO PUSH2 0xFE JUMPI DUP1 PUSH1 0x1F LT PUSH2 0xD5 JUMPI PUSH2 0x100 DUP1 DUP4 SLOAD DIV MUL DUP4 MSTORE SWAP2 PUSH1 0x20 ADD SWAP2 PUSH2 0xFE JUMP JUMPDEST DUP3 ADD SWAP2 SWAP1 PUSH0 MSTORE PUSH1 0x20 PUSH0 KECCAK256 SWAP1 JUMPDEST DUP2 SLOAD DUP2 MSTORE SWAP1 PUSH1 0x1 ADD SWAP1 PUSH1 0x20 ADD DUP1 DUP4 GT PUSH2 0xE1 JUMPI DUP3 SWAP1 SUB PUSH1 0x1F AND DUP3 ADD SWAP2 JUMPDEST POP POP POP POP POP SWAP1 DUP1 PUSH1 0x1 ADD SLOAD SWAP1 DUP1 PUSH1 0x2 ADD SLOAD SWAP1 POP DUP4 JUMP JUMPDEST PUSH1 0x60 PUSH0 DUP1 PUSH1 0x40 MLOAD DUP1 PUSH1 0x40 ADD PUSH1 0x40 MSTORE DUP1 PUSH1 0x5 DUP2 MSTORE PUSH1 0x20 ADD PUSH32 0x4A616D6573000000000000000000000000000000000000000000000000000000 DUP2 MSTORE POP PUSH0 DUP1 ADD SWAP1 DUP2 PUSH2 0x15D SWAP2 SWAP1 PUSH2 0x51A JUMP JUMPDEST POP PUSH2 0x52C PUSH0 PUSH1 0x1 ADD DUP2 SWAP1 SSTORE POP PUSH1 0x17 PUSH0 PUSH1 0x2 ADD DUP2 SWAP1 SSTORE POP PUSH0 DUP1 ADD PUSH0 PUSH1 0x1 ADD SLOAD PUSH0 PUSH1 0x2 ADD SLOAD DUP3 DUP1 SLOAD PUSH2 0x18C SWAP1 PUSH2 0x320 JUMP JUMPDEST DUP1 PUSH1 0x1F ADD PUSH1 0x20 DUP1 SWAP2 DIV MUL PUSH1 0x20 ADD PUSH1 0x40 MLOAD SWAP1 DUP2 ADD PUSH1 0x40 MSTORE DUP1 SWAP3 SWAP2 SWAP1 DUP2 DUP2 MSTORE PUSH1 0x20 ADD DUP3 DUP1 SLOAD PUSH2 0x1B8 SWAP1 PUSH2 0x320 JUMP JUMPDEST DUP1 ISZERO PUSH2 0x203 JUMPI DUP1 PUSH1 0x1F LT PUSH2 0x1DA JUMPI PUSH2 0x100 DUP1 DUP4 SLOAD DIV MUL DUP4 MSTORE SWAP2 PUSH1 0x20 ADD SWAP2 PUSH2 0x203 JUMP JUMPDEST DUP3 ADD SWAP2 SWAP1 PUSH0 MSTORE PUSH1 0x20 PUSH0 KECCAK256 SWAP1 JUMPDEST DUP2 SLOAD DUP2 MSTORE SWAP1 PUSH1 0x1 ADD SWAP1 PUSH1 0x20 ADD DUP1 DUP4 GT PUSH2 0x1E6 JUMPI DUP3 SWAP1 SUB PUSH1 0x1F AND DUP3 ADD SWAP2 JUMPDEST POP POP POP POP POP SWAP3 POP SWAP3 POP SWAP3 POP SWAP3 POP SWAP1 SWAP2 SWAP3 JUMP JUMPDEST PUSH0 DUP2 MLOAD SWAP1 POP SWAP2 SWAP1 POP JUMP JUMPDEST PUSH0 DUP3 DUP3 MSTORE PUSH1 0x20 DUP3 ADD SWAP1 POP SWAP3 SWAP2 POP POP JUMP JUMPDEST PUSH0 JUMPDEST DUP4 DUP2 LT ISZERO PUSH2 0x24C JUMPI DUP1 DUP3 ADD MLOAD DUP2 DUP5 ADD MSTORE PUSH1 0x20 DUP2 ADD SWAP1 POP PUSH2 0x231 JUMP JUMPDEST PUSH0 DUP5 DUP5 ADD MSTORE POP POP POP POP JUMP JUMPDEST PUSH0 PUSH1 0x1F NOT PUSH1 0x1F DUP4 ADD AND SWAP1 POP SWAP2 SWAP1 POP JUMP JUMPDEST PUSH0 PUSH2 0x271 DUP3 PUSH2 0x215 JUMP JUMPDEST PUSH2 0x27B DUP2 DUP6 PUSH2 0x21F JUMP JUMPDEST SWAP4 POP PUSH2 0x28B DUP2 DUP6 PUSH1 0x20 DUP7 ADD PUSH2 0x22F JUMP JUMPDEST PUSH2 0x294 DUP2 PUSH2 0x257 JUMP JUMPDEST DUP5 ADD SWAP2 POP POP SWAP3 SWAP2 POP POP JUMP JUMPDEST PUSH0 DUP2 SWAP1 POP SWAP2 SWAP1 POP JUMP JUMPDEST PUSH2 0x2B1 DUP2 PUSH2 0x29F JUMP JUMPDEST DUP3 MSTORE POP POP JUMP JUMPDEST PUSH0 PUSH1 0x60 DUP3 ADD SWAP1 POP DUP2 DUP2 SUB PUSH0 DUP4 ADD MSTORE PUSH2 0x2CF DUP2 DUP7 PUSH2 0x267 JUMP JUMPDEST SWAP1 POP PUSH2 0x2DE PUSH1 0x20 DUP4 ADD DUP6 PUSH2 0x2A8 JUMP JUMPDEST PUSH2 0x2EB PUSH1 0x40 DUP4 ADD DUP5 PUSH2 0x2A8 JUMP JUMPDEST SWAP5 SWAP4 POP POP POP POP JUMP JUMPDEST PUSH32 0x4E487B7100000000000000000000000000000000000000000000000000000000 PUSH0 MSTORE PUSH1 0x22 PUSH1 0x4 MSTORE PUSH1 0x24 PUSH0 REVERT JUMPDEST PUSH0 PUSH1 0x2 DUP3 DIV SWAP1 POP PUSH1 0x1 DUP3 AND DUP1 PUSH2 0x337 JUMPI PUSH1 0x7F DUP3 AND SWAP2 POP JUMPDEST PUSH1 0x20 DUP3 LT DUP2 SUB PUSH2 0x34A JUMPI PUSH2 0x349 PUSH2 0x2F3 JUMP JUMPDEST JUMPDEST POP SWAP2 SWAP1 POP JUMP JUMPDEST PUSH32 0x4E487B7100000000000000000000000000000000000000000000000000000000 PUSH0 MSTORE PUSH1 0x41 PUSH1 0x4 MSTORE PUSH1 0x24 PUSH0 REVERT JUMPDEST PUSH0 DUP2 SWAP1 POP DUP2 PUSH0 MSTORE PUSH1 0x20 PUSH0 KECCAK256 SWAP1 POP SWAP2 SWAP1 POP JUMP JUMPDEST PUSH0 PUSH1 0x20 PUSH1 0x1F DUP4 ADD DIV SWAP1 POP SWAP2 SWAP1 POP JUMP JUMPDEST PUSH0 DUP3 DUP3 SHL SWAP1 POP SWAP3 SWAP2 POP POP JUMP JUMPDEST PUSH0 PUSH1 0x8 DUP4 MUL PUSH2 0x3D9 PUSH32 0xFFFFFFFFFFFFFFFFFFFFFFFFFFFFFFFFFFFFFFFFFFFFFFFFFFFFFFFFFFFFFFFF DUP3 PUSH2 0x39E JUMP JUMPDEST PUSH2 0x3E3 DUP7 DUP4 PUSH2 0x39E JUMP JUMPDEST SWAP6 POP DUP1 NOT DUP5 AND SWAP4 POP DUP1 DUP7 AND DUP5 OR SWAP3 POP POP POP SWAP4 SWAP3 POP POP POP JUMP JUMPDEST PUSH0 DUP2 SWAP1 POP SWAP2 SWAP1 POP JUMP JUMPDEST PUSH0 PUSH2 0x41E PUSH2 0x419 PUSH2 0x414 DUP5 PUSH2 0x29F JUMP JUMPDEST PUSH2 0x3FB JUMP JUMPDEST PUSH2 0x29F JUMP JUMPDEST SWAP1 POP SWAP2 SWAP1 POP JUMP JUMPDEST PUSH0 DUP2 SWAP1 POP SWAP2 SWAP1 POP JUMP JUMPDEST PUSH2 0x437 DUP4 PUSH2 0x404 JUMP JUMPDEST PUSH2 0x44B PUSH2 0x443 DUP3 PUSH2 0x425 JUMP JUMPDEST DUP5 DUP5 SLOAD PUSH2 0x3AA JUMP JUMPDEST DUP3 SSTORE POP POP POP POP JUMP JUMPDEST PUSH0 SWAP1 JUMP JUMPDEST PUSH2 0x45F PUSH2 0x453 JUMP JUMPDEST PUSH2 0x46A DUP2 DUP5 DUP5 PUSH2 0x42E JUMP JUMPDEST POP POP POP JUMP JUMPDEST JUMPDEST DUP2 DUP2 LT ISZERO PUSH2 0x48D JUMPI PUSH2 0x482 PUSH0 DUP3 PUSH2 0x457 JUMP JUMPDEST PUSH1 0x1 DUP2 ADD SWAP1 POP PUSH2 0x470 JUMP JUMPDEST POP POP JUMP JUMPDEST PUSH1 0x1F DUP3 GT ISZERO PUSH2 0x4D2 JUMPI PUSH2 0x4A3 DUP2 PUSH2 0x37D JUMP JUMPDEST PUSH2 0x4AC DUP5 PUSH2 0x38F JUMP JUMPDEST DUP2 ADD PUSH1 0x20 DUP6 LT ISZERO PUSH2 0x4BB JUMPI DUP2 SWAP1 POP JUMPDEST PUSH2 0x4CF PUSH2 0x4C7 DUP6 PUSH2 0x38F JUMP JUMPDEST DUP4 ADD DUP3 PUSH2 0x46F JUMP JUMPDEST POP POP JUMPDEST POP POP POP JUMP JUMPDEST PUSH0 DUP3 DUP3 SHR SWAP1 POP SWAP3 SWAP2 POP POP JUMP JUMPDEST PUSH0 PUSH2 0x4F2 PUSH0 NOT DUP5 PUSH1 0x8 MUL PUSH2 0x4D7 JUMP JUMPDEST NOT DUP1 DUP4 AND SWAP2 POP POP SWAP3 SWAP2 POP POP JUMP JUMPDEST PUSH0 PUSH2 0x50A DUP4 DUP4 PUSH2 0x4E3 JUMP JUMPDEST SWAP2 POP DUP3 PUSH1 0x2 MUL DUP3 OR SWAP1 POP SWAP3 SWAP2 POP POP JUMP JUMPDEST PUSH2 0x523 DUP3 PUSH2 0x215 JUMP JUMPDEST PUSH8 0xFFFFFFFFFFFFFFFF DUP2 GT ISZERO PUSH2 0x53C JUMPI PUSH2 0x53B PUSH2 0x350 JUMP JUMPDEST JUMPDEST PUSH2 0x546 DUP3 SLOAD PUSH2 0x320 JUMP JUMPDEST PUSH2 0x551 DUP3 DUP3 DUP6 PUSH2 0x491 JUMP JUMPDEST PUSH0 PUSH1 0x20 SWAP1 POP PUSH1 0x1F DUP4 GT PUSH1 0x1 DUP2 EQ PUSH2 0x582 JUMPI PUSH0 DUP5 ISZERO PUSH2 0x570 JUMPI DUP3 DUP8 ADD MLOAD SWAP1 POP JUMPDEST PUSH2 0x57A DUP6 DUP3 PUSH2 0x4FF JUMP JUMPDEST DUP7 SSTORE POP PUSH2 0x5E1 JUMP JUMPDEST PUSH1 0x1F NOT DUP5 AND PUSH2 0x590 DUP7 PUSH2 0x37D JUMP JUMPDEST PUSH0 JUMPDEST DUP3 DUP2 LT ISZERO PUSH2 0x5B7 JUMPI DUP5 DUP10 ADD MLOAD DUP3 SSTORE PUSH1 0x1 DUP3 ADD SWAP2 POP PUSH1 0x20 DUP6 ADD SWAP5 POP PUSH1 0x20 DUP2 ADD SWAP1 POP PUSH2 0x592 JUMP JUMPDEST DUP7 DUP4 LT ISZERO PUSH2 0x5D4 JUMPI DUP5 DUP10 ADD MLOAD PUSH2 0x5D0 PUSH1 0x1F DUP10 AND DUP3 PUSH2 0x4E3 JUMP JUMPDEST DUP4 SSTORE POP JUMPDEST PUSH1 0x1 PUSH1 0x2 DUP9 MUL ADD DUP9 SSTORE POP POP POP JUMPDEST POP POP POP POP POP POP JUMP INVALID LOG2 PUSH5 0x6970667358 0x22 SLT KECCAK256 CALLDATALOAD SWAP10 CALLVALUE 0xD 0xDE TIMESTAMP PREVRANDAO MULMOD RETURN RETURNDATACOPY 0x4E TIMESTAMP 0xAC SDIV 0x5E LOG0 PUSH27 0xA333692E59EDC6C5793E865481AA6864736F6C6343000817003300 "
		},
		"gasEstimates": {
			"creation": {
				"codeDepositCost": "313400",
				"executionCost": "347",
				"totalCost": "313747"
			},
			"external": {
				"Structure()": "infinite",
				"std1()": "infinite"
			}
		},
		"methodIdentifiers": {
			"Structure()": "f816a70f",
			"std1()": "912a5bde"
		}
	},
	"abi": [
		{
			"inputs": [],
			"name": "Structure",
			"outputs": [
				{
					"internalType": "string",
					"name": "",
					"type": "string"
				},
				{
					"internalType": "uint256",
					"name": "",
					"type": "uint256"
				},
				{
					"internalType": "uint256",
					"name": "",
					"type": "uint256"
				}
			],
			"stateMutability": "nonpayable",
			"type": "function"
		},
		{
			"inputs": [],
			"name": "std1",
			"outputs": [
				{
					"internalType": "string",
					"name": "ename",
					"type": "string"
				},
				{
					"internalType": "uint256",
					"name": "eid",
					"type": "uint256"
				},
				{
					"internalType": "uint256",
					"name": "workDays",
					"type": "uint256"
				}
			],
			"stateMutability": "view",
			"type": "function"
		}
	]
}